{
  "_format": "hh-sol-artifact-1",
  "contractName": "BCNFTMinter",
  "sourceName": "contracts/BCNFTMinter.sol",
  "abi": [
    {
      "inputs": [
        {
          "internalType": "contract ICurve",
          "name": "_curve",
          "type": "address"
        },
        {
          "internalType": "contract IERC20",
          "name": "_feeToken",
          "type": "address"
        },
        {
          "internalType": "address",
          "name": "_feeReceiver",
          "type": "address"
        },
        {
          "internalType": "uint256",
          "name": "maxTokenId",
          "type": "uint256"
        },
        {
          "internalType": "contract IERC721Mintable",
          "name": "token",
          "type": "address"
        }
      ],
      "stateMutability": "nonpayable",
      "type": "constructor"
    },
    {
      "inputs": [],
      "name": "ERC721MinterMaxTokenIdExceeded",
      "type": "error"
    },
    {
      "inputs": [
        {
          "internalType": "address",
          "name": "tokenContract",
          "type": "address"
        }
      ],
      "name": "ERC721MinterUnsupportedContractType",
      "type": "error"
    },
    {
      "inputs": [],
      "name": "ERC721MinterZeroMaxTokenId",
      "type": "error"
    },
    {
      "inputs": [],
      "name": "ERC721MinterZeroTokenAddress",
      "type": "error"
    },
    {
      "inputs": [],
      "name": "IllegalInterfaceId",
      "type": "error"
    },
    {
      "inputs": [
        {
          "internalType": "address",
          "name": "curveContract",
          "type": "address"
        }
      ],
      "name": "InvalidCurveContractType",
      "type": "error"
    },
    {
      "inputs": [],
      "name": "ZeroAddress",
      "type": "error"
    },
    {
      "inputs": [],
      "name": "currentTokenId",
      "outputs": [
        {
          "internalType": "uint256",
          "name": "tokenId",
          "type": "uint256"
        }
      ],
      "stateMutability": "view",
      "type": "function"
    },
    {
      "inputs": [],
      "name": "curve",
      "outputs": [
        {
          "internalType": "contract ICurve",
          "name": "",
          "type": "address"
        }
      ],
      "stateMutability": "view",
      "type": "function"
    },
    {
      "inputs": [],
      "name": "feeReceiver",
      "outputs": [
        {
          "internalType": "address",
          "name": "",
          "type": "address"
        }
      ],
      "stateMutability": "view",
      "type": "function"
    },
    {
      "inputs": [],
      "name": "feeToken",
      "outputs": [
        {
          "internalType": "contract IERC20",
          "name": "",
          "type": "address"
        }
      ],
      "stateMutability": "view",
      "type": "function"
    },
    {
      "inputs": [],
      "name": "maxTokenId",
      "outputs": [
        {
          "internalType": "uint256",
          "name": "tokenId",
          "type": "uint256"
        }
      ],
      "stateMutability": "view",
      "type": "function"
    },
    {
      "inputs": [
        {
          "internalType": "address",
          "name": "to",
          "type": "address"
        }
      ],
      "name": "mint",
      "outputs": [],
      "stateMutability": "nonpayable",
      "type": "function"
    },
    {
      "inputs": [
        {
          "internalType": "bytes4",
          "name": "interfaceId",
          "type": "bytes4"
        }
      ],
      "name": "supportsInterface",
      "outputs": [
        {
          "internalType": "bool",
          "name": "",
          "type": "bool"
        }
      ],
      "stateMutability": "view",
      "type": "function"
    }
  ],
  "bytecode": "0x60806040523480156200001157600080fd5b5060405162000e9238038062000e92833981016040819052620000349162000375565b81816200004e82826200004662000169565b91906200019f565b50506040516301ffc9a760e01b815263a6413a2760e01b60048201526001600160a01b038616906301ffc9a790602401602060405180830381865afa1580156200009c573d6000803e3d6000fd5b505050506040513d601f19601f82011682018060405250810190620000c29190620003e9565b620000f05760405163b4b6025160e01b81526001600160a01b03861660048201526024015b60405180910390fd5b600080546001600160a01b038088166001600160a01b03199283161790925560018054878416921691909117905583166200013e5760405163d92e233d60e01b815260040160405180910390fd5b5050600280546001600160a01b0319166001600160a01b039290921691909117905550620004369050565b6000806200019960017f693bcdae20ebbf8c20ad73778252483eb64f50287e6e826c8678109643b4917662000414565b92915050565b81600003620001c15760405163c14cb6f560e01b815260040160405180910390fd5b6001600160a01b038116620001e9576040516313cfdee160e31b815260040160405180910390fd5b6040516301ffc9a760e01b8152638e773e1360e01b60048201526001600160a01b038216906301ffc9a790602401602060405180830381865afa15801562000235573d6000803e3d6000fd5b505050506040513d601f19601f820116820180604052508101906200025b9190620003e9565b6200028557604051631b794b6760e31b81526001600160a01b0382166004820152602401620000e7565b60018381018390556002840180546001600160a01b0319166001600160a01b038416179055620002ca9063fb42d24360e01b90620002c2620002cf565b9190620002ff565b505050565b6000806200019960017fca9d3e17f264b0f3984e2634e94adb37fa3e6a8103f06aeae6fa59e21c769f5e62000414565b600160e01b6001600160e01b03198316016200032e576040516372c683bb60e01b815260040160405180910390fd5b6001600160e01b03199190911660009081526020929092526040909120805460ff1916911515919091179055565b6001600160a01b03811681146200037257600080fd5b50565b600080600080600060a086880312156200038e57600080fd5b85516200039b816200035c565b6020870151909550620003ae816200035c565b6040870151909450620003c1816200035c565b606087015160808801519194509250620003db816200035c565b809150509295509295909350565b600060208284031215620003fc57600080fd5b815180151581146200040d57600080fd5b9392505050565b818103818111156200019957634e487b7160e01b600052601160045260246000fd5b610a4c80620004466000396000f3fe608060405234801561001057600080fd5b506004361061007c5760003560e01c80636a6278421161005b5780636a627842146101045780637165485d1461011957806391ba317a14610139578063b3f006741461014157600080fd5b80629a9b7b1461008157806301ffc9a71461009c578063647846a5146100bf575b600080fd5b610089610161565b6040519081526020015b60405180910390f35b6100af6100aa366004610876565b610177565b6040519015158152602001610093565b6001546100df9073ffffffffffffffffffffffffffffffffffffffff1681565b60405173ffffffffffffffffffffffffffffffffffffffff9091168152602001610093565b6101176101123660046108bf565b610191565b005b6000546100df9073ffffffffffffffffffffffffffffffffffffffff1681565b610089610271565b6002546100df9073ffffffffffffffffffffffffffffffffffffffff1681565b600061017261016e610285565b5490565b905090565b600061018b826101856102b3565b906102e1565b92915050565b6000805473ffffffffffffffffffffffffffffffffffffffff1663a6413a276101b8610161565b6040517fffffffff0000000000000000000000000000000000000000000000000000000060e084901b168152600481019190915260016024820152604401602060405180830381865afa158015610213573d6000803e3d6000fd5b505050506040513d601f19601f8201168201806040525081019061023791906108f5565b90506102643360025460015473ffffffffffffffffffffffffffffffffffffffff908116929116846103bb565b61026d82610456565b5050565b600061017261027e610285565b6001015490565b60008061018b60017f693bcdae20ebbf8c20ad73778252483eb64f50287e6e826c8678109643b4917661093d565b60008061018b60017fca9d3e17f264b0f3984e2634e94adb37fa3e6a8103f06aeae6fa59e21c769f5e61093d565b60007c01000000000000000000000000000000000000000000000000000000007fffffffff000000000000000000000000000000000000000000000000000000008316016103315750600061018b565b7ffe003659000000000000000000000000000000000000000000000000000000007fffffffff000000000000000000000000000000000000000000000000000000008316016103825750600161018b565b507fffffffff00000000000000000000000000000000000000000000000000000000166000908152602091909152604090205460ff1690565b6040805173ffffffffffffffffffffffffffffffffffffffff85811660248301528416604482015260648082018490528251808303909101815260849091019091526020810180517bffffffffffffffffffffffffffffffffffffffffffffffffffffffff167f23b872dd0000000000000000000000000000000000000000000000000000000017905261045090859061046b565b50505050565b61046881610462610285565b90610584565b50565b60006104cd826040518060400160405280602081526020017f5361666545524332303a206c6f772d6c6576656c2063616c6c206661696c65648152508573ffffffffffffffffffffffffffffffffffffffff166106679092919063ffffffff16565b90508051600014806104ee5750808060200190518101906104ee9190610950565b61057f576040517f08c379a000000000000000000000000000000000000000000000000000000000815260206004820152602a60248201527f5361666545524332303a204552433230206f7065726174696f6e20646964206e60448201527f6f7420737563636565640000000000000000000000000000000000000000000060648201526084015b60405180910390fd5b505050565b8154600090610594906001610972565b905082600101548111156105d4576040517f4594a70000000000000000000000000000000000000000000000000000000000815260040160405180910390fd5b60028301546040517f40c10f1900000000000000000000000000000000000000000000000000000000815273ffffffffffffffffffffffffffffffffffffffff848116600483015260248201849052909116906340c10f1990604401600060405180830381600087803b15801561064a57600080fd5b505af115801561065e573d6000803e3d6000fd5b50505092555050565b6060610676848460008561067e565b949350505050565b606082471015610710576040517f08c379a000000000000000000000000000000000000000000000000000000000815260206004820152602660248201527f416464726573733a20696e73756666696369656e742062616c616e636520666f60448201527f722063616c6c00000000000000000000000000000000000000000000000000006064820152608401610576565b6000808673ffffffffffffffffffffffffffffffffffffffff16858760405161073991906109a9565b60006040518083038185875af1925050503d8060008114610776576040519150601f19603f3d011682016040523d82523d6000602084013e61077b565b606091505b509150915061078c87838387610797565b979650505050505050565b6060831561082d5782516000036108265773ffffffffffffffffffffffffffffffffffffffff85163b610826576040517f08c379a000000000000000000000000000000000000000000000000000000000815260206004820152601d60248201527f416464726573733a2063616c6c20746f206e6f6e2d636f6e74726163740000006044820152606401610576565b5081610676565b61067683838151156108425781518083602001fd5b806040517f08c379a000000000000000000000000000000000000000000000000000000000815260040161057691906109c5565b60006020828403121561088857600080fd5b81357fffffffff00000000000000000000000000000000000000000000000000000000811681146108b857600080fd5b9392505050565b6000602082840312156108d157600080fd5b813573ffffffffffffffffffffffffffffffffffffffff811681146108b857600080fd5b60006020828403121561090757600080fd5b5051919050565b7f4e487b7100000000000000000000000000000000000000000000000000000000600052601160045260246000fd5b8181038181111561018b5761018b61090e565b60006020828403121561096257600080fd5b815180151581146108b857600080fd5b8082018082111561018b5761018b61090e565b60005b838110156109a0578181015183820152602001610988565b50506000910152565b600082516109bb818460208701610985565b9190910192915050565b60208152600082518060208401526109e4816040850160208701610985565b601f017fffffffffffffffffffffffffffffffffffffffffffffffffffffffffffffffe016919091016040019291505056fea264697066735822122083c8140fa034202e08a0b37ad4bb713be5fc4d1ff433cfee0d47b6dd9495ff7964736f6c63430008180033",
  "linkReferences": {},
  "deployedLinkReferences": {}
}