{"contracts/lib/minter/ERC721/facets/ERC721MinterFacet.sol":{"ERC721MinterFacet":{"abi":[{"inputs":[{"internalType":"contract IForwarderRegistry","name":"forwarderRegistry","type":"address"}],"stateMutability":"nonpayable","type":"constructor"},{"inputs":[],"name":"ERC721MinterMaxTokenIdExceeded","type":"error"},{"inputs":[{"internalType":"address","name":"tokenContract","type":"address"}],"name":"ERC721MinterUnsupportedContractType","type":"error"},{"inputs":[],"name":"ERC721MinterZeroMaxTokenId","type":"error"},{"inputs":[],"name":"ERC721MinterZeroTokenAddress","type":"error"},{"inputs":[],"name":"IllegalInterfaceId","type":"error"},{"inputs":[{"internalType":"uint256","name":"currentPhase","type":"uint256"},{"internalType":"uint256","name":"newPhase","type":"uint256"}],"name":"InitializationPhaseAlreadyReached","type":"error"},{"inputs":[{"internalType":"address","name":"account","type":"address"}],"name":"NotProxyAdmin","type":"error"},{"inputs":[],"name":"currentTokenId","outputs":[{"internalType":"uint256","name":"tokenId","type":"uint256"}],"stateMutability":"view","type":"function"},{"inputs":[{"internalType":"uint256","name":"maxTokenId","type":"uint256"},{"internalType":"contract IERC721Mintable","name":"token","type":"address"}],"name":"initERC721MinterStorage","outputs":[],"stateMutability":"nonpayable","type":"function"},{"inputs":[],"name":"maxTokenId","outputs":[{"internalType":"uint256","name":"tokenId","type":"uint256"}],"stateMutability":"view","type":"function"},{"inputs":[{"internalType":"address","name":"to","type":"address"}],"name":"mint","outputs":[],"stateMutability":"nonpayable","type":"function"}],"devdoc":{"details":"This contract is to be used as a diamond facet (see ERC2535 Diamond Standard https://eips.ethereum.org/EIPS/eip-2535).Note: This facet depends on {ProxyAdminFacet} and {InterfaceDetectionFacet}.","errors":{"InitializationPhaseAlreadyReached(uint256,uint256)":[{"params":{"currentPhase":"The current phase.","newPhase":"The new phase trying to be set."}}],"NotProxyAdmin(address)":[{"params":{"account":"The account that was checked."}}]},"kind":"dev","methods":{"currentTokenId()":{"returns":{"tokenId":"The current token ID."}},"initERC721MinterStorage(uint256,address)":{"details":"Reverts with {NotProxyAdmin} if the sender is not the proxy admin.Reverts with {InitializationPhaseAlreadyReached} if the proxy initialization phase is set to `1` or above.Reverts with {ERC721MinterZeroMaxTokenId} if the `maxTokenId` is zero.Reverts with {ERC721MinterZeroTokenAddress} if the `token` is the zero address.Reverts with {ERC721MinterUnsupportedContractType} if the `token` does not support the IERC721Mintable interface.","params":{"maxTokenId":"The maximum token ID that can be minted.","token":"The ERC721 token contract."}},"maxTokenId()":{"returns":{"tokenId":"The maximum token ID."}},"mint(address)":{"params":{"to":"The address to receive the token."}}},"title":"ERC721 Minter (facet version).","version":1},"evm":{"bytecode":{"linkReferences":{},"object":"60a060405234801561001057600080fd5b5060405161095838038061095883398101604081905261002f91610040565b6001600160a01b0316608052610070565b60006020828403121561005257600080fd5b81516001600160a01b038116811461006957600080fd5b9392505050565b6080516108c661009260003960008181610181015261020901526108c66000f3fe608060405234801561001057600080fd5b506004361061004b5760003560e01c80629a9b7b1461005057806352fca9c01461006a5780636a6278421461007f57806391ba317a14610092575b600080fd5b61005861009a565b60405190815260200160405180910390f35b61007d6100783660046107c5565b6100b0565b005b61007d61008d3660046107f5565b6100e1565b6100586100f6565b60006100ab6100a761010a565b5490565b905090565b6100c96100bb61013e565b6100c3610285565b906102b3565b6100dd82826100d661010a565b9190610323565b5050565b6100f3816100ed61010a565b90610368565b50565b60006100ab61010361010a565b6001015490565b60008061013860017f693bcdae20ebbf8c20ad73778252483eb64f50287e6e826c8678109643b49176610848565b92915050565b60003332148061014e5750601836105b1561015857503390565b7fffffffffffffffffffffffffffffffffffffffffffffffffffffffffffffffec36013560601c7f000000000000000000000000000000000000000000000000000000000000000073ffffffffffffffffffffffffffffffffffffffff1633148061027457506040517f8929a8ca00000000000000000000000000000000000000000000000000000000815273ffffffffffffffffffffffffffffffffffffffff82811660048301523360248301527f00000000000000000000000000000000000000000000000000000000000000001690638929a8ca90604401602060405180830381865afa158015610250573d6000803e3d6000fd5b505050506040513d601f19601f82011682018060405250810190610274919061085b565b1561027e57919050565b3391505090565b60008061013860017fb53127684a568b3173ae13b9f8a6016e243e63b6e8ee1178d6a717850b5d6104610848565b815473ffffffffffffffffffffffffffffffffffffffff8281169116146100dd576040517f673a31a100000000000000000000000000000000000000000000000000000000815273ffffffffffffffffffffffffffffffffffffffff821660048201526024015b60405180910390fd5b61035861035160017f45d439c902da5ba33f98e10a3a9e80a454ed74a1b14c49a6e476fcd1db4ddd6c610848565b600161044b565b610363838383610497565b505050565b815460009061037890600161087d565b905082600101548111156103b8576040517f4594a70000000000000000000000000000000000000000000000000000000000815260040160405180910390fd5b60028301546040517f40c10f1900000000000000000000000000000000000000000000000000000000815273ffffffffffffffffffffffffffffffffffffffff848116600483015260248201849052909116906340c10f1990604401600060405180830381600087803b15801561042e57600080fd5b505af1158015610442573d6000803e3d6000fd5b50505092555050565b81548290828110610492576040517fbf0c18ec000000000000000000000000000000000000000000000000000000008152600481018290526024810184905260440161031a565b505550565b816000036104d1576040517fc14cb6f500000000000000000000000000000000000000000000000000000000815260040160405180910390fd5b73ffffffffffffffffffffffffffffffffffffffff811661051e576040517f9e7ef70800000000000000000000000000000000000000000000000000000000815260040160405180910390fd5b6040517f01ffc9a70000000000000000000000000000000000000000000000000000000081527f8e773e1300000000000000000000000000000000000000000000000000000000600482015273ffffffffffffffffffffffffffffffffffffffff8216906301ffc9a790602401602060405180830381865afa1580156105a8573d6000803e3d6000fd5b505050506040513d601f19601f820116820180604052508101906105cc919061085b565b61061a576040517fdbca5b3800000000000000000000000000000000000000000000000000000000815273ffffffffffffffffffffffffffffffffffffffff8216600482015260240161031a565b60018381018390556002840180547fffffffffffffffffffffffff00000000000000000000000000000000000000001673ffffffffffffffffffffffffffffffffffffffff8416179055610363907ffb42d2430000000000000000000000000000000000000000000000000000000090610692610699565b91906106c7565b60008061013860017fca9d3e17f264b0f3984e2634e94adb37fa3e6a8103f06aeae6fa59e21c769f5e610848565b7c01000000000000000000000000000000000000000000000000000000007fffffffff0000000000000000000000000000000000000000000000000000000083160161073f576040517f72c683bb00000000000000000000000000000000000000000000000000000000815260040160405180910390fd5b7fffffffff00000000000000000000000000000000000000000000000000000000919091166000908152602092909252604090912080547fffffffffffffffffffffffffffffffffffffffffffffffffffffffffffffff0016911515919091179055565b73ffffffffffffffffffffffffffffffffffffffff811681146100f357600080fd5b600080604083850312156107d857600080fd5b8235915060208301356107ea816107a3565b809150509250929050565b60006020828403121561080757600080fd5b8135610812816107a3565b9392505050565b7f4e487b7100000000000000000000000000000000000000000000000000000000600052601160045260246000fd5b8181038181111561013857610138610819565b60006020828403121561086d57600080fd5b8151801515811461081257600080fd5b808201808211156101385761013861081956fea264697066735822122081b040df5d5267727deb4ee7162e337cc8875d2228acfb0e37801b91fb4cb6d564736f6c63430008180033","opcodes":"PUSH1 0xA0 PUSH1 0x40 MSTORE CALLVALUE DUP1 ISZERO PUSH2 0x10 JUMPI PUSH1 0x0 DUP1 REVERT JUMPDEST POP PUSH1 0x40 MLOAD PUSH2 0x958 CODESIZE SUB DUP1 PUSH2 0x958 DUP4 CODECOPY DUP2 ADD PUSH1 0x40 DUP2 SWAP1 MSTORE PUSH2 0x2F SWAP2 PUSH2 0x40 JUMP JUMPDEST PUSH1 0x1 PUSH1 0x1 PUSH1 0xA0 SHL SUB AND PUSH1 0x80 MSTORE PUSH2 0x70 JUMP JUMPDEST PUSH1 0x0 PUSH1 0x20 DUP3 DUP5 SUB SLT ISZERO PUSH2 0x52 JUMPI PUSH1 0x0 DUP1 REVERT JUMPDEST DUP2 MLOAD PUSH1 0x1 PUSH1 0x1 PUSH1 0xA0 SHL SUB DUP2 AND DUP2 EQ PUSH2 0x69 JUMPI PUSH1 0x0 DUP1 REVERT JUMPDEST SWAP4 SWAP3 POP POP POP JUMP JUMPDEST PUSH1 0x80 MLOAD PUSH2 0x8C6 PUSH2 0x92 PUSH1 0x0 CODECOPY PUSH1 0x0 DUP2 DUP2 PUSH2 0x181 ADD MSTORE PUSH2 0x209 ADD MSTORE PUSH2 0x8C6 PUSH1 0x0 RETURN INVALID PUSH1 0x80 PUSH1 0x40 MSTORE CALLVALUE DUP1 ISZERO PUSH2 0x10 JUMPI PUSH1 0x0 DUP1 REVERT JUMPDEST POP PUSH1 0x4 CALLDATASIZE LT PUSH2 0x4B JUMPI PUSH1 0x0 CALLDATALOAD PUSH1 0xE0 SHR DUP1 PUSH3 0x9A9B7B EQ PUSH2 0x50 JUMPI DUP1 PUSH4 0x52FCA9C0 EQ PUSH2 0x6A JUMPI DUP1 PUSH4 0x6A627842 EQ PUSH2 0x7F JUMPI DUP1 PUSH4 0x91BA317A EQ PUSH2 0x92 JUMPI JUMPDEST PUSH1 0x0 DUP1 REVERT JUMPDEST PUSH2 0x58 PUSH2 0x9A JUMP JUMPDEST PUSH1 0x40 MLOAD SWAP1 DUP2 MSTORE PUSH1 0x20 ADD PUSH1 0x40 MLOAD DUP1 SWAP2 SUB SWAP1 RETURN JUMPDEST PUSH2 0x7D PUSH2 0x78 CALLDATASIZE PUSH1 0x4 PUSH2 0x7C5 JUMP JUMPDEST PUSH2 0xB0 JUMP JUMPDEST STOP JUMPDEST PUSH2 0x7D PUSH2 0x8D CALLDATASIZE PUSH1 0x4 PUSH2 0x7F5 JUMP JUMPDEST PUSH2 0xE1 JUMP JUMPDEST PUSH2 0x58 PUSH2 0xF6 JUMP JUMPDEST PUSH1 0x0 PUSH2 0xAB PUSH2 0xA7 PUSH2 0x10A JUMP JUMPDEST SLOAD SWAP1 JUMP JUMPDEST SWAP1 POP SWAP1 JUMP JUMPDEST PUSH2 0xC9 PUSH2 0xBB PUSH2 0x13E JUMP JUMPDEST PUSH2 0xC3 PUSH2 0x285 JUMP JUMPDEST SWAP1 PUSH2 0x2B3 JUMP JUMPDEST PUSH2 0xDD DUP3 DUP3 PUSH2 0xD6 PUSH2 0x10A JUMP JUMPDEST SWAP2 SWAP1 PUSH2 0x323 JUMP JUMPDEST POP POP JUMP JUMPDEST PUSH2 0xF3 DUP2 PUSH2 0xED PUSH2 0x10A JUMP JUMPDEST SWAP1 PUSH2 0x368 JUMP JUMPDEST POP JUMP JUMPDEST PUSH1 0x0 PUSH2 0xAB PUSH2 0x103 PUSH2 0x10A JUMP JUMPDEST PUSH1 0x1 ADD SLOAD SWAP1 JUMP JUMPDEST PUSH1 0x0 DUP1 PUSH2 0x138 PUSH1 0x1 PUSH32 0x693BCDAE20EBBF8C20AD73778252483EB64F50287E6E826C8678109643B49176 PUSH2 0x848 JUMP JUMPDEST SWAP3 SWAP2 POP POP JUMP JUMPDEST PUSH1 0x0 CALLER ORIGIN EQ DUP1 PUSH2 0x14E JUMPI POP PUSH1 0x18 CALLDATASIZE LT JUMPDEST ISZERO PUSH2 0x158 JUMPI POP CALLER SWAP1 JUMP JUMPDEST PUSH32 0xFFFFFFFFFFFFFFFFFFFFFFFFFFFFFFFFFFFFFFFFFFFFFFFFFFFFFFFFFFFFFFEC CALLDATASIZE ADD CALLDATALOAD PUSH1 0x60 SHR PUSH32 0x0 PUSH20 0xFFFFFFFFFFFFFFFFFFFFFFFFFFFFFFFFFFFFFFFF AND CALLER EQ DUP1 PUSH2 0x274 JUMPI POP PUSH1 0x40 MLOAD PUSH32 0x8929A8CA00000000000000000000000000000000000000000000000000000000 DUP2 MSTORE PUSH20 0xFFFFFFFFFFFFFFFFFFFFFFFFFFFFFFFFFFFFFFFF DUP3 DUP2 AND PUSH1 0x4 DUP4 ADD MSTORE CALLER PUSH1 0x24 DUP4 ADD MSTORE PUSH32 0x0 AND SWAP1 PUSH4 0x8929A8CA SWAP1 PUSH1 0x44 ADD PUSH1 0x20 PUSH1 0x40 MLOAD DUP1 DUP4 SUB DUP2 DUP7 GAS STATICCALL ISZERO DUP1 ISZERO PUSH2 0x250 JUMPI RETURNDATASIZE PUSH1 0x0 DUP1 RETURNDATACOPY RETURNDATASIZE PUSH1 0x0 REVERT JUMPDEST POP POP POP POP PUSH1 0x40 MLOAD RETURNDATASIZE PUSH1 0x1F NOT PUSH1 0x1F DUP3 ADD AND DUP3 ADD DUP1 PUSH1 0x40 MSTORE POP DUP2 ADD SWAP1 PUSH2 0x274 SWAP2 SWAP1 PUSH2 0x85B JUMP JUMPDEST ISZERO PUSH2 0x27E JUMPI SWAP2 SWAP1 POP JUMP JUMPDEST CALLER SWAP2 POP POP SWAP1 JUMP JUMPDEST PUSH1 0x0 DUP1 PUSH2 0x138 PUSH1 0x1 PUSH32 0xB53127684A568B3173AE13B9F8A6016E243E63B6E8EE1178D6A717850B5D6104 PUSH2 0x848 JUMP JUMPDEST DUP2 SLOAD PUSH20 0xFFFFFFFFFFFFFFFFFFFFFFFFFFFFFFFFFFFFFFFF DUP3 DUP2 AND SWAP2 AND EQ PUSH2 0xDD JUMPI PUSH1 0x40 MLOAD PUSH32 0x673A31A100000000000000000000000000000000000000000000000000000000 DUP2 MSTORE PUSH20 0xFFFFFFFFFFFFFFFFFFFFFFFFFFFFFFFFFFFFFFFF DUP3 AND PUSH1 0x4 DUP3 ADD MSTORE PUSH1 0x24 ADD JUMPDEST PUSH1 0x40 MLOAD DUP1 SWAP2 SUB SWAP1 REVERT JUMPDEST PUSH2 0x358 PUSH2 0x351 PUSH1 0x1 PUSH32 0x45D439C902DA5BA33F98E10A3A9E80A454ED74A1B14C49A6E476FCD1DB4DDD6C PUSH2 0x848 JUMP JUMPDEST PUSH1 0x1 PUSH2 0x44B JUMP JUMPDEST PUSH2 0x363 DUP4 DUP4 DUP4 PUSH2 0x497 JUMP JUMPDEST POP POP POP JUMP JUMPDEST DUP2 SLOAD PUSH1 0x0 SWAP1 PUSH2 0x378 SWAP1 PUSH1 0x1 PUSH2 0x87D JUMP JUMPDEST SWAP1 POP DUP3 PUSH1 0x1 ADD SLOAD DUP2 GT ISZERO PUSH2 0x3B8 JUMPI PUSH1 0x40 MLOAD PUSH32 0x4594A70000000000000000000000000000000000000000000000000000000000 DUP2 MSTORE PUSH1 0x4 ADD PUSH1 0x40 MLOAD DUP1 SWAP2 SUB SWAP1 REVERT JUMPDEST PUSH1 0x2 DUP4 ADD SLOAD PUSH1 0x40 MLOAD PUSH32 0x40C10F1900000000000000000000000000000000000000000000000000000000 DUP2 MSTORE PUSH20 0xFFFFFFFFFFFFFFFFFFFFFFFFFFFFFFFFFFFFFFFF DUP5 DUP2 AND PUSH1 0x4 DUP4 ADD MSTORE PUSH1 0x24 DUP3 ADD DUP5 SWAP1 MSTORE SWAP1 SWAP2 AND SWAP1 PUSH4 0x40C10F19 SWAP1 PUSH1 0x44 ADD PUSH1 0x0 PUSH1 0x40 MLOAD DUP1 DUP4 SUB DUP2 PUSH1 0x0 DUP8 DUP1 EXTCODESIZE ISZERO DUP1 ISZERO PUSH2 0x42E JUMPI PUSH1 0x0 DUP1 REVERT JUMPDEST POP GAS CALL ISZERO DUP1 ISZERO PUSH2 0x442 JUMPI RETURNDATASIZE PUSH1 0x0 DUP1 RETURNDATACOPY RETURNDATASIZE PUSH1 0x0 REVERT JUMPDEST POP POP POP SWAP3 SSTORE POP POP JUMP JUMPDEST DUP2 SLOAD DUP3 SWAP1 DUP3 DUP2 LT PUSH2 0x492 JUMPI PUSH1 0x40 MLOAD PUSH32 0xBF0C18EC00000000000000000000000000000000000000000000000000000000 DUP2 MSTORE PUSH1 0x4 DUP2 ADD DUP3 SWAP1 MSTORE PUSH1 0x24 DUP2 ADD DUP5 SWAP1 MSTORE PUSH1 0x44 ADD PUSH2 0x31A JUMP JUMPDEST POP SSTORE POP JUMP JUMPDEST DUP2 PUSH1 0x0 SUB PUSH2 0x4D1 JUMPI PUSH1 0x40 MLOAD PUSH32 0xC14CB6F500000000000000000000000000000000000000000000000000000000 DUP2 MSTORE PUSH1 0x4 ADD PUSH1 0x40 MLOAD DUP1 SWAP2 SUB SWAP1 REVERT JUMPDEST PUSH20 0xFFFFFFFFFFFFFFFFFFFFFFFFFFFFFFFFFFFFFFFF DUP2 AND PUSH2 0x51E JUMPI PUSH1 0x40 MLOAD PUSH32 0x9E7EF70800000000000000000000000000000000000000000000000000000000 DUP2 MSTORE PUSH1 0x4 ADD PUSH1 0x40 MLOAD DUP1 SWAP2 SUB SWAP1 REVERT JUMPDEST PUSH1 0x40 MLOAD PUSH32 0x1FFC9A700000000000000000000000000000000000000000000000000000000 DUP2 MSTORE PUSH32 0x8E773E1300000000000000000000000000000000000000000000000000000000 PUSH1 0x4 DUP3 ADD MSTORE PUSH20 0xFFFFFFFFFFFFFFFFFFFFFFFFFFFFFFFFFFFFFFFF DUP3 AND SWAP1 PUSH4 0x1FFC9A7 SWAP1 PUSH1 0x24 ADD PUSH1 0x20 PUSH1 0x40 MLOAD DUP1 DUP4 SUB DUP2 DUP7 GAS STATICCALL ISZERO DUP1 ISZERO PUSH2 0x5A8 JUMPI RETURNDATASIZE PUSH1 0x0 DUP1 RETURNDATACOPY RETURNDATASIZE PUSH1 0x0 REVERT JUMPDEST POP POP POP POP PUSH1 0x40 MLOAD RETURNDATASIZE PUSH1 0x1F NOT PUSH1 0x1F DUP3 ADD AND DUP3 ADD DUP1 PUSH1 0x40 MSTORE POP DUP2 ADD SWAP1 PUSH2 0x5CC SWAP2 SWAP1 PUSH2 0x85B JUMP JUMPDEST PUSH2 0x61A JUMPI PUSH1 0x40 MLOAD PUSH32 0xDBCA5B3800000000000000000000000000000000000000000000000000000000 DUP2 MSTORE PUSH20 0xFFFFFFFFFFFFFFFFFFFFFFFFFFFFFFFFFFFFFFFF DUP3 AND PUSH1 0x4 DUP3 ADD MSTORE PUSH1 0x24 ADD PUSH2 0x31A JUMP JUMPDEST PUSH1 0x1 DUP4 DUP2 ADD DUP4 SWAP1 SSTORE PUSH1 0x2 DUP5 ADD DUP1 SLOAD PUSH32 0xFFFFFFFFFFFFFFFFFFFFFFFF0000000000000000000000000000000000000000 AND PUSH20 0xFFFFFFFFFFFFFFFFFFFFFFFFFFFFFFFFFFFFFFFF DUP5 AND OR SWAP1 SSTORE PUSH2 0x363 SWAP1 PUSH32 0xFB42D24300000000000000000000000000000000000000000000000000000000 SWAP1 PUSH2 0x692 PUSH2 0x699 JUMP JUMPDEST SWAP2 SWAP1 PUSH2 0x6C7 JUMP JUMPDEST PUSH1 0x0 DUP1 PUSH2 0x138 PUSH1 0x1 PUSH32 0xCA9D3E17F264B0F3984E2634E94ADB37FA3E6A8103F06AEAE6FA59E21C769F5E PUSH2 0x848 JUMP JUMPDEST PUSH29 0x100000000000000000000000000000000000000000000000000000000 PUSH32 0xFFFFFFFF00000000000000000000000000000000000000000000000000000000 DUP4 AND ADD PUSH2 0x73F JUMPI PUSH1 0x40 MLOAD PUSH32 0x72C683BB00000000000000000000000000000000000000000000000000000000 DUP2 MSTORE PUSH1 0x4 ADD PUSH1 0x40 MLOAD DUP1 SWAP2 SUB SWAP1 REVERT JUMPDEST PUSH32 0xFFFFFFFF00000000000000000000000000000000000000000000000000000000 SWAP2 SWAP1 SWAP2 AND PUSH1 0x0 SWAP1 DUP2 MSTORE PUSH1 0x20 SWAP3 SWAP1 SWAP3 MSTORE PUSH1 0x40 SWAP1 SWAP2 KECCAK256 DUP1 SLOAD PUSH32 0xFFFFFFFFFFFFFFFFFFFFFFFFFFFFFFFFFFFFFFFFFFFFFFFFFFFFFFFFFFFFFF00 AND SWAP2 ISZERO ISZERO SWAP2 SWAP1 SWAP2 OR SWAP1 SSTORE JUMP JUMPDEST PUSH20 0xFFFFFFFFFFFFFFFFFFFFFFFFFFFFFFFFFFFFFFFF DUP2 AND DUP2 EQ PUSH2 0xF3 JUMPI PUSH1 0x0 DUP1 REVERT JUMPDEST PUSH1 0x0 DUP1 PUSH1 0x40 DUP4 DUP6 SUB SLT ISZERO PUSH2 0x7D8 JUMPI PUSH1 0x0 DUP1 REVERT JUMPDEST DUP3 CALLDATALOAD SWAP2 POP PUSH1 0x20 DUP4 ADD CALLDATALOAD PUSH2 0x7EA DUP2 PUSH2 0x7A3 JUMP JUMPDEST DUP1 SWAP2 POP POP SWAP3 POP SWAP3 SWAP1 POP JUMP JUMPDEST PUSH1 0x0 PUSH1 0x20 DUP3 DUP5 SUB SLT ISZERO PUSH2 0x807 JUMPI PUSH1 0x0 DUP1 REVERT JUMPDEST DUP2 CALLDATALOAD PUSH2 0x812 DUP2 PUSH2 0x7A3 JUMP JUMPDEST SWAP4 SWAP3 POP POP POP JUMP JUMPDEST PUSH32 0x4E487B7100000000000000000000000000000000000000000000000000000000 PUSH1 0x0 MSTORE PUSH1 0x11 PUSH1 0x4 MSTORE PUSH1 0x24 PUSH1 0x0 REVERT JUMPDEST DUP2 DUP2 SUB DUP2 DUP2 GT ISZERO PUSH2 0x138 JUMPI PUSH2 0x138 PUSH2 0x819 JUMP JUMPDEST PUSH1 0x0 PUSH1 0x20 DUP3 DUP5 SUB SLT ISZERO PUSH2 0x86D JUMPI PUSH1 0x0 DUP1 REVERT JUMPDEST DUP2 MLOAD DUP1 ISZERO ISZERO DUP2 EQ PUSH2 0x812 JUMPI PUSH1 0x0 DUP1 REVERT JUMPDEST DUP1 DUP3 ADD DUP1 DUP3 GT ISZERO PUSH2 0x138 JUMPI PUSH2 0x138 PUSH2 0x819 JUMP INVALID LOG2 PUSH5 0x6970667358 0x22 SLT KECCAK256 DUP2 0xB0 BLOCKHASH 0xDF TSTORE MSTORE PUSH8 0x727DEB4EE7162E33 PUSH29 0xC8875D2228ACFB0E37801B91FB4CB6D564736F6C634300081800330000 "},"gasEstimates":{"creation":{"codeDepositCost":"449200","executionCost":"infinite","totalCost":"infinite"},"external":{"currentTokenId()":"infinite","initERC721MinterStorage(uint256,address)":"infinite","maxTokenId()":"infinite","mint(address)":"infinite"}},"methodIdentifiers":{"currentTokenId()":"009a9b7b","initERC721MinterStorage(uint256,address)":"52fca9c0","maxTokenId()":"91ba317a","mint(address)":"6a627842"}},"storageLayout":{"storage":[],"types":null},"userdoc":{"errors":{"ERC721MinterMaxTokenIdExceeded()":[{"notice":"Thrown when the maximum token ID is exceeded."}],"ERC721MinterUnsupportedContractType(address)":[{"notice":"Thrown when the token contract interface id does not supported."}],"ERC721MinterZeroMaxTokenId()":[{"notice":"Thrown when the token ID is zero."}],"ERC721MinterZeroTokenAddress()":[{"notice":"Thrown when the token address is zero."}],"IllegalInterfaceId()":[{"notice":"Thrown when setting the illegal interfaceId 0xffffffff."}],"InitializationPhaseAlreadyReached(uint256,uint256)":[{"notice":"Emitted when trying to set a phase value that has already been reached."}],"NotProxyAdmin(address)":[{"notice":"Thrown when an account is not the proxy admin but is required to."}]},"kind":"user","methods":{"currentTokenId()":{"notice":"Returns the current token ID."},"initERC721MinterStorage(uint256,address)":{"notice":"Initializes the storage with the maximum token ID and the ERC721 token contract.Sets the proxy initialization phase to `1`.Marks the following ERC165 interfaces as supported: ERC721Minter."},"maxTokenId()":{"notice":"Returns the maximum token ID."},"mint(address)":{"notice":"Mints a token to the specified address."}},"version":1}}}}