{"contracts/BondingCurve.sol":{"BondingCurve":{"abi":[{"inputs":[{"internalType":"uint256","name":"price","type":"uint256"},{"internalType":"uint256","name":"numerator","type":"uint256"},{"internalType":"uint256","name":"denominator","type":"uint256"}],"stateMutability":"nonpayable","type":"constructor"},{"inputs":[],"name":"IllegalInterfaceId","type":"error"},{"inputs":[],"name":"LinearCurveZeroDenominator","type":"error"},{"inputs":[],"name":"LinearCurveZeroNumerator","type":"error"},{"inputs":[{"internalType":"address","name":"account","type":"address"}],"name":"NotContractOwner","type":"error"},{"anonymous":false,"inputs":[{"indexed":true,"internalType":"uint256","name":"price","type":"uint256"},{"indexed":true,"internalType":"address","name":"operator","type":"address"}],"name":"InitialPriceSet","type":"event"},{"anonymous":false,"inputs":[{"indexed":true,"internalType":"address","name":"previousOwner","type":"address"},{"indexed":true,"internalType":"address","name":"newOwner","type":"address"}],"name":"OwnershipTransferred","type":"event"},{"anonymous":false,"inputs":[{"indexed":true,"internalType":"uint256","name":"denominator","type":"uint256"},{"indexed":true,"internalType":"address","name":"operator","type":"address"}],"name":"SlopeDenominatorSet","type":"event"},{"anonymous":false,"inputs":[{"indexed":true,"internalType":"uint256","name":"numerator","type":"uint256"},{"indexed":true,"internalType":"address","name":"operator","type":"address"}],"name":"SlopeNumeratorSet","type":"event"},{"inputs":[{"internalType":"uint256","name":"totalSupply","type":"uint256"},{"internalType":"uint256","name":"amount","type":"uint256"}],"name":"calculatePrice","outputs":[{"internalType":"uint256","name":"price","type":"uint256"}],"stateMutability":"view","type":"function"},{"inputs":[],"name":"initialPrice","outputs":[{"internalType":"uint256","name":"price","type":"uint256"}],"stateMutability":"view","type":"function"},{"inputs":[],"name":"owner","outputs":[{"internalType":"address","name":"","type":"address"}],"stateMutability":"view","type":"function"},{"inputs":[{"internalType":"uint256","name":"price","type":"uint256"}],"name":"setInitialPrice","outputs":[],"stateMutability":"nonpayable","type":"function"},{"inputs":[{"internalType":"uint256","name":"denominator","type":"uint256"}],"name":"setSlopeDenominator","outputs":[],"stateMutability":"nonpayable","type":"function"},{"inputs":[{"internalType":"uint256","name":"numerator","type":"uint256"}],"name":"setSlopeNumerator","outputs":[],"stateMutability":"nonpayable","type":"function"},{"inputs":[],"name":"slopeDenominator","outputs":[{"internalType":"uint256","name":"denominator","type":"uint256"}],"stateMutability":"view","type":"function"},{"inputs":[],"name":"slopeNumerator","outputs":[{"internalType":"uint256","name":"numerator","type":"uint256"}],"stateMutability":"view","type":"function"},{"inputs":[{"internalType":"bytes4","name":"interfaceId","type":"bytes4"}],"name":"supportsInterface","outputs":[{"internalType":"bool","name":"","type":"bool"}],"stateMutability":"view","type":"function"},{"inputs":[{"internalType":"address","name":"newOwner","type":"address"}],"name":"transferOwnership","outputs":[],"stateMutability":"nonpayable","type":"function"}],"devdoc":{"errors":{"NotContractOwner(address)":[{"params":{"account":"The account that was checked."}}]},"events":{"InitialPriceSet(uint256,address)":{"params":{"operator":"The address setting the initial price.","price":"The initial price."}},"OwnershipTransferred(address,address)":{"params":{"newOwner":"the new contract owner.","previousOwner":"the previous contract owner."}},"SlopeDenominatorSet(uint256,address)":{"params":{"denominator":"The slope denominator.","operator":"The address setting the slope denominator."}},"SlopeNumeratorSet(uint256,address)":{"params":{"numerator":"The slope numerator.","operator":"The address setting the slope numerator."}}},"kind":"dev","methods":{"calculatePrice(uint256,uint256)":{"details":"The price is calculated based on bonding curve mathematical function.","params":{"amount":"The amount of tokens to mint.","totalSupply":"The total supply of the tokens."}},"initialPrice()":{"returns":{"price":"The initial price."}},"owner()":{"returns":{"_0":"The address of the contract owner."}},"setInitialPrice(uint256)":{"details":"Emits a {InitialPriceSet} event.","params":{"price":"The initial price."}},"setSlopeDenominator(uint256)":{"details":"Reverts if `denominator` is zero.Emits a {SlopeDenominatorSet} event.","params":{"denominator":"The slope denominator."}},"setSlopeNumerator(uint256)":{"details":"Reverts if `numerator` is zero.Emits a {SlopeNumeratorSet} event.","params":{"numerator":"The slope numerator."}},"slopeDenominator()":{"returns":{"denominator":"The slope denominator."}},"slopeNumerator()":{"returns":{"numerator":"The slope numerator."}},"supportsInterface(bytes4)":{"details":"Note: This function call must use less than 30 000 gas.","params":{"interfaceId":"the interface identifier to test."},"returns":{"_0":"True if the interface is supported, false if `interfaceId` is `0xffffffff` or if the interface is not supported."}},"transferOwnership(address)":{"details":"Reverts if the sender is not the contract owner.Emits an {OwnershipTransferred} event if `newOwner` is different from the current contract owner.","params":{"newOwner":"The address of the new contract owner. Using the zero address means renouncing ownership."}}},"version":1},"evm":{"bytecode":{"linkReferences":{},"object":"60806040523480156200001157600080fd5b5060405162000c9038038062000c9083398101604081905262000034916200034b565b33838383836200004f816200004862000079565b90620000af565b506200006c83838333620000626200012a565b939291906200015a565b505050505050506200039c565b600080620000a960017fc9ed16f33ab3a66c84bfd83099ccb2a8845871e2e1c1928f63797152f0fd54cd6200037a565b92915050565b6001600160a01b03811615620001065781546001600160a01b0319166001600160a01b03821690811783556040516000907f8be0079c531659141344cd1fd0a4f28419497f9722a3daafe3b4186f6b6457e0908290a35b620001266307f5828d60e41b60016200011e620001b8565b9190620001e8565b5050565b600080620000a960017f039d70c9b3f52605681bdc7fbd50a477b2d981df84c34b96fc10bf20b415c7386200037a565b6200016785858362000245565b6200017485848362000283565b62000181858383620002e7565b6200019963a6413a2760e01b60016200011e620001b8565b620001b1630704c2cb60e11b60016200011e620001b8565b5050505050565b600080620000a960017fca9d3e17f264b0f3984e2634e94adb37fa3e6a8103f06aeae6fa59e21c769f5e6200037a565b600160e01b6001600160e01b031983160162000217576040516372c683bb60e01b815260040160405180910390fd5b6001600160e01b03199190911660009081526020929092526040909120805460ff1916911515919091179055565b8183556040516001600160a01b0382169083907fc9743acbde4009119d240bc9a916fb878829a363cf97bf446e3b6ae6a942bf2e90600090a3505050565b81600003620002a557604051630dd2b83160e11b815260040160405180910390fd5b600183018290556040516001600160a01b0382169083907f57e9b94ca9a18b4ab6b4c06a7888ffbaf6d53a7902cea0c6084989d4b915544690600090a3505050565b816000036200030957604051633b61679f60e21b815260040160405180910390fd5b600283018290556040516001600160a01b0382169083907faf9c43ff06c74ca8197f8512b0129a3c1ab15740723f041fda4563e8332d7a0f90600090a3505050565b6000806000606084860312156200036157600080fd5b8351925060208401519150604084015190509250925092565b81810381811115620000a957634e487b7160e01b600052601160045260246000fd5b6108e480620003ac6000396000f3fe608060405234801561001057600080fd5b50600436106100be5760003560e01c80638da5cb5b11610076578063a6413a271161005b578063a6413a2714610166578063d58ee47114610179578063f2fde38b1461018c57600080fd5b80638da5cb5b146101265780639f4ba0ee1461015357600080fd5b80631de7223b116100a75780631de7223b1461010157806321800fc31461011657806365a3ea5f1461011e57600080fd5b806301ffc9a7146100c35780631d0806ae146100eb575b600080fd5b6100d66100d1366004610754565b61019f565b60405190151581526020015b60405180910390f35b6100f36101b9565b6040519081526020016100e2565b61011461010f366004610796565b6101cf565b005b6100f36101fa565b6100f361020e565b61012e610222565b60405173ffffffffffffffffffffffffffffffffffffffff90911681526020016100e2565b610114610161366004610796565b610249565b6100f36101743660046107af565b61026a565b610114610187366004610796565b610287565b61011461019a3660046107d1565b6102a8565b60006101b3826101ad6102bf565b906102ed565b92915050565b60006101ca6101c66103c7565b5490565b905090565b336101e2816101dc6103f5565b90610423565b6101f682826101ef6103c7565b9190610493565b5050565b60006101ca6102076103c7565b6001015490565b60006101ca61021b6103c7565b6002015490565b60006101ca61022f6103f5565b5473ffffffffffffffffffffffffffffffffffffffff1690565b33610256816101dc6103f5565b6101f682826102636103c7565b919061051c565b600061028083836102796103c7565b9190610567565b9392505050565b33610294816101dc6103f5565b6101f682826102a16103c7565b91906105b6565b6102bc33826102b56103f5565b919061063f565b50565b6000806101b360017fca9d3e17f264b0f3984e2634e94adb37fa3e6a8103f06aeae6fa59e21c769f5e610836565b60007c01000000000000000000000000000000000000000000000000000000007fffffffff0000000000000000000000000000000000000000000000000000000083160161033d575060006101b3565b7ffe003659000000000000000000000000000000000000000000000000000000007fffffffff0000000000000000000000000000000000000000000000000000000083160161038e575060016101b3565b507fffffffff00000000000000000000000000000000000000000000000000000000166000908152602091909152604090205460ff1690565b6000806101b360017f039d70c9b3f52605681bdc7fbd50a477b2d981df84c34b96fc10bf20b415c738610836565b6000806101b360017fc9ed16f33ab3a66c84bfd83099ccb2a8845871e2e1c1928f63797152f0fd54cd610836565b815473ffffffffffffffffffffffffffffffffffffffff8281169116146101f6576040517f2ef4875e00000000000000000000000000000000000000000000000000000000815273ffffffffffffffffffffffffffffffffffffffff821660048201526024015b60405180910390fd5b816000036104cd576040517f1ba5706200000000000000000000000000000000000000000000000000000000815260040160405180910390fd5b6001830182905560405173ffffffffffffffffffffffffffffffffffffffff82169083907f57e9b94ca9a18b4ab6b4c06a7888ffbaf6d53a7902cea0c6084989d4b915544690600090a3505050565b81835560405173ffffffffffffffffffffffffffffffffffffffff82169083907fc9743acbde4009119d240bc9a916fb878829a363cf97bf446e3b6ae6a942bf2e90600090a3505050565b60008060016105768486610849565b6105809190610836565b90508460020154856001015482610597919061085c565b6105a19190610873565b85546105ad9190610849565b95945050505050565b816000036105f0576040517fed859e7c00000000000000000000000000000000000000000000000000000000815260040160405180910390fd5b6002830182905560405173ffffffffffffffffffffffffffffffffffffffff82169083907faf9c43ff06c74ca8197f8512b0129a3c1ab15740723f041fda4563e8332d7a0f90600090a3505050565b825473ffffffffffffffffffffffffffffffffffffffff90811690831681146106ac576040517f2ef4875e00000000000000000000000000000000000000000000000000000000815273ffffffffffffffffffffffffffffffffffffffff8416600482015260240161048a565b8173ffffffffffffffffffffffffffffffffffffffff168173ffffffffffffffffffffffffffffffffffffffff161461074e5783547fffffffffffffffffffffffff00000000000000000000000000000000000000001673ffffffffffffffffffffffffffffffffffffffff8381169182178655604051908316907f8be0079c531659141344cd1fd0a4f28419497f9722a3daafe3b4186f6b6457e090600090a35b50505050565b60006020828403121561076657600080fd5b81357fffffffff000000000000000000000000000000000000000000000000000000008116811461028057600080fd5b6000602082840312156107a857600080fd5b5035919050565b600080604083850312156107c257600080fd5b50508035926020909101359150565b6000602082840312156107e357600080fd5b813573ffffffffffffffffffffffffffffffffffffffff8116811461028057600080fd5b7f4e487b7100000000000000000000000000000000000000000000000000000000600052601160045260246000fd5b818103818111156101b3576101b3610807565b808201808211156101b3576101b3610807565b80820281158282048414176101b3576101b3610807565b6000826108a9577f4e487b7100000000000000000000000000000000000000000000000000000000600052601260045260246000fd5b50049056fea2646970667358221220b8a4fda3ed3a4a85b3951fd52fcce45689e6a1d0c33c85141243ac3ccba08e0864736f6c63430008180033","opcodes":"PUSH1 0x80 PUSH1 0x40 MSTORE CALLVALUE DUP1 ISZERO PUSH3 0x11 JUMPI PUSH1 0x0 DUP1 REVERT JUMPDEST POP PUSH1 0x40 MLOAD PUSH3 0xC90 CODESIZE SUB DUP1 PUSH3 0xC90 DUP4 CODECOPY DUP2 ADD PUSH1 0x40 DUP2 SWAP1 MSTORE PUSH3 0x34 SWAP2 PUSH3 0x34B JUMP JUMPDEST CALLER DUP4 DUP4 DUP4 DUP4 PUSH3 0x4F DUP2 PUSH3 0x48 PUSH3 0x79 JUMP JUMPDEST SWAP1 PUSH3 0xAF JUMP JUMPDEST POP PUSH3 0x6C DUP4 DUP4 DUP4 CALLER PUSH3 0x62 PUSH3 0x12A JUMP JUMPDEST SWAP4 SWAP3 SWAP2 SWAP1 PUSH3 0x15A JUMP JUMPDEST POP POP POP POP POP POP POP PUSH3 0x39C JUMP JUMPDEST PUSH1 0x0 DUP1 PUSH3 0xA9 PUSH1 0x1 PUSH32 0xC9ED16F33AB3A66C84BFD83099CCB2A8845871E2E1C1928F63797152F0FD54CD PUSH3 0x37A JUMP JUMPDEST SWAP3 SWAP2 POP POP JUMP JUMPDEST PUSH1 0x1 PUSH1 0x1 PUSH1 0xA0 SHL SUB DUP2 AND ISZERO PUSH3 0x106 JUMPI DUP2 SLOAD PUSH1 0x1 PUSH1 0x1 PUSH1 0xA0 SHL SUB NOT AND PUSH1 0x1 PUSH1 0x1 PUSH1 0xA0 SHL SUB DUP3 AND SWAP1 DUP2 OR DUP4 SSTORE PUSH1 0x40 MLOAD PUSH1 0x0 SWAP1 PUSH32 0x8BE0079C531659141344CD1FD0A4F28419497F9722A3DAAFE3B4186F6B6457E0 SWAP1 DUP3 SWAP1 LOG3 JUMPDEST PUSH3 0x126 PUSH4 0x7F5828D PUSH1 0xE4 SHL PUSH1 0x1 PUSH3 0x11E PUSH3 0x1B8 JUMP JUMPDEST SWAP2 SWAP1 PUSH3 0x1E8 JUMP JUMPDEST POP POP JUMP JUMPDEST PUSH1 0x0 DUP1 PUSH3 0xA9 PUSH1 0x1 PUSH32 0x39D70C9B3F52605681BDC7FBD50A477B2D981DF84C34B96FC10BF20B415C738 PUSH3 0x37A JUMP JUMPDEST PUSH3 0x167 DUP6 DUP6 DUP4 PUSH3 0x245 JUMP JUMPDEST PUSH3 0x174 DUP6 DUP5 DUP4 PUSH3 0x283 JUMP JUMPDEST PUSH3 0x181 DUP6 DUP4 DUP4 PUSH3 0x2E7 JUMP JUMPDEST PUSH3 0x199 PUSH4 0xA6413A27 PUSH1 0xE0 SHL PUSH1 0x1 PUSH3 0x11E PUSH3 0x1B8 JUMP JUMPDEST PUSH3 0x1B1 PUSH4 0x704C2CB PUSH1 0xE1 SHL PUSH1 0x1 PUSH3 0x11E PUSH3 0x1B8 JUMP JUMPDEST POP POP POP POP POP JUMP JUMPDEST PUSH1 0x0 DUP1 PUSH3 0xA9 PUSH1 0x1 PUSH32 0xCA9D3E17F264B0F3984E2634E94ADB37FA3E6A8103F06AEAE6FA59E21C769F5E PUSH3 0x37A JUMP JUMPDEST PUSH1 0x1 PUSH1 0xE0 SHL PUSH1 0x1 PUSH1 0x1 PUSH1 0xE0 SHL SUB NOT DUP4 AND ADD PUSH3 0x217 JUMPI PUSH1 0x40 MLOAD PUSH4 0x72C683BB PUSH1 0xE0 SHL DUP2 MSTORE PUSH1 0x4 ADD PUSH1 0x40 MLOAD DUP1 SWAP2 SUB SWAP1 REVERT JUMPDEST PUSH1 0x1 PUSH1 0x1 PUSH1 0xE0 SHL SUB NOT SWAP2 SWAP1 SWAP2 AND PUSH1 0x0 SWAP1 DUP2 MSTORE PUSH1 0x20 SWAP3 SWAP1 SWAP3 MSTORE PUSH1 0x40 SWAP1 SWAP2 KECCAK256 DUP1 SLOAD PUSH1 0xFF NOT AND SWAP2 ISZERO ISZERO SWAP2 SWAP1 SWAP2 OR SWAP1 SSTORE JUMP JUMPDEST DUP2 DUP4 SSTORE PUSH1 0x40 MLOAD PUSH1 0x1 PUSH1 0x1 PUSH1 0xA0 SHL SUB DUP3 AND SWAP1 DUP4 SWAP1 PUSH32 0xC9743ACBDE4009119D240BC9A916FB878829A363CF97BF446E3B6AE6A942BF2E SWAP1 PUSH1 0x0 SWAP1 LOG3 POP POP POP JUMP JUMPDEST DUP2 PUSH1 0x0 SUB PUSH3 0x2A5 JUMPI PUSH1 0x40 MLOAD PUSH4 0xDD2B831 PUSH1 0xE1 SHL DUP2 MSTORE PUSH1 0x4 ADD PUSH1 0x40 MLOAD DUP1 SWAP2 SUB SWAP1 REVERT JUMPDEST PUSH1 0x1 DUP4 ADD DUP3 SWAP1 SSTORE PUSH1 0x40 MLOAD PUSH1 0x1 PUSH1 0x1 PUSH1 0xA0 SHL SUB DUP3 AND SWAP1 DUP4 SWAP1 PUSH32 0x57E9B94CA9A18B4AB6B4C06A7888FFBAF6D53A7902CEA0C6084989D4B9155446 SWAP1 PUSH1 0x0 SWAP1 LOG3 POP POP POP JUMP JUMPDEST DUP2 PUSH1 0x0 SUB PUSH3 0x309 JUMPI PUSH1 0x40 MLOAD PUSH4 0x3B61679F PUSH1 0xE2 SHL DUP2 MSTORE PUSH1 0x4 ADD PUSH1 0x40 MLOAD DUP1 SWAP2 SUB SWAP1 REVERT JUMPDEST PUSH1 0x2 DUP4 ADD DUP3 SWAP1 SSTORE PUSH1 0x40 MLOAD PUSH1 0x1 PUSH1 0x1 PUSH1 0xA0 SHL SUB DUP3 AND SWAP1 DUP4 SWAP1 PUSH32 0xAF9C43FF06C74CA8197F8512B0129A3C1AB15740723F041FDA4563E8332D7A0F SWAP1 PUSH1 0x0 SWAP1 LOG3 POP POP POP JUMP JUMPDEST PUSH1 0x0 DUP1 PUSH1 0x0 PUSH1 0x60 DUP5 DUP7 SUB SLT ISZERO PUSH3 0x361 JUMPI PUSH1 0x0 DUP1 REVERT JUMPDEST DUP4 MLOAD SWAP3 POP PUSH1 0x20 DUP5 ADD MLOAD SWAP2 POP PUSH1 0x40 DUP5 ADD MLOAD SWAP1 POP SWAP3 POP SWAP3 POP SWAP3 JUMP JUMPDEST DUP2 DUP2 SUB DUP2 DUP2 GT ISZERO PUSH3 0xA9 JUMPI PUSH4 0x4E487B71 PUSH1 0xE0 SHL PUSH1 0x0 MSTORE PUSH1 0x11 PUSH1 0x4 MSTORE PUSH1 0x24 PUSH1 0x0 REVERT JUMPDEST PUSH2 0x8E4 DUP1 PUSH3 0x3AC PUSH1 0x0 CODECOPY PUSH1 0x0 RETURN INVALID PUSH1 0x80 PUSH1 0x40 MSTORE CALLVALUE DUP1 ISZERO PUSH2 0x10 JUMPI PUSH1 0x0 DUP1 REVERT JUMPDEST POP PUSH1 0x4 CALLDATASIZE LT PUSH2 0xBE JUMPI PUSH1 0x0 CALLDATALOAD PUSH1 0xE0 SHR DUP1 PUSH4 0x8DA5CB5B GT PUSH2 0x76 JUMPI DUP1 PUSH4 0xA6413A27 GT PUSH2 0x5B JUMPI DUP1 PUSH4 0xA6413A27 EQ PUSH2 0x166 JUMPI DUP1 PUSH4 0xD58EE471 EQ PUSH2 0x179 JUMPI DUP1 PUSH4 0xF2FDE38B EQ PUSH2 0x18C JUMPI PUSH1 0x0 DUP1 REVERT JUMPDEST DUP1 PUSH4 0x8DA5CB5B EQ PUSH2 0x126 JUMPI DUP1 PUSH4 0x9F4BA0EE EQ PUSH2 0x153 JUMPI PUSH1 0x0 DUP1 REVERT JUMPDEST DUP1 PUSH4 0x1DE7223B GT PUSH2 0xA7 JUMPI DUP1 PUSH4 0x1DE7223B EQ PUSH2 0x101 JUMPI DUP1 PUSH4 0x21800FC3 EQ PUSH2 0x116 JUMPI DUP1 PUSH4 0x65A3EA5F EQ PUSH2 0x11E JUMPI PUSH1 0x0 DUP1 REVERT JUMPDEST DUP1 PUSH4 0x1FFC9A7 EQ PUSH2 0xC3 JUMPI DUP1 PUSH4 0x1D0806AE EQ PUSH2 0xEB JUMPI JUMPDEST PUSH1 0x0 DUP1 REVERT JUMPDEST PUSH2 0xD6 PUSH2 0xD1 CALLDATASIZE PUSH1 0x4 PUSH2 0x754 JUMP JUMPDEST PUSH2 0x19F JUMP JUMPDEST PUSH1 0x40 MLOAD SWAP1 ISZERO ISZERO DUP2 MSTORE PUSH1 0x20 ADD JUMPDEST PUSH1 0x40 MLOAD DUP1 SWAP2 SUB SWAP1 RETURN JUMPDEST PUSH2 0xF3 PUSH2 0x1B9 JUMP JUMPDEST PUSH1 0x40 MLOAD SWAP1 DUP2 MSTORE PUSH1 0x20 ADD PUSH2 0xE2 JUMP JUMPDEST PUSH2 0x114 PUSH2 0x10F CALLDATASIZE PUSH1 0x4 PUSH2 0x796 JUMP JUMPDEST PUSH2 0x1CF JUMP JUMPDEST STOP JUMPDEST PUSH2 0xF3 PUSH2 0x1FA JUMP JUMPDEST PUSH2 0xF3 PUSH2 0x20E JUMP JUMPDEST PUSH2 0x12E PUSH2 0x222 JUMP JUMPDEST PUSH1 0x40 MLOAD PUSH20 0xFFFFFFFFFFFFFFFFFFFFFFFFFFFFFFFFFFFFFFFF SWAP1 SWAP2 AND DUP2 MSTORE PUSH1 0x20 ADD PUSH2 0xE2 JUMP JUMPDEST PUSH2 0x114 PUSH2 0x161 CALLDATASIZE PUSH1 0x4 PUSH2 0x796 JUMP JUMPDEST PUSH2 0x249 JUMP JUMPDEST PUSH2 0xF3 PUSH2 0x174 CALLDATASIZE PUSH1 0x4 PUSH2 0x7AF JUMP JUMPDEST PUSH2 0x26A JUMP JUMPDEST PUSH2 0x114 PUSH2 0x187 CALLDATASIZE PUSH1 0x4 PUSH2 0x796 JUMP JUMPDEST PUSH2 0x287 JUMP JUMPDEST PUSH2 0x114 PUSH2 0x19A CALLDATASIZE PUSH1 0x4 PUSH2 0x7D1 JUMP JUMPDEST PUSH2 0x2A8 JUMP JUMPDEST PUSH1 0x0 PUSH2 0x1B3 DUP3 PUSH2 0x1AD PUSH2 0x2BF JUMP JUMPDEST SWAP1 PUSH2 0x2ED JUMP JUMPDEST SWAP3 SWAP2 POP POP JUMP JUMPDEST PUSH1 0x0 PUSH2 0x1CA PUSH2 0x1C6 PUSH2 0x3C7 JUMP JUMPDEST SLOAD SWAP1 JUMP JUMPDEST SWAP1 POP SWAP1 JUMP JUMPDEST CALLER PUSH2 0x1E2 DUP2 PUSH2 0x1DC PUSH2 0x3F5 JUMP JUMPDEST SWAP1 PUSH2 0x423 JUMP JUMPDEST PUSH2 0x1F6 DUP3 DUP3 PUSH2 0x1EF PUSH2 0x3C7 JUMP JUMPDEST SWAP2 SWAP1 PUSH2 0x493 JUMP JUMPDEST POP POP JUMP JUMPDEST PUSH1 0x0 PUSH2 0x1CA PUSH2 0x207 PUSH2 0x3C7 JUMP JUMPDEST PUSH1 0x1 ADD SLOAD SWAP1 JUMP JUMPDEST PUSH1 0x0 PUSH2 0x1CA PUSH2 0x21B PUSH2 0x3C7 JUMP JUMPDEST PUSH1 0x2 ADD SLOAD SWAP1 JUMP JUMPDEST PUSH1 0x0 PUSH2 0x1CA PUSH2 0x22F PUSH2 0x3F5 JUMP JUMPDEST SLOAD PUSH20 0xFFFFFFFFFFFFFFFFFFFFFFFFFFFFFFFFFFFFFFFF AND SWAP1 JUMP JUMPDEST CALLER PUSH2 0x256 DUP2 PUSH2 0x1DC PUSH2 0x3F5 JUMP JUMPDEST PUSH2 0x1F6 DUP3 DUP3 PUSH2 0x263 PUSH2 0x3C7 JUMP JUMPDEST SWAP2 SWAP1 PUSH2 0x51C JUMP JUMPDEST PUSH1 0x0 PUSH2 0x280 DUP4 DUP4 PUSH2 0x279 PUSH2 0x3C7 JUMP JUMPDEST SWAP2 SWAP1 PUSH2 0x567 JUMP JUMPDEST SWAP4 SWAP3 POP POP POP JUMP JUMPDEST CALLER PUSH2 0x294 DUP2 PUSH2 0x1DC PUSH2 0x3F5 JUMP JUMPDEST PUSH2 0x1F6 DUP3 DUP3 PUSH2 0x2A1 PUSH2 0x3C7 JUMP JUMPDEST SWAP2 SWAP1 PUSH2 0x5B6 JUMP JUMPDEST PUSH2 0x2BC CALLER DUP3 PUSH2 0x2B5 PUSH2 0x3F5 JUMP JUMPDEST SWAP2 SWAP1 PUSH2 0x63F JUMP JUMPDEST POP JUMP JUMPDEST PUSH1 0x0 DUP1 PUSH2 0x1B3 PUSH1 0x1 PUSH32 0xCA9D3E17F264B0F3984E2634E94ADB37FA3E6A8103F06AEAE6FA59E21C769F5E PUSH2 0x836 JUMP JUMPDEST PUSH1 0x0 PUSH29 0x100000000000000000000000000000000000000000000000000000000 PUSH32 0xFFFFFFFF00000000000000000000000000000000000000000000000000000000 DUP4 AND ADD PUSH2 0x33D JUMPI POP PUSH1 0x0 PUSH2 0x1B3 JUMP JUMPDEST PUSH32 0xFE00365900000000000000000000000000000000000000000000000000000000 PUSH32 0xFFFFFFFF00000000000000000000000000000000000000000000000000000000 DUP4 AND ADD PUSH2 0x38E JUMPI POP PUSH1 0x1 PUSH2 0x1B3 JUMP JUMPDEST POP PUSH32 0xFFFFFFFF00000000000000000000000000000000000000000000000000000000 AND PUSH1 0x0 SWAP1 DUP2 MSTORE PUSH1 0x20 SWAP2 SWAP1 SWAP2 MSTORE PUSH1 0x40 SWAP1 KECCAK256 SLOAD PUSH1 0xFF AND SWAP1 JUMP JUMPDEST PUSH1 0x0 DUP1 PUSH2 0x1B3 PUSH1 0x1 PUSH32 0x39D70C9B3F52605681BDC7FBD50A477B2D981DF84C34B96FC10BF20B415C738 PUSH2 0x836 JUMP JUMPDEST PUSH1 0x0 DUP1 PUSH2 0x1B3 PUSH1 0x1 PUSH32 0xC9ED16F33AB3A66C84BFD83099CCB2A8845871E2E1C1928F63797152F0FD54CD PUSH2 0x836 JUMP JUMPDEST DUP2 SLOAD PUSH20 0xFFFFFFFFFFFFFFFFFFFFFFFFFFFFFFFFFFFFFFFF DUP3 DUP2 AND SWAP2 AND EQ PUSH2 0x1F6 JUMPI PUSH1 0x40 MLOAD PUSH32 0x2EF4875E00000000000000000000000000000000000000000000000000000000 DUP2 MSTORE PUSH20 0xFFFFFFFFFFFFFFFFFFFFFFFFFFFFFFFFFFFFFFFF DUP3 AND PUSH1 0x4 DUP3 ADD MSTORE PUSH1 0x24 ADD JUMPDEST PUSH1 0x40 MLOAD DUP1 SWAP2 SUB SWAP1 REVERT JUMPDEST DUP2 PUSH1 0x0 SUB PUSH2 0x4CD JUMPI PUSH1 0x40 MLOAD PUSH32 0x1BA5706200000000000000000000000000000000000000000000000000000000 DUP2 MSTORE PUSH1 0x4 ADD PUSH1 0x40 MLOAD DUP1 SWAP2 SUB SWAP1 REVERT JUMPDEST PUSH1 0x1 DUP4 ADD DUP3 SWAP1 SSTORE PUSH1 0x40 MLOAD PUSH20 0xFFFFFFFFFFFFFFFFFFFFFFFFFFFFFFFFFFFFFFFF DUP3 AND SWAP1 DUP4 SWAP1 PUSH32 0x57E9B94CA9A18B4AB6B4C06A7888FFBAF6D53A7902CEA0C6084989D4B9155446 SWAP1 PUSH1 0x0 SWAP1 LOG3 POP POP POP JUMP JUMPDEST DUP2 DUP4 SSTORE PUSH1 0x40 MLOAD PUSH20 0xFFFFFFFFFFFFFFFFFFFFFFFFFFFFFFFFFFFFFFFF DUP3 AND SWAP1 DUP4 SWAP1 PUSH32 0xC9743ACBDE4009119D240BC9A916FB878829A363CF97BF446E3B6AE6A942BF2E SWAP1 PUSH1 0x0 SWAP1 LOG3 POP POP POP JUMP JUMPDEST PUSH1 0x0 DUP1 PUSH1 0x1 PUSH2 0x576 DUP5 DUP7 PUSH2 0x849 JUMP JUMPDEST PUSH2 0x580 SWAP2 SWAP1 PUSH2 0x836 JUMP JUMPDEST SWAP1 POP DUP5 PUSH1 0x2 ADD SLOAD DUP6 PUSH1 0x1 ADD SLOAD DUP3 PUSH2 0x597 SWAP2 SWAP1 PUSH2 0x85C JUMP JUMPDEST PUSH2 0x5A1 SWAP2 SWAP1 PUSH2 0x873 JUMP JUMPDEST DUP6 SLOAD PUSH2 0x5AD SWAP2 SWAP1 PUSH2 0x849 JUMP JUMPDEST SWAP6 SWAP5 POP POP POP POP POP JUMP JUMPDEST DUP2 PUSH1 0x0 SUB PUSH2 0x5F0 JUMPI PUSH1 0x40 MLOAD PUSH32 0xED859E7C00000000000000000000000000000000000000000000000000000000 DUP2 MSTORE PUSH1 0x4 ADD PUSH1 0x40 MLOAD DUP1 SWAP2 SUB SWAP1 REVERT JUMPDEST PUSH1 0x2 DUP4 ADD DUP3 SWAP1 SSTORE PUSH1 0x40 MLOAD PUSH20 0xFFFFFFFFFFFFFFFFFFFFFFFFFFFFFFFFFFFFFFFF DUP3 AND SWAP1 DUP4 SWAP1 PUSH32 0xAF9C43FF06C74CA8197F8512B0129A3C1AB15740723F041FDA4563E8332D7A0F SWAP1 PUSH1 0x0 SWAP1 LOG3 POP POP POP JUMP JUMPDEST DUP3 SLOAD PUSH20 0xFFFFFFFFFFFFFFFFFFFFFFFFFFFFFFFFFFFFFFFF SWAP1 DUP2 AND SWAP1 DUP4 AND DUP2 EQ PUSH2 0x6AC JUMPI PUSH1 0x40 MLOAD PUSH32 0x2EF4875E00000000000000000000000000000000000000000000000000000000 DUP2 MSTORE PUSH20 0xFFFFFFFFFFFFFFFFFFFFFFFFFFFFFFFFFFFFFFFF DUP5 AND PUSH1 0x4 DUP3 ADD MSTORE PUSH1 0x24 ADD PUSH2 0x48A JUMP JUMPDEST DUP2 PUSH20 0xFFFFFFFFFFFFFFFFFFFFFFFFFFFFFFFFFFFFFFFF AND DUP2 PUSH20 0xFFFFFFFFFFFFFFFFFFFFFFFFFFFFFFFFFFFFFFFF AND EQ PUSH2 0x74E JUMPI DUP4 SLOAD PUSH32 0xFFFFFFFFFFFFFFFFFFFFFFFF0000000000000000000000000000000000000000 AND PUSH20 0xFFFFFFFFFFFFFFFFFFFFFFFFFFFFFFFFFFFFFFFF DUP4 DUP2 AND SWAP2 DUP3 OR DUP7 SSTORE PUSH1 0x40 MLOAD SWAP1 DUP4 AND SWAP1 PUSH32 0x8BE0079C531659141344CD1FD0A4F28419497F9722A3DAAFE3B4186F6B6457E0 SWAP1 PUSH1 0x0 SWAP1 LOG3 JUMPDEST POP POP POP POP JUMP JUMPDEST PUSH1 0x0 PUSH1 0x20 DUP3 DUP5 SUB SLT ISZERO PUSH2 0x766 JUMPI PUSH1 0x0 DUP1 REVERT JUMPDEST DUP2 CALLDATALOAD PUSH32 0xFFFFFFFF00000000000000000000000000000000000000000000000000000000 DUP2 AND DUP2 EQ PUSH2 0x280 JUMPI PUSH1 0x0 DUP1 REVERT JUMPDEST PUSH1 0x0 PUSH1 0x20 DUP3 DUP5 SUB SLT ISZERO PUSH2 0x7A8 JUMPI PUSH1 0x0 DUP1 REVERT JUMPDEST POP CALLDATALOAD SWAP2 SWAP1 POP JUMP JUMPDEST PUSH1 0x0 DUP1 PUSH1 0x40 DUP4 DUP6 SUB SLT ISZERO PUSH2 0x7C2 JUMPI PUSH1 0x0 DUP1 REVERT JUMPDEST POP POP DUP1 CALLDATALOAD SWAP3 PUSH1 0x20 SWAP1 SWAP2 ADD CALLDATALOAD SWAP2 POP JUMP JUMPDEST PUSH1 0x0 PUSH1 0x20 DUP3 DUP5 SUB SLT ISZERO PUSH2 0x7E3 JUMPI PUSH1 0x0 DUP1 REVERT JUMPDEST DUP2 CALLDATALOAD PUSH20 0xFFFFFFFFFFFFFFFFFFFFFFFFFFFFFFFFFFFFFFFF DUP2 AND DUP2 EQ PUSH2 0x280 JUMPI PUSH1 0x0 DUP1 REVERT JUMPDEST PUSH32 0x4E487B7100000000000000000000000000000000000000000000000000000000 PUSH1 0x0 MSTORE PUSH1 0x11 PUSH1 0x4 MSTORE PUSH1 0x24 PUSH1 0x0 REVERT JUMPDEST DUP2 DUP2 SUB DUP2 DUP2 GT ISZERO PUSH2 0x1B3 JUMPI PUSH2 0x1B3 PUSH2 0x807 JUMP JUMPDEST DUP1 DUP3 ADD DUP1 DUP3 GT ISZERO PUSH2 0x1B3 JUMPI PUSH2 0x1B3 PUSH2 0x807 JUMP JUMPDEST DUP1 DUP3 MUL DUP2 ISZERO DUP3 DUP3 DIV DUP5 EQ OR PUSH2 0x1B3 JUMPI PUSH2 0x1B3 PUSH2 0x807 JUMP JUMPDEST PUSH1 0x0 DUP3 PUSH2 0x8A9 JUMPI PUSH32 0x4E487B7100000000000000000000000000000000000000000000000000000000 PUSH1 0x0 MSTORE PUSH1 0x12 PUSH1 0x4 MSTORE PUSH1 0x24 PUSH1 0x0 REVERT JUMPDEST POP DIV SWAP1 JUMP INVALID LOG2 PUSH5 0x6970667358 0x22 SLT KECCAK256 0xB8 LOG4 REVERT LOG3 0xED GASPRICE BLOBBASEFEE DUP6 0xB3 SWAP6 0x1F 0xD5 0x2F 0xCC 0xE4 JUMP DUP10 0xE6 LOG1 0xD0 0xC3 EXTCODECOPY DUP6 EQ SLT NUMBER 0xAC EXTCODECOPY 0xCB LOG0 DUP15 ADDMOD PUSH5 0x736F6C6343 STOP ADDMOD XOR STOP CALLER "},"gasEstimates":{"creation":{"codeDepositCost":"455200","executionCost":"infinite","totalCost":"infinite"},"external":{"calculatePrice(uint256,uint256)":"infinite","initialPrice()":"infinite","owner()":"infinite","setInitialPrice(uint256)":"infinite","setSlopeDenominator(uint256)":"infinite","setSlopeNumerator(uint256)":"infinite","slopeDenominator()":"infinite","slopeNumerator()":"infinite","supportsInterface(bytes4)":"infinite","transferOwnership(address)":"infinite"}},"methodIdentifiers":{"calculatePrice(uint256,uint256)":"a6413a27","initialPrice()":"1d0806ae","owner()":"8da5cb5b","setInitialPrice(uint256)":"9f4ba0ee","setSlopeDenominator(uint256)":"d58ee471","setSlopeNumerator(uint256)":"1de7223b","slopeDenominator()":"65a3ea5f","slopeNumerator()":"21800fc3","supportsInterface(bytes4)":"01ffc9a7","transferOwnership(address)":"f2fde38b"}},"storageLayout":{"storage":[],"types":null},"userdoc":{"errors":{"IllegalInterfaceId()":[{"notice":"Thrown when setting the illegal interfaceId 0xffffffff."}],"LinearCurveZeroDenominator()":[{"notice":"Thrown when the denominator of the linear curve is zero."}],"LinearCurveZeroNumerator()":[{"notice":"Thrown when the numerator of the linear curve is zero."}],"NotContractOwner(address)":[{"notice":"Thrown when an account is not the contract owner but is required to."}]},"events":{"InitialPriceSet(uint256,address)":{"notice":"Emitted when the initial price of the curve is set."},"OwnershipTransferred(address,address)":{"notice":"Emitted when the contract ownership changes."},"SlopeDenominatorSet(uint256,address)":{"notice":"Emitted when the slope denominator of the curve is set."},"SlopeNumeratorSet(uint256,address)":{"notice":"Emitted when the slope numerator of the curve is set."}},"kind":"user","methods":{"calculatePrice(uint256,uint256)":{"notice":"Calculates the price of a token given the total supply and the amount to mint."},"initialPrice()":{"notice":"Returns the initial price of the curve."},"owner()":{"notice":"Gets the address of the contract owner."},"setInitialPrice(uint256)":{"notice":"Sets the initial price of the curve."},"setSlopeDenominator(uint256)":{"notice":"Sets the slope denominator of the curve."},"setSlopeNumerator(uint256)":{"notice":"Sets the slope numerator of the curve."},"slopeDenominator()":{"notice":"Returns the slope denominator of the curve."},"slopeNumerator()":{"notice":"Returns the slope numerator of the curve."},"supportsInterface(bytes4)":{"notice":"Returns whether this contract implements a given interface."},"transferOwnership(address)":{"notice":"Sets the address of the new contract owner."}},"version":1}}}}