{"contracts/BCNFT.sol":{"BCNFT":{"abi":[{"inputs":[{"internalType":"contract ITokenMetadataResolver","name":"metadataResolver","type":"address"}],"stateMutability":"nonpayable","type":"constructor"},{"inputs":[],"name":"ERC721BalanceOfAddressZero","type":"error"},{"inputs":[{"internalType":"uint256","name":"tokenId","type":"uint256"}],"name":"ERC721BurntToken","type":"error"},{"inputs":[{"internalType":"uint256","name":"tokenId","type":"uint256"}],"name":"ERC721ExistingToken","type":"error"},{"inputs":[],"name":"ERC721MintToAddressZero","type":"error"},{"inputs":[{"internalType":"address","name":"sender","type":"address"},{"internalType":"address","name":"owner","type":"address"},{"internalType":"uint256","name":"tokenId","type":"uint256"}],"name":"ERC721NonApprovedForApproval","type":"error"},{"inputs":[{"internalType":"address","name":"sender","type":"address"},{"internalType":"address","name":"owner","type":"address"},{"internalType":"uint256","name":"tokenId","type":"uint256"}],"name":"ERC721NonApprovedForTransfer","type":"error"},{"inputs":[{"internalType":"uint256","name":"tokenId","type":"uint256"}],"name":"ERC721NonExistingToken","type":"error"},{"inputs":[{"internalType":"address","name":"account","type":"address"},{"internalType":"uint256","name":"tokenId","type":"uint256"}],"name":"ERC721NonOwnedToken","type":"error"},{"inputs":[{"internalType":"address","name":"recipient","type":"address"},{"internalType":"uint256","name":"tokenId","type":"uint256"}],"name":"ERC721SafeTransferRejected","type":"error"},{"inputs":[{"internalType":"address","name":"account","type":"address"}],"name":"ERC721SelfApproval","type":"error"},{"inputs":[{"internalType":"address","name":"account","type":"address"}],"name":"ERC721SelfApprovalForAll","type":"error"},{"inputs":[],"name":"ERC721TransferToAddressZero","type":"error"},{"inputs":[],"name":"IllegalInterfaceId","type":"error"},{"inputs":[{"internalType":"address","name":"account","type":"address"}],"name":"NotContractOwner","type":"error"},{"inputs":[{"internalType":"bytes32","name":"role","type":"bytes32"},{"internalType":"address","name":"account","type":"address"}],"name":"NotRoleHolder","type":"error"},{"anonymous":false,"inputs":[{"indexed":true,"internalType":"address","name":"owner","type":"address"},{"indexed":true,"internalType":"address","name":"approved","type":"address"},{"indexed":true,"internalType":"uint256","name":"tokenId","type":"uint256"}],"name":"Approval","type":"event"},{"anonymous":false,"inputs":[{"indexed":true,"internalType":"address","name":"owner","type":"address"},{"indexed":true,"internalType":"address","name":"operator","type":"address"},{"indexed":false,"internalType":"bool","name":"approved","type":"bool"}],"name":"ApprovalForAll","type":"event"},{"anonymous":false,"inputs":[{"indexed":true,"internalType":"address","name":"previousOwner","type":"address"},{"indexed":true,"internalType":"address","name":"newOwner","type":"address"}],"name":"OwnershipTransferred","type":"event"},{"anonymous":false,"inputs":[{"indexed":false,"internalType":"bytes32","name":"role","type":"bytes32"},{"indexed":false,"internalType":"address","name":"account","type":"address"},{"indexed":false,"internalType":"address","name":"operator","type":"address"}],"name":"RoleGranted","type":"event"},{"anonymous":false,"inputs":[{"indexed":false,"internalType":"bytes32","name":"role","type":"bytes32"},{"indexed":false,"internalType":"address","name":"account","type":"address"},{"indexed":false,"internalType":"address","name":"operator","type":"address"}],"name":"RoleRevoked","type":"event"},{"anonymous":false,"inputs":[{"indexed":true,"internalType":"address","name":"from","type":"address"},{"indexed":true,"internalType":"address","name":"to","type":"address"},{"indexed":true,"internalType":"uint256","name":"tokenId","type":"uint256"}],"name":"Transfer","type":"event"},{"inputs":[],"name":"MINTER_ROLE","outputs":[{"internalType":"bytes32","name":"","type":"bytes32"}],"stateMutability":"view","type":"function"},{"inputs":[{"internalType":"address","name":"to","type":"address"},{"internalType":"uint256","name":"tokenId","type":"uint256"}],"name":"approve","outputs":[],"stateMutability":"nonpayable","type":"function"},{"inputs":[{"internalType":"address","name":"owner","type":"address"}],"name":"balanceOf","outputs":[{"internalType":"uint256","name":"balance","type":"uint256"}],"stateMutability":"view","type":"function"},{"inputs":[{"internalType":"address","name":"to","type":"address"},{"internalType":"uint256[]","name":"tokenIds","type":"uint256[]"}],"name":"batchMint","outputs":[],"stateMutability":"nonpayable","type":"function"},{"inputs":[{"internalType":"uint256","name":"tokenId","type":"uint256"}],"name":"getApproved","outputs":[{"internalType":"address","name":"approved","type":"address"}],"stateMutability":"view","type":"function"},{"inputs":[{"internalType":"bytes32","name":"role","type":"bytes32"},{"internalType":"address","name":"account","type":"address"}],"name":"grantRole","outputs":[],"stateMutability":"nonpayable","type":"function"},{"inputs":[{"internalType":"bytes32","name":"role","type":"bytes32"},{"internalType":"address","name":"account","type":"address"}],"name":"hasRole","outputs":[{"internalType":"bool","name":"hasRole_","type":"bool"}],"stateMutability":"view","type":"function"},{"inputs":[{"internalType":"address","name":"owner","type":"address"},{"internalType":"address","name":"operator","type":"address"}],"name":"isApprovedForAll","outputs":[{"internalType":"bool","name":"approvedForAll","type":"bool"}],"stateMutability":"view","type":"function"},{"inputs":[],"name":"metadataResolver","outputs":[{"internalType":"contract ITokenMetadataResolver","name":"tokenMetadataResolver","type":"address"}],"stateMutability":"view","type":"function"},{"inputs":[{"internalType":"address","name":"to","type":"address"},{"internalType":"uint256","name":"tokenId","type":"uint256"}],"name":"mint","outputs":[],"stateMutability":"nonpayable","type":"function"},{"inputs":[],"name":"name","outputs":[{"internalType":"string","name":"tokenName","type":"string"}],"stateMutability":"view","type":"function"},{"inputs":[],"name":"owner","outputs":[{"internalType":"address","name":"","type":"address"}],"stateMutability":"view","type":"function"},{"inputs":[{"internalType":"uint256","name":"tokenId","type":"uint256"}],"name":"ownerOf","outputs":[{"internalType":"address","name":"tokenOwner","type":"address"}],"stateMutability":"view","type":"function"},{"inputs":[{"internalType":"bytes32","name":"role","type":"bytes32"}],"name":"renounceRole","outputs":[],"stateMutability":"nonpayable","type":"function"},{"inputs":[{"internalType":"bytes32","name":"role","type":"bytes32"},{"internalType":"address","name":"account","type":"address"}],"name":"revokeRole","outputs":[],"stateMutability":"nonpayable","type":"function"},{"inputs":[{"internalType":"address","name":"to","type":"address"},{"internalType":"uint256","name":"tokenId","type":"uint256"},{"internalType":"bytes","name":"data","type":"bytes"}],"name":"safeMint","outputs":[],"stateMutability":"nonpayable","type":"function"},{"inputs":[{"internalType":"address","name":"from","type":"address"},{"internalType":"address","name":"to","type":"address"},{"internalType":"uint256","name":"tokenId","type":"uint256"}],"name":"safeTransferFrom","outputs":[],"stateMutability":"nonpayable","type":"function"},{"inputs":[{"internalType":"address","name":"from","type":"address"},{"internalType":"address","name":"to","type":"address"},{"internalType":"uint256","name":"tokenId","type":"uint256"},{"internalType":"bytes","name":"data","type":"bytes"}],"name":"safeTransferFrom","outputs":[],"stateMutability":"nonpayable","type":"function"},{"inputs":[{"internalType":"address","name":"operator","type":"address"},{"internalType":"bool","name":"approved","type":"bool"}],"name":"setApprovalForAll","outputs":[],"stateMutability":"nonpayable","type":"function"},{"inputs":[{"internalType":"bytes4","name":"interfaceId","type":"bytes4"}],"name":"supportsInterface","outputs":[{"internalType":"bool","name":"","type":"bool"}],"stateMutability":"view","type":"function"},{"inputs":[],"name":"symbol","outputs":[{"internalType":"string","name":"tokenSymbol","type":"string"}],"stateMutability":"view","type":"function"},{"inputs":[{"internalType":"uint256","name":"tokenId","type":"uint256"}],"name":"tokenURI","outputs":[{"internalType":"string","name":"uri","type":"string"}],"stateMutability":"view","type":"function"},{"inputs":[{"internalType":"address","name":"from","type":"address"},{"internalType":"address","name":"to","type":"address"},{"internalType":"uint256","name":"tokenId","type":"uint256"}],"name":"transferFrom","outputs":[],"stateMutability":"nonpayable","type":"function"},{"inputs":[{"internalType":"address","name":"newOwner","type":"address"}],"name":"transferOwnership","outputs":[],"stateMutability":"nonpayable","type":"function"},{"inputs":[{"internalType":"uint256","name":"tokenId","type":"uint256"}],"name":"wasBurnt","outputs":[{"internalType":"bool","name":"tokenWasBurnt","type":"bool"}],"stateMutability":"view","type":"function"}],"devdoc":{"errors":{"ERC721BurntToken(uint256)":[{"params":{"tokenId":"The identifier of the token that has been burnt before."}}],"ERC721ExistingToken(uint256)":[{"params":{"tokenId":"The identifier of the token that already exists."}}],"ERC721NonApprovedForApproval(address,address,uint256)":[{"params":{"sender":"The message sender.","tokenId":"The identifier of the token."}}],"ERC721NonApprovedForTransfer(address,address,uint256)":[{"params":{"sender":"The message sender.","tokenId":"The identifier of the token."}}],"ERC721NonExistingToken(uint256)":[{"params":{"tokenId":"The identifier of the token that was checked."}}],"ERC721NonOwnedToken(address,uint256)":[{"params":{"account":"The account that was expected to own the token.","tokenId":"The identifier of the token."}}],"ERC721SafeTransferRejected(address,uint256)":[{"params":{"recipient":"The recipient contract.","tokenId":"The identifier of the token."}}],"ERC721SelfApproval(address)":[{"params":{"account":"The account trying to approve itself."}}],"ERC721SelfApprovalForAll(address)":[{"params":{"account":"The account trying to approveForAll itself."}}],"NotContractOwner(address)":[{"params":{"account":"The account that was checked."}}],"NotRoleHolder(bytes32,address)":[{"params":{"account":"The account that was checked.","role":"The role the caller is missing."}}]},"events":{"Approval(address,address,uint256)":{"params":{"approved":"The approved address.","owner":"The token owner.","tokenId":"The approved token identifier."}},"ApprovalForAll(address,address,bool)":{"params":{"approved":"True when then approval is set, false when it is unset.","operator":"The approved address.","owner":"The tokens owner."}},"OwnershipTransferred(address,address)":{"params":{"newOwner":"the new contract owner.","previousOwner":"the previous contract owner."}},"RoleGranted(bytes32,address,address)":{"params":{"account":"The account that has been granted the role.","operator":"The account that granted the role.","role":"The role that has been granted."}},"RoleRevoked(bytes32,address,address)":{"params":{"account":"The account that has been revoked the role.","operator":"The account that revoked the role.","role":"The role that has been revoked."}},"Transfer(address,address,uint256)":{"params":{"from":"The previous token owner.","to":"The new token owner.","tokenId":"The transferred token identifier."}}},"kind":"dev","methods":{"approve(address,uint256)":{"details":"Note: There can only be one approved address per token at a given time.Note: A token approval gets reset when this token is transferred, including a self-transfer.Reverts if `tokenId` does not exist.Reverts if `to` is the token owner.Reverts if the sender is not the token owner and has not been approved by the token owner.Emits an {Approval} event.","params":{"to":"The address to approve, or the zero address to remove any existing approval.","tokenId":"The token identifier to give approval for."}},"balanceOf(address)":{"details":"Reverts if `owner` is the zero address.","params":{"owner":"The address to query the balance of."},"returns":{"balance":"The amount owned by the owner."}},"batchMint(address,uint256[])":{"details":"Reverts with {NotRoleHolder} if the sender does not have the 'minter' role.Reverts with {ERC721BurntToken} if one of `tokenIds` has been previously burnt.","params":{"to":"Address of the new tokens owner.","tokenIds":"Identifiers of the tokens to mint."}},"getApproved(uint256)":{"details":"Reverts if `tokenId` does not exist.","params":{"tokenId":"The token identifier to query the approval of."},"returns":{"approved":"The approved address for the token identifier, or the zero address if no approval is set."}},"grantRole(bytes32,address)":{"details":"Reverts with {NotContractOwner} if the sender is not the contract owner.Emits a {RoleGranted} event if the account did not previously have the role.","params":{"account":"The account to grant the role to.","role":"The role to grant."}},"hasRole(bytes32,address)":{"params":{"account":"The account.","role":"The role."},"returns":{"hasRole_":"Whether `account` has `role`."}},"isApprovedForAll(address,address)":{"params":{"operator":"The address which receives the approval for all tokens.","owner":"The address which gives the approval for all tokens."},"returns":{"approvedForAll":"Whether the operator is approved for all tokens by the owner."}},"metadataResolver()":{"returns":{"tokenMetadataResolver":"The token metadata resolver address."}},"mint(address,uint256)":{"details":"Reverts with {NotRoleHolder} if the sender does not have the 'minter' role.Reverts with {ERC721BurntToken} if `tokenId` has been previously burnt.","params":{"to":"Address of the new token owner.","tokenId":"Identifier of the token to mint."}},"name()":{"returns":{"tokenName":"The name of the token."}},"owner()":{"returns":{"_0":"The address of the contract owner."}},"ownerOf(uint256)":{"details":"Reverts if `tokenId` does not exist.","params":{"tokenId":"The token identifier to query the owner of."},"returns":{"tokenOwner":"The owner of the token identifier."}},"renounceRole(bytes32)":{"details":"Reverts if `sender` does not have `role`.Emits a {RoleRevoked} event.","params":{"role":"The role to renounce."}},"revokeRole(bytes32,address)":{"details":"Reverts with {NotContractOwner} if the sender is not the contract owner.Emits a {RoleRevoked} event if the account previously had the role.","params":{"account":"The account to revoke the role from.","role":"The role to revoke."}},"safeMint(address,uint256,bytes)":{"details":"Reverts with {NotRoleHolder} if the sender does not have the 'minter' role.Reverts with {ERC721BurntToken} if `tokenId` has been previously burnt.","params":{"data":"Optional data to pass along to the receiver call.","to":"Address of the new token owner.","tokenId":"Identifier of the token to mint."}},"safeTransferFrom(address,address,uint256)":{"details":"Resets the token approval for `tokenId`.Reverts if `to` is the zero address.Reverts if `from` is not the owner of `tokenId`.Reverts if the sender is not `from` and has not been approved by `from` for `tokenId`.Reverts if `to` is a contract and the call to {IERC721Receiver-onERC721Received} fails, reverts or is rejected.Emits a {Transfer} event.","params":{"from":"The current token owner.","to":"The recipient of the token transfer.","tokenId":"The identifier of the token to transfer."}},"safeTransferFrom(address,address,uint256,bytes)":{"details":"Resets the token approval for `tokenId`.Reverts if `to` is the zero address.Reverts if `from` is not the owner of `tokenId`.Reverts if the sender is not `from` and has not been approved by `from` for `tokenId`.Reverts if `to` is a contract and the call to {IERC721Receiver-onERC721Received} fails, reverts or is rejected.Emits a {Transfer} event.","params":{"data":"Optional data to send along to a receiver contract.","from":"The current token owner.","to":"The recipient of the token transfer.","tokenId":"The identifier of the token to transfer."}},"setApprovalForAll(address,bool)":{"details":"Reverts if the sender is the same as `operator`.Emits an {ApprovalForAll} event.","params":{"approved":"True to set an approval for all tokens, false to unset it.","operator":"The address to approve for all tokens."}},"supportsInterface(bytes4)":{"details":"Note: This function call must use less than 30 000 gas.","params":{"interfaceId":"the interface identifier to test."},"returns":{"_0":"True if the interface is supported, false if `interfaceId` is `0xffffffff` or if the interface is not supported."}},"symbol()":{"returns":{"tokenSymbol":"The symbol of the token."}},"tokenURI(uint256)":{"details":"Reverts if `tokenId` does not exist.","params":{"tokenId":"The token identifier."},"returns":{"uri":"The metadata URI for the token identifier."}},"transferFrom(address,address,uint256)":{"details":"Note: Usage of this method is discouraged, use `safeTransferFrom` whenever possible.Resets the token approval for `tokenId`.Reverts if `to` is the zero address.Reverts if `from` is not the owner of `tokenId`.Reverts if the sender is not `from` and has not been approved by `from` for `tokenId`.Emits a {Transfer} event.","params":{"from":"The current token owner.","to":"The recipient of the token transfer. Self-transfers are possible.","tokenId":"The identifier of the token to transfer."}},"transferOwnership(address)":{"details":"Reverts if the sender is not the contract owner.Emits an {OwnershipTransferred} event if `newOwner` is different from the current contract owner.","params":{"newOwner":"The address of the new contract owner. Using the zero address means renouncing ownership."}},"wasBurnt(uint256)":{"params":{"tokenId":"The token identifier."},"returns":{"tokenWasBurnt":"Whether the token was burnt."}}},"version":1},"evm":{"bytecode":{"linkReferences":{},"object":"60806040523480156200001157600080fd5b50604051620027eb380380620027eb8339810160408190526200003491620002e5565b60405180604001604052806011815260200170109bdb991a5b99c810dd5c9d9948139195607a1b815250604051806040016040528060058152602001641090d3919560da1b815250826200008d620000e760201b60201c565b620000a3816200009c620000eb565b9062000121565b50620000ae6200019c565b620000c8838383620000bf620001b6565b929190620001e6565b620000d26200022d565b50620000e091505062000245565b50620004ac565b3390565b6000806200011b60017fc9ed16f33ab3a66c84bfd83099ccb2a8845871e2e1c1928f63797152f0fd54cd62000317565b92915050565b6001600160a01b03811615620001785781546001600160a01b0319166001600160a01b03821690811783556040516000907f8be0079c531659141344cd1fd0a4f28419497f9722a3daafe3b4186f6b6457e0908290a35b620001986307f5828d60e41b60016200019062000258565b919062000288565b5050565b620001b46380ac58cd60e01b60016200019062000258565b565b6000806200011b60017f7ea68fd2dcf1c056b94db6a0a537aa80d26fa9ab1eacd85da1ba0b61b7e7a8a562000317565b83620001f38482620003e0565b5060018401620002048382620003e0565b5060029390930180546001600160a01b0319166001600160a01b03909416939093179092555050565b620001b4635b5e139f60e01b60016200019062000258565b620001b4638e773e1360e01b6001620001905b6000806200011b60017fca9d3e17f264b0f3984e2634e94adb37fa3e6a8103f06aeae6fa59e21c769f5e62000317565b600160e01b6001600160e01b0319831601620002b7576040516372c683bb60e01b815260040160405180910390fd5b6001600160e01b03199190911660009081526020929092526040909120805460ff1916911515919091179055565b600060208284031215620002f857600080fd5b81516001600160a01b03811681146200031057600080fd5b9392505050565b818103818111156200011b57634e487b7160e01b600052601160045260246000fd5b634e487b7160e01b600052604160045260246000fd5b600181811c908216806200036457607f821691505b6020821081036200038557634e487b7160e01b600052602260045260246000fd5b50919050565b601f821115620003db576000816000526020600020601f850160051c81016020861015620003b65750805b601f850160051c820191505b81811015620003d757828155600101620003c2565b5050505b505050565b81516001600160401b03811115620003fc57620003fc62000339565b62000414816200040d84546200034f565b846200038b565b602080601f8311600181146200044c5760008415620004335750858301515b600019600386901b1c1916600185901b178555620003d7565b600085815260208120601f198616915b828110156200047d578886015182559484019460019091019084016200045c565b50858210156200049c5787850151600019600388901b60f8161c191681555b5050505050600190811b01905550565b61232f80620004bc6000396000f3fe608060405234801561001057600080fd5b50600436106101a35760003560e01c80638bb9c5bf116100ee578063b88d4fde11610097578063d539139311610071578063d539139314610362578063d547741f14610389578063e985e9c51461039c578063f2fde38b146103af57600080fd5b8063b88d4fde14610329578063c77c69551461033c578063c87b56dd1461034f57600080fd5b806395d89b41116100c857806395d89b4114610306578063a0c76f621461030e578063a22cb4651461031657600080fd5b80638bb9c5bf146102d85780638da5cb5b146102eb57806391d14854146102f357600080fd5b806340c10f19116101505780636352211e1161012a5780636352211e1461029157806370a08231146102a45780638832e6e3146102c557600080fd5b806340c10f191461025857806342842e0e1461026b5780634684d7e91461027e57600080fd5b8063095ea7b311610181578063095ea7b31461021d57806323b872dd146102325780632f2ff15d1461024557600080fd5b806301ffc9a7146101a857806306fdde03146101d0578063081812fc146101e5575b600080fd5b6101bb6101b6366004611d52565b6103c2565b60405190151581526020015b60405180910390f35b6101d86103dc565b6040516101c79190611ddd565b6101f86101f3366004611df0565b6103eb565b60405173ffffffffffffffffffffffffffffffffffffffff90911681526020016101c7565b61023061022b366004611e32565b6103ff565b005b610230610240366004611e5c565b610419565b610230610253366004611e98565b610436565b610230610266366004611e32565b61045f565b610230610279366004611e5c565b6104a8565b61023061028c366004611ec4565b6104c0565b6101f861029f366004611df0565b610532565b6102b76102b2366004611f4a565b610546565b6040519081526020016101c7565b6102306102d3366004611fae565b61055a565b6102306102e6366004611df0565b6105d9565b6101f86105f0565b6101bb610301366004611e98565b610617565b6101d8610662565b6101f861066c565b610230610324366004612008565b610696565b610230610337366004612044565b6106ac565b6101bb61034a366004611df0565b6106cf565b6101d861035d366004611df0565b6106e3565b6102b77f6d696e746572000000000000000000000000000000000000000000000000000081565b610230610397366004611e98565b610706565b6101bb6103aa3660046120b3565b610729565b6102306103bd366004611f4a565b610777565b60006103d6826103d061078b565b906107b9565b92915050565b60606103e6610893565b905090565b60006103d6826103f96108a5565b906108d3565b61041533838361040d6108a5565b92919061098c565b5050565b610431338484846104286108a5565b93929190610c07565b505050565b3361044981610443610ee5565b90610f13565b610431838383610457610f7e565b929190610fac565b6104947f6d696e7465720000000000000000000000000000000000000000000000000000335b61048d610f7e565b9190611082565b61041582826104a16108a5565b9190611108565b610431338484846104b76108a5565b93929190611280565b6104ea7f6d696e746572000000000000000000000000000000000000000000000000000033610485565b6104318383838080602002602001604051908101604052809392919081815260200183836020028082843760009201919091525061052b92506108a5915050565b91906112c6565b60006103d6826105406108a5565b90611492565b60006103d6826105546108a5565b906114fb565b6105847f6d696e746572000000000000000000000000000000000000000000000000000033610485565b6105d333858585858080601f0160208091040260200160405190810160405280939291908181526020018383808284376000920191909152506105ca92506108a5915050565b93929190611577565b50505050565b6105ed33826105e6610f7e565b91906115ad565b50565b60006103e66105fd610ee5565b5473ffffffffffffffffffffffffffffffffffffffff1690565b600061065b8383610626610f7e565b60009283526020908152604080842073ffffffffffffffffffffffffffffffffffffffff909316845291905290205460ff1690565b9392505050565b60606103e6611651565b60006103e6610679611663565b6002015473ffffffffffffffffffffffffffffffffffffffff1690565b6104153383836106a46108a5565b929190611691565b6106c83386868686866106bd6108a5565b9594939291906117a9565b5050505050565b60006103d6826106dd6108a5565b9061181f565b60606106f1826105406108a5565b506103d630836106ff611663565b9190611855565b3361071381610443610ee5565b610431838383610721610f7e565b929190611915565b600061065b83836107386108a5565b919073ffffffffffffffffffffffffffffffffffffffff9182166000908152600393909301602090815260408085209290931684525290205460ff1690565b6105ed3382610784610ee5565b91906119df565b6000806103d660017fca9d3e17f264b0f3984e2634e94adb37fa3e6a8103f06aeae6fa59e21c769f5e6120dd565b60007c01000000000000000000000000000000000000000000000000000000007fffffffff00000000000000000000000000000000000000000000000000000000831601610809575060006103d6565b7ffe003659000000000000000000000000000000000000000000000000000000007fffffffff0000000000000000000000000000000000000000000000000000000083160161085a575060016103d6565b507fffffffff00000000000000000000000000000000000000000000000000000000166000908152602091909152604090205460ff1690565b60606103e66108a0611663565b611af3565b6000806103d660017fddf3ee18ae6d688373c219468f8be446e7ae82215f4779d821c7ea5e8c13c0c16120dd565b60008181526020839052604081205473ffffffffffffffffffffffffffffffffffffffff8116610937576040517fdd560475000000000000000000000000000000000000000000000000000000008152600481018490526024015b60405180910390fd5b74010000000000000000000000000000000000000000811615610982575050600081815260028301602052604090205473ffffffffffffffffffffffffffffffffffffffff166103d6565b60009150506103d6565b60008181526020859052604090205473ffffffffffffffffffffffffffffffffffffffff81166109eb576040517fdd5604750000000000000000000000000000000000000000000000000000000081526004810183905260240161092e565b8073ffffffffffffffffffffffffffffffffffffffff80821690851603610a56576040517fb7fdc01000000000000000000000000000000000000000000000000000000000815273ffffffffffffffffffffffffffffffffffffffff8216600482015260240161092e565b610a61868287611b89565b610abe576040517fc7563a1800000000000000000000000000000000000000000000000000000000815273ffffffffffffffffffffffffffffffffffffffff8087166004830152821660248201526044810184905260640161092e565b73ffffffffffffffffffffffffffffffffffffffff8416610b235774010000000000000000000000000000000000000000821615610b1e57600083815260208790526040902073ffffffffffffffffffffffffffffffffffffffff821690555b610ba4565b740100000000000000000000000000000000000000008217808314610b545760008481526020889052604090208190555b506000838152600287016020526040902080547fffffffffffffffffffffffff00000000000000000000000000000000000000001673ffffffffffffffffffffffffffffffffffffffff86161790555b828473ffffffffffffffffffffffffffffffffffffffff168273ffffffffffffffffffffffffffffffffffffffff167f8c5be1e5ebec7d5bd14f71427d1e84f3dd0314c0f7b2291e5b200ac8c7c3b92560405160405180910390a4505050505050565b73ffffffffffffffffffffffffffffffffffffffff8216610c54576040517f86c8706700000000000000000000000000000000000000000000000000000000815260040160405180910390fd5b60008181526020869052604090205473ffffffffffffffffffffffffffffffffffffffff8116610cb3576040517fdd5604750000000000000000000000000000000000000000000000000000000081526004810183905260240161092e565b73ffffffffffffffffffffffffffffffffffffffff84168173ffffffffffffffffffffffffffffffffffffffff1614610d37576040517f14dbb53600000000000000000000000000000000000000000000000000000000815273ffffffffffffffffffffffffffffffffffffffff851660048201526024810183905260440161092e565b610d42868587611b89565b610df1577401000000000000000000000000000000000000000081161580610d935750600082815260028701602052604090205473ffffffffffffffffffffffffffffffffffffffff868116911614155b15610df1576040517fa4a3018b00000000000000000000000000000000000000000000000000000000815273ffffffffffffffffffffffffffffffffffffffff8087166004830152851660248201526044810183905260640161092e565b600082815260208790526040902073ffffffffffffffffffffffffffffffffffffffff80851691829055851614610e825773ffffffffffffffffffffffffffffffffffffffff80851660009081526001808901602052604080832080547fffffffffffffffffffffffffffffffffffffffffffffffffffffffffffffffff0190559286168252919020805490910190555b818373ffffffffffffffffffffffffffffffffffffffff168573ffffffffffffffffffffffffffffffffffffffff167fddf252ad1be2c89b69c2b068fc378daa952ba7f163c4a11628f55a4df523b3ef60405160405180910390a4505050505050565b6000806103d660017fc9ed16f33ab3a66c84bfd83099ccb2a8845871e2e1c1928f63797152f0fd54cd6120dd565b815473ffffffffffffffffffffffffffffffffffffffff828116911614610415576040517f2ef4875e00000000000000000000000000000000000000000000000000000000815273ffffffffffffffffffffffffffffffffffffffff8216600482015260240161092e565b6000806103d660017fc8827d3282af6f37b64c3e9e6f3ac9df286ab0bb0fccd6f8661bf19adb368b236120dd565b60008381526020858152604080832073ffffffffffffffffffffffffffffffffffffffff8616845290915290205460ff166105d35760008381526020858152604080832073ffffffffffffffffffffffffffffffffffffffff8681168086529184529382902080547fffffffffffffffffffffffffffffffffffffffffffffffffffffffffffffff00166001179055815187815292830152918316918101919091527f2f8788117e7eff1d82e926ec794901d17c78024a50270940304540a733656f0d906060015b60405180910390a150505050565b60008281526020848152604080832073ffffffffffffffffffffffffffffffffffffffff8516845290915290205460ff16610431576040517f7aa728820000000000000000000000000000000000000000000000000000000081526004810183905273ffffffffffffffffffffffffffffffffffffffff8216602482015260440161092e565b73ffffffffffffffffffffffffffffffffffffffff8216611155576040517f7851b9cd00000000000000000000000000000000000000000000000000000000815260040160405180910390fd5b60008181526020849052604090205473ffffffffffffffffffffffffffffffffffffffff8116156111b5576040517f753eceac0000000000000000000000000000000000000000000000000000000081526004810183905260240161092e565b7fdead0000000000000000000000000000000000000000000000000000000000008103611211576040517f31e8d3d50000000000000000000000000000000000000000000000000000000081526004810183905260240161092e565b60008281526020858152604080832073ffffffffffffffffffffffffffffffffffffffff87169081905580845260018089019093528184208054909301909255518492907fddf252ad1be2c89b69c2b068fc378daa952ba7f163c4a11628f55a4df523b3ef908290a450505050565b61128d8585858585610c07565b73ffffffffffffffffffffffffffffffffffffffff82163b156106c8576106c88484848460405180602001604052806000815250611bfe565b73ffffffffffffffffffffffffffffffffffffffff8216611313576040517f7851b9cd00000000000000000000000000000000000000000000000000000000815260040160405180910390fd5b805160005b8181101561145d57600083828151811061133457611334612117565b60209081029190910181015160008181529188905260409091205490915073ffffffffffffffffffffffffffffffffffffffff8116156113a3576040517f753eceac0000000000000000000000000000000000000000000000000000000081526004810183905260240161092e565b7fdead00000000000000000000000000000000000000000000000000000000000081036113ff576040517f31e8d3d50000000000000000000000000000000000000000000000000000000081526004810183905260240161092e565b60008281526020889052604080822073ffffffffffffffffffffffffffffffffffffffff89169081905590518492907fddf252ad1be2c89b69c2b068fc378daa952ba7f163c4a11628f55a4df523b3ef908290a45050600101611318565b5073ffffffffffffffffffffffffffffffffffffffff9092166000908152600190930160205250604090912080549091019055565b60008181526020839052604081205473ffffffffffffffffffffffffffffffffffffffff81166114f1576040517fdd5604750000000000000000000000000000000000000000000000000000000081526004810184905260240161092e565b805b949350505050565b600073ffffffffffffffffffffffffffffffffffffffff821661154a576040517faefbce4e00000000000000000000000000000000000000000000000000000000815260040160405180910390fd5b5073ffffffffffffffffffffffffffffffffffffffff166000908152600191909101602052604090205490565b611582858484611108565b73ffffffffffffffffffffffffffffffffffffffff83163b156106c8576106c8846000858585611bfe565b6115b8838284611082565b60008181526020848152604080832073ffffffffffffffffffffffffffffffffffffffff86168085529083529281902080547fffffffffffffffffffffffffffffffffffffffffffffffffffffffffffffff0016905580518481529182018390528101919091527ff6391f5c32d9c69d2a47ea670b442974b53935d1edc7fd64eb21e047a839171b9060600160405180910390a1505050565b60606103e661165e611663565b611d13565b6000806103d660017f7ea68fd2dcf1c056b94db6a0a537aa80d26fa9ab1eacd85da1ba0b61b7e7a8a56120dd565b8273ffffffffffffffffffffffffffffffffffffffff168273ffffffffffffffffffffffffffffffffffffffff160361170e576040517fe4215c6a00000000000000000000000000000000000000000000000000000000815273ffffffffffffffffffffffffffffffffffffffff8416600482015260240161092e565b73ffffffffffffffffffffffffffffffffffffffff838116600081815260038701602090815260408083209487168084529482529182902080547fffffffffffffffffffffffffffffffffffffffffffffffffffffffffffffff001686151590811790915591519182527f17307eab39ab6107e8899845ad3d59bd9653f200f220920489ca2b5937696c31910160405180910390a350505050565b6117b68787878787610c07565b73ffffffffffffffffffffffffffffffffffffffff84163b15611816576118168686868686868080601f016020809104026020016040519081016040528093929190818152602001838380828437600092019190915250611bfe92505050565b50505050505050565b6000818152602083905260408120547fdead0000000000000000000000000000000000000000000000000000000000001461065b565b60028301546040517ff724dad700000000000000000000000000000000000000000000000000000000815273ffffffffffffffffffffffffffffffffffffffff848116600483015260248201849052606092169063f724dad790604401600060405180830381865afa1580156118cf573d6000803e3d6000fd5b505050506040513d6000823e601f3d9081017fffffffffffffffffffffffffffffffffffffffffffffffffffffffffffffffe01682016040526114f39190810190612175565b60008381526020858152604080832073ffffffffffffffffffffffffffffffffffffffff8616845290915290205460ff16156105d35760008381526020858152604080832073ffffffffffffffffffffffffffffffffffffffff8681168086529184529382902080547fffffffffffffffffffffffffffffffffffffffffffffffffffffffffffffff00169055815187815292830152918316918101919091527ff6391f5c32d9c69d2a47ea670b442974b53935d1edc7fd64eb21e047a839171b90606001611074565b825473ffffffffffffffffffffffffffffffffffffffff9081169083168114611a4c576040517f2ef4875e00000000000000000000000000000000000000000000000000000000815273ffffffffffffffffffffffffffffffffffffffff8416600482015260240161092e565b8173ffffffffffffffffffffffffffffffffffffffff168173ffffffffffffffffffffffffffffffffffffffff16146105d35783547fffffffffffffffffffffffff00000000000000000000000000000000000000001673ffffffffffffffffffffffffffffffffffffffff8381169182178655604051908316907f8be0079c531659141344cd1fd0a4f28419497f9722a3daafe3b4186f6b6457e090600090a350505050565b6060816000018054611b0490612240565b80601f0160208091040260200160405190810160405280929190818152602001828054611b3090612240565b8015611b7d5780601f10611b5257610100808354040283529160200191611b7d565b820191906000526020600020905b815481529060010190602001808311611b6057829003601f168201915b50505050509050919050565b60008173ffffffffffffffffffffffffffffffffffffffff168373ffffffffffffffffffffffffffffffffffffffff1614806114f357505073ffffffffffffffffffffffffffffffffffffffff9182166000908152600393909301602090815260408085209290931684525290205460ff1690565b6040517f150b7a02000000000000000000000000000000000000000000000000000000008082529073ffffffffffffffffffffffffffffffffffffffff85169063150b7a0290611c58908990899088908890600401612293565b6020604051808303816000875af1158015611c77573d6000803e3d6000fd5b505050506040513d601f19601f82011682018060405250810190611c9b91906122dc565b7fffffffff0000000000000000000000000000000000000000000000000000000016146106c8576040517fc215a7a100000000000000000000000000000000000000000000000000000000815273ffffffffffffffffffffffffffffffffffffffff841660048201526024810183905260440161092e565b6060816001018054611b0490612240565b7fffffffff00000000000000000000000000000000000000000000000000000000811681146105ed57600080fd5b600060208284031215611d6457600080fd5b813561065b81611d24565b60005b83811015611d8a578181015183820152602001611d72565b50506000910152565b60008151808452611dab816020860160208601611d6f565b601f017fffffffffffffffffffffffffffffffffffffffffffffffffffffffffffffffe0169290920160200192915050565b60208152600061065b6020830184611d93565b600060208284031215611e0257600080fd5b5035919050565b803573ffffffffffffffffffffffffffffffffffffffff81168114611e2d57600080fd5b919050565b60008060408385031215611e4557600080fd5b611e4e83611e09565b946020939093013593505050565b600080600060608486031215611e7157600080fd5b611e7a84611e09565b9250611e8860208501611e09565b9150604084013590509250925092565b60008060408385031215611eab57600080fd5b82359150611ebb60208401611e09565b90509250929050565b600080600060408486031215611ed957600080fd5b611ee284611e09565b9250602084013567ffffffffffffffff80821115611eff57600080fd5b818601915086601f830112611f1357600080fd5b813581811115611f2257600080fd5b8760208260051b8501011115611f3757600080fd5b6020830194508093505050509250925092565b600060208284031215611f5c57600080fd5b61065b82611e09565b60008083601f840112611f7757600080fd5b50813567ffffffffffffffff811115611f8f57600080fd5b602083019150836020828501011115611fa757600080fd5b9250929050565b60008060008060608587031215611fc457600080fd5b611fcd85611e09565b935060208501359250604085013567ffffffffffffffff811115611ff057600080fd5b611ffc87828801611f65565b95989497509550505050565b6000806040838503121561201b57600080fd5b61202483611e09565b91506020830135801515811461203957600080fd5b809150509250929050565b60008060008060006080868803121561205c57600080fd5b61206586611e09565b945061207360208701611e09565b935060408601359250606086013567ffffffffffffffff81111561209657600080fd5b6120a288828901611f65565b969995985093965092949392505050565b600080604083850312156120c657600080fd5b6120cf83611e09565b9150611ebb60208401611e09565b818103818111156103d6577f4e487b7100000000000000000000000000000000000000000000000000000000600052601160045260246000fd5b7f4e487b7100000000000000000000000000000000000000000000000000000000600052603260045260246000fd5b7f4e487b7100000000000000000000000000000000000000000000000000000000600052604160045260246000fd5b60006020828403121561218757600080fd5b815167ffffffffffffffff8082111561219f57600080fd5b818401915084601f8301126121b357600080fd5b8151818111156121c5576121c5612146565b604051601f82017fffffffffffffffffffffffffffffffffffffffffffffffffffffffffffffffe0908116603f0116810190838211818310171561220b5761220b612146565b8160405282815287602084870101111561222457600080fd5b612235836020830160208801611d6f565b979650505050505050565b600181811c9082168061225457607f821691505b60208210810361228d577f4e487b7100000000000000000000000000000000000000000000000000000000600052602260045260246000fd5b50919050565b600073ffffffffffffffffffffffffffffffffffffffff8087168352808616602084015250836040830152608060608301526122d26080830184611d93565b9695505050505050565b6000602082840312156122ee57600080fd5b815161065b81611d2456fea264697066735822122025f93236fafa111f4b38de8a00dcce2b7702fdabe0ed8c67993f39ddc5942f8864736f6c63430008180033","opcodes":"PUSH1 0x80 PUSH1 0x40 MSTORE CALLVALUE DUP1 ISZERO PUSH3 0x11 JUMPI PUSH1 0x0 DUP1 REVERT JUMPDEST POP PUSH1 0x40 MLOAD PUSH3 0x27EB CODESIZE SUB DUP1 PUSH3 0x27EB DUP4 CODECOPY DUP2 ADD PUSH1 0x40 DUP2 SWAP1 MSTORE PUSH3 0x34 SWAP2 PUSH3 0x2E5 JUMP JUMPDEST PUSH1 0x40 MLOAD DUP1 PUSH1 0x40 ADD PUSH1 0x40 MSTORE DUP1 PUSH1 0x11 DUP2 MSTORE PUSH1 0x20 ADD PUSH17 0x109BDB991A5B99C810DD5C9D9948139195 PUSH1 0x7A SHL DUP2 MSTORE POP PUSH1 0x40 MLOAD DUP1 PUSH1 0x40 ADD PUSH1 0x40 MSTORE DUP1 PUSH1 0x5 DUP2 MSTORE PUSH1 0x20 ADD PUSH5 0x1090D39195 PUSH1 0xDA SHL DUP2 MSTORE POP DUP3 PUSH3 0x8D PUSH3 0xE7 PUSH1 0x20 SHL PUSH1 0x20 SHR JUMP JUMPDEST PUSH3 0xA3 DUP2 PUSH3 0x9C PUSH3 0xEB JUMP JUMPDEST SWAP1 PUSH3 0x121 JUMP JUMPDEST POP PUSH3 0xAE PUSH3 0x19C JUMP JUMPDEST PUSH3 0xC8 DUP4 DUP4 DUP4 PUSH3 0xBF PUSH3 0x1B6 JUMP JUMPDEST SWAP3 SWAP2 SWAP1 PUSH3 0x1E6 JUMP JUMPDEST PUSH3 0xD2 PUSH3 0x22D JUMP JUMPDEST POP PUSH3 0xE0 SWAP2 POP POP PUSH3 0x245 JUMP JUMPDEST POP PUSH3 0x4AC JUMP JUMPDEST CALLER SWAP1 JUMP JUMPDEST PUSH1 0x0 DUP1 PUSH3 0x11B PUSH1 0x1 PUSH32 0xC9ED16F33AB3A66C84BFD83099CCB2A8845871E2E1C1928F63797152F0FD54CD PUSH3 0x317 JUMP JUMPDEST SWAP3 SWAP2 POP POP JUMP JUMPDEST PUSH1 0x1 PUSH1 0x1 PUSH1 0xA0 SHL SUB DUP2 AND ISZERO PUSH3 0x178 JUMPI DUP2 SLOAD PUSH1 0x1 PUSH1 0x1 PUSH1 0xA0 SHL SUB NOT AND PUSH1 0x1 PUSH1 0x1 PUSH1 0xA0 SHL SUB DUP3 AND SWAP1 DUP2 OR DUP4 SSTORE PUSH1 0x40 MLOAD PUSH1 0x0 SWAP1 PUSH32 0x8BE0079C531659141344CD1FD0A4F28419497F9722A3DAAFE3B4186F6B6457E0 SWAP1 DUP3 SWAP1 LOG3 JUMPDEST PUSH3 0x198 PUSH4 0x7F5828D PUSH1 0xE4 SHL PUSH1 0x1 PUSH3 0x190 PUSH3 0x258 JUMP JUMPDEST SWAP2 SWAP1 PUSH3 0x288 JUMP JUMPDEST POP POP JUMP JUMPDEST PUSH3 0x1B4 PUSH4 0x80AC58CD PUSH1 0xE0 SHL PUSH1 0x1 PUSH3 0x190 PUSH3 0x258 JUMP JUMPDEST JUMP JUMPDEST PUSH1 0x0 DUP1 PUSH3 0x11B PUSH1 0x1 PUSH32 0x7EA68FD2DCF1C056B94DB6A0A537AA80D26FA9AB1EACD85DA1BA0B61B7E7A8A5 PUSH3 0x317 JUMP JUMPDEST DUP4 PUSH3 0x1F3 DUP5 DUP3 PUSH3 0x3E0 JUMP JUMPDEST POP PUSH1 0x1 DUP5 ADD PUSH3 0x204 DUP4 DUP3 PUSH3 0x3E0 JUMP JUMPDEST POP PUSH1 0x2 SWAP4 SWAP1 SWAP4 ADD DUP1 SLOAD PUSH1 0x1 PUSH1 0x1 PUSH1 0xA0 SHL SUB NOT AND PUSH1 0x1 PUSH1 0x1 PUSH1 0xA0 SHL SUB SWAP1 SWAP5 AND SWAP4 SWAP1 SWAP4 OR SWAP1 SWAP3 SSTORE POP POP JUMP JUMPDEST PUSH3 0x1B4 PUSH4 0x5B5E139F PUSH1 0xE0 SHL PUSH1 0x1 PUSH3 0x190 PUSH3 0x258 JUMP JUMPDEST PUSH3 0x1B4 PUSH4 0x8E773E13 PUSH1 0xE0 SHL PUSH1 0x1 PUSH3 0x190 JUMPDEST PUSH1 0x0 DUP1 PUSH3 0x11B PUSH1 0x1 PUSH32 0xCA9D3E17F264B0F3984E2634E94ADB37FA3E6A8103F06AEAE6FA59E21C769F5E PUSH3 0x317 JUMP JUMPDEST PUSH1 0x1 PUSH1 0xE0 SHL PUSH1 0x1 PUSH1 0x1 PUSH1 0xE0 SHL SUB NOT DUP4 AND ADD PUSH3 0x2B7 JUMPI PUSH1 0x40 MLOAD PUSH4 0x72C683BB PUSH1 0xE0 SHL DUP2 MSTORE PUSH1 0x4 ADD PUSH1 0x40 MLOAD DUP1 SWAP2 SUB SWAP1 REVERT JUMPDEST PUSH1 0x1 PUSH1 0x1 PUSH1 0xE0 SHL SUB NOT SWAP2 SWAP1 SWAP2 AND PUSH1 0x0 SWAP1 DUP2 MSTORE PUSH1 0x20 SWAP3 SWAP1 SWAP3 MSTORE PUSH1 0x40 SWAP1 SWAP2 KECCAK256 DUP1 SLOAD PUSH1 0xFF NOT AND SWAP2 ISZERO ISZERO SWAP2 SWAP1 SWAP2 OR SWAP1 SSTORE JUMP JUMPDEST PUSH1 0x0 PUSH1 0x20 DUP3 DUP5 SUB SLT ISZERO PUSH3 0x2F8 JUMPI PUSH1 0x0 DUP1 REVERT JUMPDEST DUP2 MLOAD PUSH1 0x1 PUSH1 0x1 PUSH1 0xA0 SHL SUB DUP2 AND DUP2 EQ PUSH3 0x310 JUMPI PUSH1 0x0 DUP1 REVERT JUMPDEST SWAP4 SWAP3 POP POP POP JUMP JUMPDEST DUP2 DUP2 SUB DUP2 DUP2 GT ISZERO PUSH3 0x11B JUMPI PUSH4 0x4E487B71 PUSH1 0xE0 SHL PUSH1 0x0 MSTORE PUSH1 0x11 PUSH1 0x4 MSTORE PUSH1 0x24 PUSH1 0x0 REVERT JUMPDEST PUSH4 0x4E487B71 PUSH1 0xE0 SHL PUSH1 0x0 MSTORE PUSH1 0x41 PUSH1 0x4 MSTORE PUSH1 0x24 PUSH1 0x0 REVERT JUMPDEST PUSH1 0x1 DUP2 DUP2 SHR SWAP1 DUP3 AND DUP1 PUSH3 0x364 JUMPI PUSH1 0x7F DUP3 AND SWAP2 POP JUMPDEST PUSH1 0x20 DUP3 LT DUP2 SUB PUSH3 0x385 JUMPI PUSH4 0x4E487B71 PUSH1 0xE0 SHL PUSH1 0x0 MSTORE PUSH1 0x22 PUSH1 0x4 MSTORE PUSH1 0x24 PUSH1 0x0 REVERT JUMPDEST POP SWAP2 SWAP1 POP JUMP JUMPDEST PUSH1 0x1F DUP3 GT ISZERO PUSH3 0x3DB JUMPI PUSH1 0x0 DUP2 PUSH1 0x0 MSTORE PUSH1 0x20 PUSH1 0x0 KECCAK256 PUSH1 0x1F DUP6 ADD PUSH1 0x5 SHR DUP2 ADD PUSH1 0x20 DUP7 LT ISZERO PUSH3 0x3B6 JUMPI POP DUP1 JUMPDEST PUSH1 0x1F DUP6 ADD PUSH1 0x5 SHR DUP3 ADD SWAP2 POP JUMPDEST DUP2 DUP2 LT ISZERO PUSH3 0x3D7 JUMPI DUP3 DUP2 SSTORE PUSH1 0x1 ADD PUSH3 0x3C2 JUMP JUMPDEST POP POP POP JUMPDEST POP POP POP JUMP JUMPDEST DUP2 MLOAD PUSH1 0x1 PUSH1 0x1 PUSH1 0x40 SHL SUB DUP2 GT ISZERO PUSH3 0x3FC JUMPI PUSH3 0x3FC PUSH3 0x339 JUMP JUMPDEST PUSH3 0x414 DUP2 PUSH3 0x40D DUP5 SLOAD PUSH3 0x34F JUMP JUMPDEST DUP5 PUSH3 0x38B JUMP JUMPDEST PUSH1 0x20 DUP1 PUSH1 0x1F DUP4 GT PUSH1 0x1 DUP2 EQ PUSH3 0x44C JUMPI PUSH1 0x0 DUP5 ISZERO PUSH3 0x433 JUMPI POP DUP6 DUP4 ADD MLOAD JUMPDEST PUSH1 0x0 NOT PUSH1 0x3 DUP7 SWAP1 SHL SHR NOT AND PUSH1 0x1 DUP6 SWAP1 SHL OR DUP6 SSTORE PUSH3 0x3D7 JUMP JUMPDEST PUSH1 0x0 DUP6 DUP2 MSTORE PUSH1 0x20 DUP2 KECCAK256 PUSH1 0x1F NOT DUP7 AND SWAP2 JUMPDEST DUP3 DUP2 LT ISZERO PUSH3 0x47D JUMPI DUP9 DUP7 ADD MLOAD DUP3 SSTORE SWAP5 DUP5 ADD SWAP5 PUSH1 0x1 SWAP1 SWAP2 ADD SWAP1 DUP5 ADD PUSH3 0x45C JUMP JUMPDEST POP DUP6 DUP3 LT ISZERO PUSH3 0x49C JUMPI DUP8 DUP6 ADD MLOAD PUSH1 0x0 NOT PUSH1 0x3 DUP9 SWAP1 SHL PUSH1 0xF8 AND SHR NOT AND DUP2 SSTORE JUMPDEST POP POP POP POP POP PUSH1 0x1 SWAP1 DUP2 SHL ADD SWAP1 SSTORE POP JUMP JUMPDEST PUSH2 0x232F DUP1 PUSH3 0x4BC PUSH1 0x0 CODECOPY PUSH1 0x0 RETURN INVALID PUSH1 0x80 PUSH1 0x40 MSTORE CALLVALUE DUP1 ISZERO PUSH2 0x10 JUMPI PUSH1 0x0 DUP1 REVERT JUMPDEST POP PUSH1 0x4 CALLDATASIZE LT PUSH2 0x1A3 JUMPI PUSH1 0x0 CALLDATALOAD PUSH1 0xE0 SHR DUP1 PUSH4 0x8BB9C5BF GT PUSH2 0xEE JUMPI DUP1 PUSH4 0xB88D4FDE GT PUSH2 0x97 JUMPI DUP1 PUSH4 0xD5391393 GT PUSH2 0x71 JUMPI DUP1 PUSH4 0xD5391393 EQ PUSH2 0x362 JUMPI DUP1 PUSH4 0xD547741F EQ PUSH2 0x389 JUMPI DUP1 PUSH4 0xE985E9C5 EQ PUSH2 0x39C JUMPI DUP1 PUSH4 0xF2FDE38B EQ PUSH2 0x3AF JUMPI PUSH1 0x0 DUP1 REVERT JUMPDEST DUP1 PUSH4 0xB88D4FDE EQ PUSH2 0x329 JUMPI DUP1 PUSH4 0xC77C6955 EQ PUSH2 0x33C JUMPI DUP1 PUSH4 0xC87B56DD EQ PUSH2 0x34F JUMPI PUSH1 0x0 DUP1 REVERT JUMPDEST DUP1 PUSH4 0x95D89B41 GT PUSH2 0xC8 JUMPI DUP1 PUSH4 0x95D89B41 EQ PUSH2 0x306 JUMPI DUP1 PUSH4 0xA0C76F62 EQ PUSH2 0x30E JUMPI DUP1 PUSH4 0xA22CB465 EQ PUSH2 0x316 JUMPI PUSH1 0x0 DUP1 REVERT JUMPDEST DUP1 PUSH4 0x8BB9C5BF EQ PUSH2 0x2D8 JUMPI DUP1 PUSH4 0x8DA5CB5B EQ PUSH2 0x2EB JUMPI DUP1 PUSH4 0x91D14854 EQ PUSH2 0x2F3 JUMPI PUSH1 0x0 DUP1 REVERT JUMPDEST DUP1 PUSH4 0x40C10F19 GT PUSH2 0x150 JUMPI DUP1 PUSH4 0x6352211E GT PUSH2 0x12A JUMPI DUP1 PUSH4 0x6352211E EQ PUSH2 0x291 JUMPI DUP1 PUSH4 0x70A08231 EQ PUSH2 0x2A4 JUMPI DUP1 PUSH4 0x8832E6E3 EQ PUSH2 0x2C5 JUMPI PUSH1 0x0 DUP1 REVERT JUMPDEST DUP1 PUSH4 0x40C10F19 EQ PUSH2 0x258 JUMPI DUP1 PUSH4 0x42842E0E EQ PUSH2 0x26B JUMPI DUP1 PUSH4 0x4684D7E9 EQ PUSH2 0x27E JUMPI PUSH1 0x0 DUP1 REVERT JUMPDEST DUP1 PUSH4 0x95EA7B3 GT PUSH2 0x181 JUMPI DUP1 PUSH4 0x95EA7B3 EQ PUSH2 0x21D JUMPI DUP1 PUSH4 0x23B872DD EQ PUSH2 0x232 JUMPI DUP1 PUSH4 0x2F2FF15D EQ PUSH2 0x245 JUMPI PUSH1 0x0 DUP1 REVERT JUMPDEST DUP1 PUSH4 0x1FFC9A7 EQ PUSH2 0x1A8 JUMPI DUP1 PUSH4 0x6FDDE03 EQ PUSH2 0x1D0 JUMPI DUP1 PUSH4 0x81812FC EQ PUSH2 0x1E5 JUMPI JUMPDEST PUSH1 0x0 DUP1 REVERT JUMPDEST PUSH2 0x1BB PUSH2 0x1B6 CALLDATASIZE PUSH1 0x4 PUSH2 0x1D52 JUMP JUMPDEST PUSH2 0x3C2 JUMP JUMPDEST PUSH1 0x40 MLOAD SWAP1 ISZERO ISZERO DUP2 MSTORE PUSH1 0x20 ADD JUMPDEST PUSH1 0x40 MLOAD DUP1 SWAP2 SUB SWAP1 RETURN JUMPDEST PUSH2 0x1D8 PUSH2 0x3DC JUMP JUMPDEST PUSH1 0x40 MLOAD PUSH2 0x1C7 SWAP2 SWAP1 PUSH2 0x1DDD JUMP JUMPDEST PUSH2 0x1F8 PUSH2 0x1F3 CALLDATASIZE PUSH1 0x4 PUSH2 0x1DF0 JUMP JUMPDEST PUSH2 0x3EB JUMP JUMPDEST PUSH1 0x40 MLOAD PUSH20 0xFFFFFFFFFFFFFFFFFFFFFFFFFFFFFFFFFFFFFFFF SWAP1 SWAP2 AND DUP2 MSTORE PUSH1 0x20 ADD PUSH2 0x1C7 JUMP JUMPDEST PUSH2 0x230 PUSH2 0x22B CALLDATASIZE PUSH1 0x4 PUSH2 0x1E32 JUMP JUMPDEST PUSH2 0x3FF JUMP JUMPDEST STOP JUMPDEST PUSH2 0x230 PUSH2 0x240 CALLDATASIZE PUSH1 0x4 PUSH2 0x1E5C JUMP JUMPDEST PUSH2 0x419 JUMP JUMPDEST PUSH2 0x230 PUSH2 0x253 CALLDATASIZE PUSH1 0x4 PUSH2 0x1E98 JUMP JUMPDEST PUSH2 0x436 JUMP JUMPDEST PUSH2 0x230 PUSH2 0x266 CALLDATASIZE PUSH1 0x4 PUSH2 0x1E32 JUMP JUMPDEST PUSH2 0x45F JUMP JUMPDEST PUSH2 0x230 PUSH2 0x279 CALLDATASIZE PUSH1 0x4 PUSH2 0x1E5C JUMP JUMPDEST PUSH2 0x4A8 JUMP JUMPDEST PUSH2 0x230 PUSH2 0x28C CALLDATASIZE PUSH1 0x4 PUSH2 0x1EC4 JUMP JUMPDEST PUSH2 0x4C0 JUMP JUMPDEST PUSH2 0x1F8 PUSH2 0x29F CALLDATASIZE PUSH1 0x4 PUSH2 0x1DF0 JUMP JUMPDEST PUSH2 0x532 JUMP JUMPDEST PUSH2 0x2B7 PUSH2 0x2B2 CALLDATASIZE PUSH1 0x4 PUSH2 0x1F4A JUMP JUMPDEST PUSH2 0x546 JUMP JUMPDEST PUSH1 0x40 MLOAD SWAP1 DUP2 MSTORE PUSH1 0x20 ADD PUSH2 0x1C7 JUMP JUMPDEST PUSH2 0x230 PUSH2 0x2D3 CALLDATASIZE PUSH1 0x4 PUSH2 0x1FAE JUMP JUMPDEST PUSH2 0x55A JUMP JUMPDEST PUSH2 0x230 PUSH2 0x2E6 CALLDATASIZE PUSH1 0x4 PUSH2 0x1DF0 JUMP JUMPDEST PUSH2 0x5D9 JUMP JUMPDEST PUSH2 0x1F8 PUSH2 0x5F0 JUMP JUMPDEST PUSH2 0x1BB PUSH2 0x301 CALLDATASIZE PUSH1 0x4 PUSH2 0x1E98 JUMP JUMPDEST PUSH2 0x617 JUMP JUMPDEST PUSH2 0x1D8 PUSH2 0x662 JUMP JUMPDEST PUSH2 0x1F8 PUSH2 0x66C JUMP JUMPDEST PUSH2 0x230 PUSH2 0x324 CALLDATASIZE PUSH1 0x4 PUSH2 0x2008 JUMP JUMPDEST PUSH2 0x696 JUMP JUMPDEST PUSH2 0x230 PUSH2 0x337 CALLDATASIZE PUSH1 0x4 PUSH2 0x2044 JUMP JUMPDEST PUSH2 0x6AC JUMP JUMPDEST PUSH2 0x1BB PUSH2 0x34A CALLDATASIZE PUSH1 0x4 PUSH2 0x1DF0 JUMP JUMPDEST PUSH2 0x6CF JUMP JUMPDEST PUSH2 0x1D8 PUSH2 0x35D CALLDATASIZE PUSH1 0x4 PUSH2 0x1DF0 JUMP JUMPDEST PUSH2 0x6E3 JUMP JUMPDEST PUSH2 0x2B7 PUSH32 0x6D696E7465720000000000000000000000000000000000000000000000000000 DUP2 JUMP JUMPDEST PUSH2 0x230 PUSH2 0x397 CALLDATASIZE PUSH1 0x4 PUSH2 0x1E98 JUMP JUMPDEST PUSH2 0x706 JUMP JUMPDEST PUSH2 0x1BB PUSH2 0x3AA CALLDATASIZE PUSH1 0x4 PUSH2 0x20B3 JUMP JUMPDEST PUSH2 0x729 JUMP JUMPDEST PUSH2 0x230 PUSH2 0x3BD CALLDATASIZE PUSH1 0x4 PUSH2 0x1F4A JUMP JUMPDEST PUSH2 0x777 JUMP JUMPDEST PUSH1 0x0 PUSH2 0x3D6 DUP3 PUSH2 0x3D0 PUSH2 0x78B JUMP JUMPDEST SWAP1 PUSH2 0x7B9 JUMP JUMPDEST SWAP3 SWAP2 POP POP JUMP JUMPDEST PUSH1 0x60 PUSH2 0x3E6 PUSH2 0x893 JUMP JUMPDEST SWAP1 POP SWAP1 JUMP JUMPDEST PUSH1 0x0 PUSH2 0x3D6 DUP3 PUSH2 0x3F9 PUSH2 0x8A5 JUMP JUMPDEST SWAP1 PUSH2 0x8D3 JUMP JUMPDEST PUSH2 0x415 CALLER DUP4 DUP4 PUSH2 0x40D PUSH2 0x8A5 JUMP JUMPDEST SWAP3 SWAP2 SWAP1 PUSH2 0x98C JUMP JUMPDEST POP POP JUMP JUMPDEST PUSH2 0x431 CALLER DUP5 DUP5 DUP5 PUSH2 0x428 PUSH2 0x8A5 JUMP JUMPDEST SWAP4 SWAP3 SWAP2 SWAP1 PUSH2 0xC07 JUMP JUMPDEST POP POP POP JUMP JUMPDEST CALLER PUSH2 0x449 DUP2 PUSH2 0x443 PUSH2 0xEE5 JUMP JUMPDEST SWAP1 PUSH2 0xF13 JUMP JUMPDEST PUSH2 0x431 DUP4 DUP4 DUP4 PUSH2 0x457 PUSH2 0xF7E JUMP JUMPDEST SWAP3 SWAP2 SWAP1 PUSH2 0xFAC JUMP JUMPDEST PUSH2 0x494 PUSH32 0x6D696E7465720000000000000000000000000000000000000000000000000000 CALLER JUMPDEST PUSH2 0x48D PUSH2 0xF7E JUMP JUMPDEST SWAP2 SWAP1 PUSH2 0x1082 JUMP JUMPDEST PUSH2 0x415 DUP3 DUP3 PUSH2 0x4A1 PUSH2 0x8A5 JUMP JUMPDEST SWAP2 SWAP1 PUSH2 0x1108 JUMP JUMPDEST PUSH2 0x431 CALLER DUP5 DUP5 DUP5 PUSH2 0x4B7 PUSH2 0x8A5 JUMP JUMPDEST SWAP4 SWAP3 SWAP2 SWAP1 PUSH2 0x1280 JUMP JUMPDEST PUSH2 0x4EA PUSH32 0x6D696E7465720000000000000000000000000000000000000000000000000000 CALLER PUSH2 0x485 JUMP JUMPDEST PUSH2 0x431 DUP4 DUP4 DUP4 DUP1 DUP1 PUSH1 0x20 MUL PUSH1 0x20 ADD PUSH1 0x40 MLOAD SWAP1 DUP2 ADD PUSH1 0x40 MSTORE DUP1 SWAP4 SWAP3 SWAP2 SWAP1 DUP2 DUP2 MSTORE PUSH1 0x20 ADD DUP4 DUP4 PUSH1 0x20 MUL DUP1 DUP3 DUP5 CALLDATACOPY PUSH1 0x0 SWAP3 ADD SWAP2 SWAP1 SWAP2 MSTORE POP PUSH2 0x52B SWAP3 POP PUSH2 0x8A5 SWAP2 POP POP JUMP JUMPDEST SWAP2 SWAP1 PUSH2 0x12C6 JUMP JUMPDEST PUSH1 0x0 PUSH2 0x3D6 DUP3 PUSH2 0x540 PUSH2 0x8A5 JUMP JUMPDEST SWAP1 PUSH2 0x1492 JUMP JUMPDEST PUSH1 0x0 PUSH2 0x3D6 DUP3 PUSH2 0x554 PUSH2 0x8A5 JUMP JUMPDEST SWAP1 PUSH2 0x14FB JUMP JUMPDEST PUSH2 0x584 PUSH32 0x6D696E7465720000000000000000000000000000000000000000000000000000 CALLER PUSH2 0x485 JUMP JUMPDEST PUSH2 0x5D3 CALLER DUP6 DUP6 DUP6 DUP6 DUP1 DUP1 PUSH1 0x1F ADD PUSH1 0x20 DUP1 SWAP2 DIV MUL PUSH1 0x20 ADD PUSH1 0x40 MLOAD SWAP1 DUP2 ADD PUSH1 0x40 MSTORE DUP1 SWAP4 SWAP3 SWAP2 SWAP1 DUP2 DUP2 MSTORE PUSH1 0x20 ADD DUP4 DUP4 DUP1 DUP3 DUP5 CALLDATACOPY PUSH1 0x0 SWAP3 ADD SWAP2 SWAP1 SWAP2 MSTORE POP PUSH2 0x5CA SWAP3 POP PUSH2 0x8A5 SWAP2 POP POP JUMP JUMPDEST SWAP4 SWAP3 SWAP2 SWAP1 PUSH2 0x1577 JUMP JUMPDEST POP POP POP POP JUMP JUMPDEST PUSH2 0x5ED CALLER DUP3 PUSH2 0x5E6 PUSH2 0xF7E JUMP JUMPDEST SWAP2 SWAP1 PUSH2 0x15AD JUMP JUMPDEST POP JUMP JUMPDEST PUSH1 0x0 PUSH2 0x3E6 PUSH2 0x5FD PUSH2 0xEE5 JUMP JUMPDEST SLOAD PUSH20 0xFFFFFFFFFFFFFFFFFFFFFFFFFFFFFFFFFFFFFFFF AND SWAP1 JUMP JUMPDEST PUSH1 0x0 PUSH2 0x65B DUP4 DUP4 PUSH2 0x626 PUSH2 0xF7E JUMP JUMPDEST PUSH1 0x0 SWAP3 DUP4 MSTORE PUSH1 0x20 SWAP1 DUP2 MSTORE PUSH1 0x40 DUP1 DUP5 KECCAK256 PUSH20 0xFFFFFFFFFFFFFFFFFFFFFFFFFFFFFFFFFFFFFFFF SWAP1 SWAP4 AND DUP5 MSTORE SWAP2 SWAP1 MSTORE SWAP1 KECCAK256 SLOAD PUSH1 0xFF AND SWAP1 JUMP JUMPDEST SWAP4 SWAP3 POP POP POP JUMP JUMPDEST PUSH1 0x60 PUSH2 0x3E6 PUSH2 0x1651 JUMP JUMPDEST PUSH1 0x0 PUSH2 0x3E6 PUSH2 0x679 PUSH2 0x1663 JUMP JUMPDEST PUSH1 0x2 ADD SLOAD PUSH20 0xFFFFFFFFFFFFFFFFFFFFFFFFFFFFFFFFFFFFFFFF AND SWAP1 JUMP JUMPDEST PUSH2 0x415 CALLER DUP4 DUP4 PUSH2 0x6A4 PUSH2 0x8A5 JUMP JUMPDEST SWAP3 SWAP2 SWAP1 PUSH2 0x1691 JUMP JUMPDEST PUSH2 0x6C8 CALLER DUP7 DUP7 DUP7 DUP7 DUP7 PUSH2 0x6BD PUSH2 0x8A5 JUMP JUMPDEST SWAP6 SWAP5 SWAP4 SWAP3 SWAP2 SWAP1 PUSH2 0x17A9 JUMP JUMPDEST POP POP POP POP POP JUMP JUMPDEST PUSH1 0x0 PUSH2 0x3D6 DUP3 PUSH2 0x6DD PUSH2 0x8A5 JUMP JUMPDEST SWAP1 PUSH2 0x181F JUMP JUMPDEST PUSH1 0x60 PUSH2 0x6F1 DUP3 PUSH2 0x540 PUSH2 0x8A5 JUMP JUMPDEST POP PUSH2 0x3D6 ADDRESS DUP4 PUSH2 0x6FF PUSH2 0x1663 JUMP JUMPDEST SWAP2 SWAP1 PUSH2 0x1855 JUMP JUMPDEST CALLER PUSH2 0x713 DUP2 PUSH2 0x443 PUSH2 0xEE5 JUMP JUMPDEST PUSH2 0x431 DUP4 DUP4 DUP4 PUSH2 0x721 PUSH2 0xF7E JUMP JUMPDEST SWAP3 SWAP2 SWAP1 PUSH2 0x1915 JUMP JUMPDEST PUSH1 0x0 PUSH2 0x65B DUP4 DUP4 PUSH2 0x738 PUSH2 0x8A5 JUMP JUMPDEST SWAP2 SWAP1 PUSH20 0xFFFFFFFFFFFFFFFFFFFFFFFFFFFFFFFFFFFFFFFF SWAP2 DUP3 AND PUSH1 0x0 SWAP1 DUP2 MSTORE PUSH1 0x3 SWAP4 SWAP1 SWAP4 ADD PUSH1 0x20 SWAP1 DUP2 MSTORE PUSH1 0x40 DUP1 DUP6 KECCAK256 SWAP3 SWAP1 SWAP4 AND DUP5 MSTORE MSTORE SWAP1 KECCAK256 SLOAD PUSH1 0xFF AND SWAP1 JUMP JUMPDEST PUSH2 0x5ED CALLER DUP3 PUSH2 0x784 PUSH2 0xEE5 JUMP JUMPDEST SWAP2 SWAP1 PUSH2 0x19DF JUMP JUMPDEST PUSH1 0x0 DUP1 PUSH2 0x3D6 PUSH1 0x1 PUSH32 0xCA9D3E17F264B0F3984E2634E94ADB37FA3E6A8103F06AEAE6FA59E21C769F5E PUSH2 0x20DD JUMP JUMPDEST PUSH1 0x0 PUSH29 0x100000000000000000000000000000000000000000000000000000000 PUSH32 0xFFFFFFFF00000000000000000000000000000000000000000000000000000000 DUP4 AND ADD PUSH2 0x809 JUMPI POP PUSH1 0x0 PUSH2 0x3D6 JUMP JUMPDEST PUSH32 0xFE00365900000000000000000000000000000000000000000000000000000000 PUSH32 0xFFFFFFFF00000000000000000000000000000000000000000000000000000000 DUP4 AND ADD PUSH2 0x85A JUMPI POP PUSH1 0x1 PUSH2 0x3D6 JUMP JUMPDEST POP PUSH32 0xFFFFFFFF00000000000000000000000000000000000000000000000000000000 AND PUSH1 0x0 SWAP1 DUP2 MSTORE PUSH1 0x20 SWAP2 SWAP1 SWAP2 MSTORE PUSH1 0x40 SWAP1 KECCAK256 SLOAD PUSH1 0xFF AND SWAP1 JUMP JUMPDEST PUSH1 0x60 PUSH2 0x3E6 PUSH2 0x8A0 PUSH2 0x1663 JUMP JUMPDEST PUSH2 0x1AF3 JUMP JUMPDEST PUSH1 0x0 DUP1 PUSH2 0x3D6 PUSH1 0x1 PUSH32 0xDDF3EE18AE6D688373C219468F8BE446E7AE82215F4779D821C7EA5E8C13C0C1 PUSH2 0x20DD JUMP JUMPDEST PUSH1 0x0 DUP2 DUP2 MSTORE PUSH1 0x20 DUP4 SWAP1 MSTORE PUSH1 0x40 DUP2 KECCAK256 SLOAD PUSH20 0xFFFFFFFFFFFFFFFFFFFFFFFFFFFFFFFFFFFFFFFF DUP2 AND PUSH2 0x937 JUMPI PUSH1 0x40 MLOAD PUSH32 0xDD56047500000000000000000000000000000000000000000000000000000000 DUP2 MSTORE PUSH1 0x4 DUP2 ADD DUP5 SWAP1 MSTORE PUSH1 0x24 ADD JUMPDEST PUSH1 0x40 MLOAD DUP1 SWAP2 SUB SWAP1 REVERT JUMPDEST PUSH21 0x10000000000000000000000000000000000000000 DUP2 AND ISZERO PUSH2 0x982 JUMPI POP POP PUSH1 0x0 DUP2 DUP2 MSTORE PUSH1 0x2 DUP4 ADD PUSH1 0x20 MSTORE PUSH1 0x40 SWAP1 KECCAK256 SLOAD PUSH20 0xFFFFFFFFFFFFFFFFFFFFFFFFFFFFFFFFFFFFFFFF AND PUSH2 0x3D6 JUMP JUMPDEST PUSH1 0x0 SWAP2 POP POP PUSH2 0x3D6 JUMP JUMPDEST PUSH1 0x0 DUP2 DUP2 MSTORE PUSH1 0x20 DUP6 SWAP1 MSTORE PUSH1 0x40 SWAP1 KECCAK256 SLOAD PUSH20 0xFFFFFFFFFFFFFFFFFFFFFFFFFFFFFFFFFFFFFFFF DUP2 AND PUSH2 0x9EB JUMPI PUSH1 0x40 MLOAD PUSH32 0xDD56047500000000000000000000000000000000000000000000000000000000 DUP2 MSTORE PUSH1 0x4 DUP2 ADD DUP4 SWAP1 MSTORE PUSH1 0x24 ADD PUSH2 0x92E JUMP JUMPDEST DUP1 PUSH20 0xFFFFFFFFFFFFFFFFFFFFFFFFFFFFFFFFFFFFFFFF DUP1 DUP3 AND SWAP1 DUP6 AND SUB PUSH2 0xA56 JUMPI PUSH1 0x40 MLOAD PUSH32 0xB7FDC01000000000000000000000000000000000000000000000000000000000 DUP2 MSTORE PUSH20 0xFFFFFFFFFFFFFFFFFFFFFFFFFFFFFFFFFFFFFFFF DUP3 AND PUSH1 0x4 DUP3 ADD MSTORE PUSH1 0x24 ADD PUSH2 0x92E JUMP JUMPDEST PUSH2 0xA61 DUP7 DUP3 DUP8 PUSH2 0x1B89 JUMP JUMPDEST PUSH2 0xABE JUMPI PUSH1 0x40 MLOAD PUSH32 0xC7563A1800000000000000000000000000000000000000000000000000000000 DUP2 MSTORE PUSH20 0xFFFFFFFFFFFFFFFFFFFFFFFFFFFFFFFFFFFFFFFF DUP1 DUP8 AND PUSH1 0x4 DUP4 ADD MSTORE DUP3 AND PUSH1 0x24 DUP3 ADD MSTORE PUSH1 0x44 DUP2 ADD DUP5 SWAP1 MSTORE PUSH1 0x64 ADD PUSH2 0x92E JUMP JUMPDEST PUSH20 0xFFFFFFFFFFFFFFFFFFFFFFFFFFFFFFFFFFFFFFFF DUP5 AND PUSH2 0xB23 JUMPI PUSH21 0x10000000000000000000000000000000000000000 DUP3 AND ISZERO PUSH2 0xB1E JUMPI PUSH1 0x0 DUP4 DUP2 MSTORE PUSH1 0x20 DUP8 SWAP1 MSTORE PUSH1 0x40 SWAP1 KECCAK256 PUSH20 0xFFFFFFFFFFFFFFFFFFFFFFFFFFFFFFFFFFFFFFFF DUP3 AND SWAP1 SSTORE JUMPDEST PUSH2 0xBA4 JUMP JUMPDEST PUSH21 0x10000000000000000000000000000000000000000 DUP3 OR DUP1 DUP4 EQ PUSH2 0xB54 JUMPI PUSH1 0x0 DUP5 DUP2 MSTORE PUSH1 0x20 DUP9 SWAP1 MSTORE PUSH1 0x40 SWAP1 KECCAK256 DUP2 SWAP1 SSTORE JUMPDEST POP PUSH1 0x0 DUP4 DUP2 MSTORE PUSH1 0x2 DUP8 ADD PUSH1 0x20 MSTORE PUSH1 0x40 SWAP1 KECCAK256 DUP1 SLOAD PUSH32 0xFFFFFFFFFFFFFFFFFFFFFFFF0000000000000000000000000000000000000000 AND PUSH20 0xFFFFFFFFFFFFFFFFFFFFFFFFFFFFFFFFFFFFFFFF DUP7 AND OR SWAP1 SSTORE JUMPDEST DUP3 DUP5 PUSH20 0xFFFFFFFFFFFFFFFFFFFFFFFFFFFFFFFFFFFFFFFF AND DUP3 PUSH20 0xFFFFFFFFFFFFFFFFFFFFFFFFFFFFFFFFFFFFFFFF AND PUSH32 0x8C5BE1E5EBEC7D5BD14F71427D1E84F3DD0314C0F7B2291E5B200AC8C7C3B925 PUSH1 0x40 MLOAD PUSH1 0x40 MLOAD DUP1 SWAP2 SUB SWAP1 LOG4 POP POP POP POP POP POP JUMP JUMPDEST PUSH20 0xFFFFFFFFFFFFFFFFFFFFFFFFFFFFFFFFFFFFFFFF DUP3 AND PUSH2 0xC54 JUMPI PUSH1 0x40 MLOAD PUSH32 0x86C8706700000000000000000000000000000000000000000000000000000000 DUP2 MSTORE PUSH1 0x4 ADD PUSH1 0x40 MLOAD DUP1 SWAP2 SUB SWAP1 REVERT JUMPDEST PUSH1 0x0 DUP2 DUP2 MSTORE PUSH1 0x20 DUP7 SWAP1 MSTORE PUSH1 0x40 SWAP1 KECCAK256 SLOAD PUSH20 0xFFFFFFFFFFFFFFFFFFFFFFFFFFFFFFFFFFFFFFFF DUP2 AND PUSH2 0xCB3 JUMPI PUSH1 0x40 MLOAD PUSH32 0xDD56047500000000000000000000000000000000000000000000000000000000 DUP2 MSTORE PUSH1 0x4 DUP2 ADD DUP4 SWAP1 MSTORE PUSH1 0x24 ADD PUSH2 0x92E JUMP JUMPDEST PUSH20 0xFFFFFFFFFFFFFFFFFFFFFFFFFFFFFFFFFFFFFFFF DUP5 AND DUP2 PUSH20 0xFFFFFFFFFFFFFFFFFFFFFFFFFFFFFFFFFFFFFFFF AND EQ PUSH2 0xD37 JUMPI PUSH1 0x40 MLOAD PUSH32 0x14DBB53600000000000000000000000000000000000000000000000000000000 DUP2 MSTORE PUSH20 0xFFFFFFFFFFFFFFFFFFFFFFFFFFFFFFFFFFFFFFFF DUP6 AND PUSH1 0x4 DUP3 ADD MSTORE PUSH1 0x24 DUP2 ADD DUP4 SWAP1 MSTORE PUSH1 0x44 ADD PUSH2 0x92E JUMP JUMPDEST PUSH2 0xD42 DUP7 DUP6 DUP8 PUSH2 0x1B89 JUMP JUMPDEST PUSH2 0xDF1 JUMPI PUSH21 0x10000000000000000000000000000000000000000 DUP2 AND ISZERO DUP1 PUSH2 0xD93 JUMPI POP PUSH1 0x0 DUP3 DUP2 MSTORE PUSH1 0x2 DUP8 ADD PUSH1 0x20 MSTORE PUSH1 0x40 SWAP1 KECCAK256 SLOAD PUSH20 0xFFFFFFFFFFFFFFFFFFFFFFFFFFFFFFFFFFFFFFFF DUP7 DUP2 AND SWAP2 AND EQ ISZERO JUMPDEST ISZERO PUSH2 0xDF1 JUMPI PUSH1 0x40 MLOAD PUSH32 0xA4A3018B00000000000000000000000000000000000000000000000000000000 DUP2 MSTORE PUSH20 0xFFFFFFFFFFFFFFFFFFFFFFFFFFFFFFFFFFFFFFFF DUP1 DUP8 AND PUSH1 0x4 DUP4 ADD MSTORE DUP6 AND PUSH1 0x24 DUP3 ADD MSTORE PUSH1 0x44 DUP2 ADD DUP4 SWAP1 MSTORE PUSH1 0x64 ADD PUSH2 0x92E JUMP JUMPDEST PUSH1 0x0 DUP3 DUP2 MSTORE PUSH1 0x20 DUP8 SWAP1 MSTORE PUSH1 0x40 SWAP1 KECCAK256 PUSH20 0xFFFFFFFFFFFFFFFFFFFFFFFFFFFFFFFFFFFFFFFF DUP1 DUP6 AND SWAP2 DUP3 SWAP1 SSTORE DUP6 AND EQ PUSH2 0xE82 JUMPI PUSH20 0xFFFFFFFFFFFFFFFFFFFFFFFFFFFFFFFFFFFFFFFF DUP1 DUP6 AND PUSH1 0x0 SWAP1 DUP2 MSTORE PUSH1 0x1 DUP1 DUP10 ADD PUSH1 0x20 MSTORE PUSH1 0x40 DUP1 DUP4 KECCAK256 DUP1 SLOAD PUSH32 0xFFFFFFFFFFFFFFFFFFFFFFFFFFFFFFFFFFFFFFFFFFFFFFFFFFFFFFFFFFFFFFFF ADD SWAP1 SSTORE SWAP3 DUP7 AND DUP3 MSTORE SWAP2 SWAP1 KECCAK256 DUP1 SLOAD SWAP1 SWAP2 ADD SWAP1 SSTORE JUMPDEST DUP2 DUP4 PUSH20 0xFFFFFFFFFFFFFFFFFFFFFFFFFFFFFFFFFFFFFFFF AND DUP6 PUSH20 0xFFFFFFFFFFFFFFFFFFFFFFFFFFFFFFFFFFFFFFFF AND PUSH32 0xDDF252AD1BE2C89B69C2B068FC378DAA952BA7F163C4A11628F55A4DF523B3EF PUSH1 0x40 MLOAD PUSH1 0x40 MLOAD DUP1 SWAP2 SUB SWAP1 LOG4 POP POP POP POP POP POP JUMP JUMPDEST PUSH1 0x0 DUP1 PUSH2 0x3D6 PUSH1 0x1 PUSH32 0xC9ED16F33AB3A66C84BFD83099CCB2A8845871E2E1C1928F63797152F0FD54CD PUSH2 0x20DD JUMP JUMPDEST DUP2 SLOAD PUSH20 0xFFFFFFFFFFFFFFFFFFFFFFFFFFFFFFFFFFFFFFFF DUP3 DUP2 AND SWAP2 AND EQ PUSH2 0x415 JUMPI PUSH1 0x40 MLOAD PUSH32 0x2EF4875E00000000000000000000000000000000000000000000000000000000 DUP2 MSTORE PUSH20 0xFFFFFFFFFFFFFFFFFFFFFFFFFFFFFFFFFFFFFFFF DUP3 AND PUSH1 0x4 DUP3 ADD MSTORE PUSH1 0x24 ADD PUSH2 0x92E JUMP JUMPDEST PUSH1 0x0 DUP1 PUSH2 0x3D6 PUSH1 0x1 PUSH32 0xC8827D3282AF6F37B64C3E9E6F3AC9DF286AB0BB0FCCD6F8661BF19ADB368B23 PUSH2 0x20DD JUMP JUMPDEST PUSH1 0x0 DUP4 DUP2 MSTORE PUSH1 0x20 DUP6 DUP2 MSTORE PUSH1 0x40 DUP1 DUP4 KECCAK256 PUSH20 0xFFFFFFFFFFFFFFFFFFFFFFFFFFFFFFFFFFFFFFFF DUP7 AND DUP5 MSTORE SWAP1 SWAP2 MSTORE SWAP1 KECCAK256 SLOAD PUSH1 0xFF AND PUSH2 0x5D3 JUMPI PUSH1 0x0 DUP4 DUP2 MSTORE PUSH1 0x20 DUP6 DUP2 MSTORE PUSH1 0x40 DUP1 DUP4 KECCAK256 PUSH20 0xFFFFFFFFFFFFFFFFFFFFFFFFFFFFFFFFFFFFFFFF DUP7 DUP2 AND DUP1 DUP7 MSTORE SWAP2 DUP5 MSTORE SWAP4 DUP3 SWAP1 KECCAK256 DUP1 SLOAD PUSH32 0xFFFFFFFFFFFFFFFFFFFFFFFFFFFFFFFFFFFFFFFFFFFFFFFFFFFFFFFFFFFFFF00 AND PUSH1 0x1 OR SWAP1 SSTORE DUP2 MLOAD DUP8 DUP2 MSTORE SWAP3 DUP4 ADD MSTORE SWAP2 DUP4 AND SWAP2 DUP2 ADD SWAP2 SWAP1 SWAP2 MSTORE PUSH32 0x2F8788117E7EFF1D82E926EC794901D17C78024A50270940304540A733656F0D SWAP1 PUSH1 0x60 ADD JUMPDEST PUSH1 0x40 MLOAD DUP1 SWAP2 SUB SWAP1 LOG1 POP POP POP POP JUMP JUMPDEST PUSH1 0x0 DUP3 DUP2 MSTORE PUSH1 0x20 DUP5 DUP2 MSTORE PUSH1 0x40 DUP1 DUP4 KECCAK256 PUSH20 0xFFFFFFFFFFFFFFFFFFFFFFFFFFFFFFFFFFFFFFFF DUP6 AND DUP5 MSTORE SWAP1 SWAP2 MSTORE SWAP1 KECCAK256 SLOAD PUSH1 0xFF AND PUSH2 0x431 JUMPI PUSH1 0x40 MLOAD PUSH32 0x7AA7288200000000000000000000000000000000000000000000000000000000 DUP2 MSTORE PUSH1 0x4 DUP2 ADD DUP4 SWAP1 MSTORE PUSH20 0xFFFFFFFFFFFFFFFFFFFFFFFFFFFFFFFFFFFFFFFF DUP3 AND PUSH1 0x24 DUP3 ADD MSTORE PUSH1 0x44 ADD PUSH2 0x92E JUMP JUMPDEST PUSH20 0xFFFFFFFFFFFFFFFFFFFFFFFFFFFFFFFFFFFFFFFF DUP3 AND PUSH2 0x1155 JUMPI PUSH1 0x40 MLOAD PUSH32 0x7851B9CD00000000000000000000000000000000000000000000000000000000 DUP2 MSTORE PUSH1 0x4 ADD PUSH1 0x40 MLOAD DUP1 SWAP2 SUB SWAP1 REVERT JUMPDEST PUSH1 0x0 DUP2 DUP2 MSTORE PUSH1 0x20 DUP5 SWAP1 MSTORE PUSH1 0x40 SWAP1 KECCAK256 SLOAD PUSH20 0xFFFFFFFFFFFFFFFFFFFFFFFFFFFFFFFFFFFFFFFF DUP2 AND ISZERO PUSH2 0x11B5 JUMPI PUSH1 0x40 MLOAD PUSH32 0x753ECEAC00000000000000000000000000000000000000000000000000000000 DUP2 MSTORE PUSH1 0x4 DUP2 ADD DUP4 SWAP1 MSTORE PUSH1 0x24 ADD PUSH2 0x92E JUMP JUMPDEST PUSH32 0xDEAD000000000000000000000000000000000000000000000000000000000000 DUP2 SUB PUSH2 0x1211 JUMPI PUSH1 0x40 MLOAD PUSH32 0x31E8D3D500000000000000000000000000000000000000000000000000000000 DUP2 MSTORE PUSH1 0x4 DUP2 ADD DUP4 SWAP1 MSTORE PUSH1 0x24 ADD PUSH2 0x92E JUMP JUMPDEST PUSH1 0x0 DUP3 DUP2 MSTORE PUSH1 0x20 DUP6 DUP2 MSTORE PUSH1 0x40 DUP1 DUP4 KECCAK256 PUSH20 0xFFFFFFFFFFFFFFFFFFFFFFFFFFFFFFFFFFFFFFFF DUP8 AND SWAP1 DUP2 SWAP1 SSTORE DUP1 DUP5 MSTORE PUSH1 0x1 DUP1 DUP10 ADD SWAP1 SWAP4 MSTORE DUP2 DUP5 KECCAK256 DUP1 SLOAD SWAP1 SWAP4 ADD SWAP1 SWAP3 SSTORE MLOAD DUP5 SWAP3 SWAP1 PUSH32 0xDDF252AD1BE2C89B69C2B068FC378DAA952BA7F163C4A11628F55A4DF523B3EF SWAP1 DUP3 SWAP1 LOG4 POP POP POP POP JUMP JUMPDEST PUSH2 0x128D DUP6 DUP6 DUP6 DUP6 DUP6 PUSH2 0xC07 JUMP JUMPDEST PUSH20 0xFFFFFFFFFFFFFFFFFFFFFFFFFFFFFFFFFFFFFFFF DUP3 AND EXTCODESIZE ISZERO PUSH2 0x6C8 JUMPI PUSH2 0x6C8 DUP5 DUP5 DUP5 DUP5 PUSH1 0x40 MLOAD DUP1 PUSH1 0x20 ADD PUSH1 0x40 MSTORE DUP1 PUSH1 0x0 DUP2 MSTORE POP PUSH2 0x1BFE JUMP JUMPDEST PUSH20 0xFFFFFFFFFFFFFFFFFFFFFFFFFFFFFFFFFFFFFFFF DUP3 AND PUSH2 0x1313 JUMPI PUSH1 0x40 MLOAD PUSH32 0x7851B9CD00000000000000000000000000000000000000000000000000000000 DUP2 MSTORE PUSH1 0x4 ADD PUSH1 0x40 MLOAD DUP1 SWAP2 SUB SWAP1 REVERT JUMPDEST DUP1 MLOAD PUSH1 0x0 JUMPDEST DUP2 DUP2 LT ISZERO PUSH2 0x145D JUMPI PUSH1 0x0 DUP4 DUP3 DUP2 MLOAD DUP2 LT PUSH2 0x1334 JUMPI PUSH2 0x1334 PUSH2 0x2117 JUMP JUMPDEST PUSH1 0x20 SWAP1 DUP2 MUL SWAP2 SWAP1 SWAP2 ADD DUP2 ADD MLOAD PUSH1 0x0 DUP2 DUP2 MSTORE SWAP2 DUP9 SWAP1 MSTORE PUSH1 0x40 SWAP1 SWAP2 KECCAK256 SLOAD SWAP1 SWAP2 POP PUSH20 0xFFFFFFFFFFFFFFFFFFFFFFFFFFFFFFFFFFFFFFFF DUP2 AND ISZERO PUSH2 0x13A3 JUMPI PUSH1 0x40 MLOAD PUSH32 0x753ECEAC00000000000000000000000000000000000000000000000000000000 DUP2 MSTORE PUSH1 0x4 DUP2 ADD DUP4 SWAP1 MSTORE PUSH1 0x24 ADD PUSH2 0x92E JUMP JUMPDEST PUSH32 0xDEAD000000000000000000000000000000000000000000000000000000000000 DUP2 SUB PUSH2 0x13FF JUMPI PUSH1 0x40 MLOAD PUSH32 0x31E8D3D500000000000000000000000000000000000000000000000000000000 DUP2 MSTORE PUSH1 0x4 DUP2 ADD DUP4 SWAP1 MSTORE PUSH1 0x24 ADD PUSH2 0x92E JUMP JUMPDEST PUSH1 0x0 DUP3 DUP2 MSTORE PUSH1 0x20 DUP9 SWAP1 MSTORE PUSH1 0x40 DUP1 DUP3 KECCAK256 PUSH20 0xFFFFFFFFFFFFFFFFFFFFFFFFFFFFFFFFFFFFFFFF DUP10 AND SWAP1 DUP2 SWAP1 SSTORE SWAP1 MLOAD DUP5 SWAP3 SWAP1 PUSH32 0xDDF252AD1BE2C89B69C2B068FC378DAA952BA7F163C4A11628F55A4DF523B3EF SWAP1 DUP3 SWAP1 LOG4 POP POP PUSH1 0x1 ADD PUSH2 0x1318 JUMP JUMPDEST POP PUSH20 0xFFFFFFFFFFFFFFFFFFFFFFFFFFFFFFFFFFFFFFFF SWAP1 SWAP3 AND PUSH1 0x0 SWAP1 DUP2 MSTORE PUSH1 0x1 SWAP1 SWAP4 ADD PUSH1 0x20 MSTORE POP PUSH1 0x40 SWAP1 SWAP2 KECCAK256 DUP1 SLOAD SWAP1 SWAP2 ADD SWAP1 SSTORE JUMP JUMPDEST PUSH1 0x0 DUP2 DUP2 MSTORE PUSH1 0x20 DUP4 SWAP1 MSTORE PUSH1 0x40 DUP2 KECCAK256 SLOAD PUSH20 0xFFFFFFFFFFFFFFFFFFFFFFFFFFFFFFFFFFFFFFFF DUP2 AND PUSH2 0x14F1 JUMPI PUSH1 0x40 MLOAD PUSH32 0xDD56047500000000000000000000000000000000000000000000000000000000 DUP2 MSTORE PUSH1 0x4 DUP2 ADD DUP5 SWAP1 MSTORE PUSH1 0x24 ADD PUSH2 0x92E JUMP JUMPDEST DUP1 JUMPDEST SWAP5 SWAP4 POP POP POP POP JUMP JUMPDEST PUSH1 0x0 PUSH20 0xFFFFFFFFFFFFFFFFFFFFFFFFFFFFFFFFFFFFFFFF DUP3 AND PUSH2 0x154A JUMPI PUSH1 0x40 MLOAD PUSH32 0xAEFBCE4E00000000000000000000000000000000000000000000000000000000 DUP2 MSTORE PUSH1 0x4 ADD PUSH1 0x40 MLOAD DUP1 SWAP2 SUB SWAP1 REVERT JUMPDEST POP PUSH20 0xFFFFFFFFFFFFFFFFFFFFFFFFFFFFFFFFFFFFFFFF AND PUSH1 0x0 SWAP1 DUP2 MSTORE PUSH1 0x1 SWAP2 SWAP1 SWAP2 ADD PUSH1 0x20 MSTORE PUSH1 0x40 SWAP1 KECCAK256 SLOAD SWAP1 JUMP JUMPDEST PUSH2 0x1582 DUP6 DUP5 DUP5 PUSH2 0x1108 JUMP JUMPDEST PUSH20 0xFFFFFFFFFFFFFFFFFFFFFFFFFFFFFFFFFFFFFFFF DUP4 AND EXTCODESIZE ISZERO PUSH2 0x6C8 JUMPI PUSH2 0x6C8 DUP5 PUSH1 0x0 DUP6 DUP6 DUP6 PUSH2 0x1BFE JUMP JUMPDEST PUSH2 0x15B8 DUP4 DUP3 DUP5 PUSH2 0x1082 JUMP JUMPDEST PUSH1 0x0 DUP2 DUP2 MSTORE PUSH1 0x20 DUP5 DUP2 MSTORE PUSH1 0x40 DUP1 DUP4 KECCAK256 PUSH20 0xFFFFFFFFFFFFFFFFFFFFFFFFFFFFFFFFFFFFFFFF DUP7 AND DUP1 DUP6 MSTORE SWAP1 DUP4 MSTORE SWAP3 DUP2 SWAP1 KECCAK256 DUP1 SLOAD PUSH32 0xFFFFFFFFFFFFFFFFFFFFFFFFFFFFFFFFFFFFFFFFFFFFFFFFFFFFFFFFFFFFFF00 AND SWAP1 SSTORE DUP1 MLOAD DUP5 DUP2 MSTORE SWAP2 DUP3 ADD DUP4 SWAP1 MSTORE DUP2 ADD SWAP2 SWAP1 SWAP2 MSTORE PUSH32 0xF6391F5C32D9C69D2A47EA670B442974B53935D1EDC7FD64EB21E047A839171B SWAP1 PUSH1 0x60 ADD PUSH1 0x40 MLOAD DUP1 SWAP2 SUB SWAP1 LOG1 POP POP POP JUMP JUMPDEST PUSH1 0x60 PUSH2 0x3E6 PUSH2 0x165E PUSH2 0x1663 JUMP JUMPDEST PUSH2 0x1D13 JUMP JUMPDEST PUSH1 0x0 DUP1 PUSH2 0x3D6 PUSH1 0x1 PUSH32 0x7EA68FD2DCF1C056B94DB6A0A537AA80D26FA9AB1EACD85DA1BA0B61B7E7A8A5 PUSH2 0x20DD JUMP JUMPDEST DUP3 PUSH20 0xFFFFFFFFFFFFFFFFFFFFFFFFFFFFFFFFFFFFFFFF AND DUP3 PUSH20 0xFFFFFFFFFFFFFFFFFFFFFFFFFFFFFFFFFFFFFFFF AND SUB PUSH2 0x170E JUMPI PUSH1 0x40 MLOAD PUSH32 0xE4215C6A00000000000000000000000000000000000000000000000000000000 DUP2 MSTORE PUSH20 0xFFFFFFFFFFFFFFFFFFFFFFFFFFFFFFFFFFFFFFFF DUP5 AND PUSH1 0x4 DUP3 ADD MSTORE PUSH1 0x24 ADD PUSH2 0x92E JUMP JUMPDEST PUSH20 0xFFFFFFFFFFFFFFFFFFFFFFFFFFFFFFFFFFFFFFFF DUP4 DUP2 AND PUSH1 0x0 DUP2 DUP2 MSTORE PUSH1 0x3 DUP8 ADD PUSH1 0x20 SWAP1 DUP2 MSTORE PUSH1 0x40 DUP1 DUP4 KECCAK256 SWAP5 DUP8 AND DUP1 DUP5 MSTORE SWAP5 DUP3 MSTORE SWAP2 DUP3 SWAP1 KECCAK256 DUP1 SLOAD PUSH32 0xFFFFFFFFFFFFFFFFFFFFFFFFFFFFFFFFFFFFFFFFFFFFFFFFFFFFFFFFFFFFFF00 AND DUP7 ISZERO ISZERO SWAP1 DUP2 OR SWAP1 SWAP2 SSTORE SWAP2 MLOAD SWAP2 DUP3 MSTORE PUSH32 0x17307EAB39AB6107E8899845AD3D59BD9653F200F220920489CA2B5937696C31 SWAP2 ADD PUSH1 0x40 MLOAD DUP1 SWAP2 SUB SWAP1 LOG3 POP POP POP POP JUMP JUMPDEST PUSH2 0x17B6 DUP8 DUP8 DUP8 DUP8 DUP8 PUSH2 0xC07 JUMP JUMPDEST PUSH20 0xFFFFFFFFFFFFFFFFFFFFFFFFFFFFFFFFFFFFFFFF DUP5 AND EXTCODESIZE ISZERO PUSH2 0x1816 JUMPI PUSH2 0x1816 DUP7 DUP7 DUP7 DUP7 DUP7 DUP7 DUP1 DUP1 PUSH1 0x1F ADD PUSH1 0x20 DUP1 SWAP2 DIV MUL PUSH1 0x20 ADD PUSH1 0x40 MLOAD SWAP1 DUP2 ADD PUSH1 0x40 MSTORE DUP1 SWAP4 SWAP3 SWAP2 SWAP1 DUP2 DUP2 MSTORE PUSH1 0x20 ADD DUP4 DUP4 DUP1 DUP3 DUP5 CALLDATACOPY PUSH1 0x0 SWAP3 ADD SWAP2 SWAP1 SWAP2 MSTORE POP PUSH2 0x1BFE SWAP3 POP POP POP JUMP JUMPDEST POP POP POP POP POP POP POP JUMP JUMPDEST PUSH1 0x0 DUP2 DUP2 MSTORE PUSH1 0x20 DUP4 SWAP1 MSTORE PUSH1 0x40 DUP2 KECCAK256 SLOAD PUSH32 0xDEAD000000000000000000000000000000000000000000000000000000000000 EQ PUSH2 0x65B JUMP JUMPDEST PUSH1 0x2 DUP4 ADD SLOAD PUSH1 0x40 MLOAD PUSH32 0xF724DAD700000000000000000000000000000000000000000000000000000000 DUP2 MSTORE PUSH20 0xFFFFFFFFFFFFFFFFFFFFFFFFFFFFFFFFFFFFFFFF DUP5 DUP2 AND PUSH1 0x4 DUP4 ADD MSTORE PUSH1 0x24 DUP3 ADD DUP5 SWAP1 MSTORE PUSH1 0x60 SWAP3 AND SWAP1 PUSH4 0xF724DAD7 SWAP1 PUSH1 0x44 ADD PUSH1 0x0 PUSH1 0x40 MLOAD DUP1 DUP4 SUB DUP2 DUP7 GAS STATICCALL ISZERO DUP1 ISZERO PUSH2 0x18CF JUMPI RETURNDATASIZE PUSH1 0x0 DUP1 RETURNDATACOPY RETURNDATASIZE PUSH1 0x0 REVERT JUMPDEST POP POP POP POP PUSH1 0x40 MLOAD RETURNDATASIZE PUSH1 0x0 DUP3 RETURNDATACOPY PUSH1 0x1F RETURNDATASIZE SWAP1 DUP2 ADD PUSH32 0xFFFFFFFFFFFFFFFFFFFFFFFFFFFFFFFFFFFFFFFFFFFFFFFFFFFFFFFFFFFFFFE0 AND DUP3 ADD PUSH1 0x40 MSTORE PUSH2 0x14F3 SWAP2 SWAP1 DUP2 ADD SWAP1 PUSH2 0x2175 JUMP JUMPDEST PUSH1 0x0 DUP4 DUP2 MSTORE PUSH1 0x20 DUP6 DUP2 MSTORE PUSH1 0x40 DUP1 DUP4 KECCAK256 PUSH20 0xFFFFFFFFFFFFFFFFFFFFFFFFFFFFFFFFFFFFFFFF DUP7 AND DUP5 MSTORE SWAP1 SWAP2 MSTORE SWAP1 KECCAK256 SLOAD PUSH1 0xFF AND ISZERO PUSH2 0x5D3 JUMPI PUSH1 0x0 DUP4 DUP2 MSTORE PUSH1 0x20 DUP6 DUP2 MSTORE PUSH1 0x40 DUP1 DUP4 KECCAK256 PUSH20 0xFFFFFFFFFFFFFFFFFFFFFFFFFFFFFFFFFFFFFFFF DUP7 DUP2 AND DUP1 DUP7 MSTORE SWAP2 DUP5 MSTORE SWAP4 DUP3 SWAP1 KECCAK256 DUP1 SLOAD PUSH32 0xFFFFFFFFFFFFFFFFFFFFFFFFFFFFFFFFFFFFFFFFFFFFFFFFFFFFFFFFFFFFFF00 AND SWAP1 SSTORE DUP2 MLOAD DUP8 DUP2 MSTORE SWAP3 DUP4 ADD MSTORE SWAP2 DUP4 AND SWAP2 DUP2 ADD SWAP2 SWAP1 SWAP2 MSTORE PUSH32 0xF6391F5C32D9C69D2A47EA670B442974B53935D1EDC7FD64EB21E047A839171B SWAP1 PUSH1 0x60 ADD PUSH2 0x1074 JUMP JUMPDEST DUP3 SLOAD PUSH20 0xFFFFFFFFFFFFFFFFFFFFFFFFFFFFFFFFFFFFFFFF SWAP1 DUP2 AND SWAP1 DUP4 AND DUP2 EQ PUSH2 0x1A4C JUMPI PUSH1 0x40 MLOAD PUSH32 0x2EF4875E00000000000000000000000000000000000000000000000000000000 DUP2 MSTORE PUSH20 0xFFFFFFFFFFFFFFFFFFFFFFFFFFFFFFFFFFFFFFFF DUP5 AND PUSH1 0x4 DUP3 ADD MSTORE PUSH1 0x24 ADD PUSH2 0x92E JUMP JUMPDEST DUP2 PUSH20 0xFFFFFFFFFFFFFFFFFFFFFFFFFFFFFFFFFFFFFFFF AND DUP2 PUSH20 0xFFFFFFFFFFFFFFFFFFFFFFFFFFFFFFFFFFFFFFFF AND EQ PUSH2 0x5D3 JUMPI DUP4 SLOAD PUSH32 0xFFFFFFFFFFFFFFFFFFFFFFFF0000000000000000000000000000000000000000 AND PUSH20 0xFFFFFFFFFFFFFFFFFFFFFFFFFFFFFFFFFFFFFFFF DUP4 DUP2 AND SWAP2 DUP3 OR DUP7 SSTORE PUSH1 0x40 MLOAD SWAP1 DUP4 AND SWAP1 PUSH32 0x8BE0079C531659141344CD1FD0A4F28419497F9722A3DAAFE3B4186F6B6457E0 SWAP1 PUSH1 0x0 SWAP1 LOG3 POP POP POP POP JUMP JUMPDEST PUSH1 0x60 DUP2 PUSH1 0x0 ADD DUP1 SLOAD PUSH2 0x1B04 SWAP1 PUSH2 0x2240 JUMP JUMPDEST DUP1 PUSH1 0x1F ADD PUSH1 0x20 DUP1 SWAP2 DIV MUL PUSH1 0x20 ADD PUSH1 0x40 MLOAD SWAP1 DUP2 ADD PUSH1 0x40 MSTORE DUP1 SWAP3 SWAP2 SWAP1 DUP2 DUP2 MSTORE PUSH1 0x20 ADD DUP3 DUP1 SLOAD PUSH2 0x1B30 SWAP1 PUSH2 0x2240 JUMP JUMPDEST DUP1 ISZERO PUSH2 0x1B7D JUMPI DUP1 PUSH1 0x1F LT PUSH2 0x1B52 JUMPI PUSH2 0x100 DUP1 DUP4 SLOAD DIV MUL DUP4 MSTORE SWAP2 PUSH1 0x20 ADD SWAP2 PUSH2 0x1B7D JUMP JUMPDEST DUP3 ADD SWAP2 SWAP1 PUSH1 0x0 MSTORE PUSH1 0x20 PUSH1 0x0 KECCAK256 SWAP1 JUMPDEST DUP2 SLOAD DUP2 MSTORE SWAP1 PUSH1 0x1 ADD SWAP1 PUSH1 0x20 ADD DUP1 DUP4 GT PUSH2 0x1B60 JUMPI DUP3 SWAP1 SUB PUSH1 0x1F AND DUP3 ADD SWAP2 JUMPDEST POP POP POP POP POP SWAP1 POP SWAP2 SWAP1 POP JUMP JUMPDEST PUSH1 0x0 DUP2 PUSH20 0xFFFFFFFFFFFFFFFFFFFFFFFFFFFFFFFFFFFFFFFF AND DUP4 PUSH20 0xFFFFFFFFFFFFFFFFFFFFFFFFFFFFFFFFFFFFFFFF AND EQ DUP1 PUSH2 0x14F3 JUMPI POP POP PUSH20 0xFFFFFFFFFFFFFFFFFFFFFFFFFFFFFFFFFFFFFFFF SWAP2 DUP3 AND PUSH1 0x0 SWAP1 DUP2 MSTORE PUSH1 0x3 SWAP4 SWAP1 SWAP4 ADD PUSH1 0x20 SWAP1 DUP2 MSTORE PUSH1 0x40 DUP1 DUP6 KECCAK256 SWAP3 SWAP1 SWAP4 AND DUP5 MSTORE MSTORE SWAP1 KECCAK256 SLOAD PUSH1 0xFF AND SWAP1 JUMP JUMPDEST PUSH1 0x40 MLOAD PUSH32 0x150B7A0200000000000000000000000000000000000000000000000000000000 DUP1 DUP3 MSTORE SWAP1 PUSH20 0xFFFFFFFFFFFFFFFFFFFFFFFFFFFFFFFFFFFFFFFF DUP6 AND SWAP1 PUSH4 0x150B7A02 SWAP1 PUSH2 0x1C58 SWAP1 DUP10 SWAP1 DUP10 SWAP1 DUP9 SWAP1 DUP9 SWAP1 PUSH1 0x4 ADD PUSH2 0x2293 JUMP JUMPDEST PUSH1 0x20 PUSH1 0x40 MLOAD DUP1 DUP4 SUB DUP2 PUSH1 0x0 DUP8 GAS CALL ISZERO DUP1 ISZERO PUSH2 0x1C77 JUMPI RETURNDATASIZE PUSH1 0x0 DUP1 RETURNDATACOPY RETURNDATASIZE PUSH1 0x0 REVERT JUMPDEST POP POP POP POP PUSH1 0x40 MLOAD RETURNDATASIZE PUSH1 0x1F NOT PUSH1 0x1F DUP3 ADD AND DUP3 ADD DUP1 PUSH1 0x40 MSTORE POP DUP2 ADD SWAP1 PUSH2 0x1C9B SWAP2 SWAP1 PUSH2 0x22DC JUMP JUMPDEST PUSH32 0xFFFFFFFF00000000000000000000000000000000000000000000000000000000 AND EQ PUSH2 0x6C8 JUMPI PUSH1 0x40 MLOAD PUSH32 0xC215A7A100000000000000000000000000000000000000000000000000000000 DUP2 MSTORE PUSH20 0xFFFFFFFFFFFFFFFFFFFFFFFFFFFFFFFFFFFFFFFF DUP5 AND PUSH1 0x4 DUP3 ADD MSTORE PUSH1 0x24 DUP2 ADD DUP4 SWAP1 MSTORE PUSH1 0x44 ADD PUSH2 0x92E JUMP JUMPDEST PUSH1 0x60 DUP2 PUSH1 0x1 ADD DUP1 SLOAD PUSH2 0x1B04 SWAP1 PUSH2 0x2240 JUMP JUMPDEST PUSH32 0xFFFFFFFF00000000000000000000000000000000000000000000000000000000 DUP2 AND DUP2 EQ PUSH2 0x5ED JUMPI PUSH1 0x0 DUP1 REVERT JUMPDEST PUSH1 0x0 PUSH1 0x20 DUP3 DUP5 SUB SLT ISZERO PUSH2 0x1D64 JUMPI PUSH1 0x0 DUP1 REVERT JUMPDEST DUP2 CALLDATALOAD PUSH2 0x65B DUP2 PUSH2 0x1D24 JUMP JUMPDEST PUSH1 0x0 JUMPDEST DUP4 DUP2 LT ISZERO PUSH2 0x1D8A JUMPI DUP2 DUP2 ADD MLOAD DUP4 DUP3 ADD MSTORE PUSH1 0x20 ADD PUSH2 0x1D72 JUMP JUMPDEST POP POP PUSH1 0x0 SWAP2 ADD MSTORE JUMP JUMPDEST PUSH1 0x0 DUP2 MLOAD DUP1 DUP5 MSTORE PUSH2 0x1DAB DUP2 PUSH1 0x20 DUP7 ADD PUSH1 0x20 DUP7 ADD PUSH2 0x1D6F JUMP JUMPDEST PUSH1 0x1F ADD PUSH32 0xFFFFFFFFFFFFFFFFFFFFFFFFFFFFFFFFFFFFFFFFFFFFFFFFFFFFFFFFFFFFFFE0 AND SWAP3 SWAP1 SWAP3 ADD PUSH1 0x20 ADD SWAP3 SWAP2 POP POP JUMP JUMPDEST PUSH1 0x20 DUP2 MSTORE PUSH1 0x0 PUSH2 0x65B PUSH1 0x20 DUP4 ADD DUP5 PUSH2 0x1D93 JUMP JUMPDEST PUSH1 0x0 PUSH1 0x20 DUP3 DUP5 SUB SLT ISZERO PUSH2 0x1E02 JUMPI PUSH1 0x0 DUP1 REVERT JUMPDEST POP CALLDATALOAD SWAP2 SWAP1 POP JUMP JUMPDEST DUP1 CALLDATALOAD PUSH20 0xFFFFFFFFFFFFFFFFFFFFFFFFFFFFFFFFFFFFFFFF DUP2 AND DUP2 EQ PUSH2 0x1E2D JUMPI PUSH1 0x0 DUP1 REVERT JUMPDEST SWAP2 SWAP1 POP JUMP JUMPDEST PUSH1 0x0 DUP1 PUSH1 0x40 DUP4 DUP6 SUB SLT ISZERO PUSH2 0x1E45 JUMPI PUSH1 0x0 DUP1 REVERT JUMPDEST PUSH2 0x1E4E DUP4 PUSH2 0x1E09 JUMP JUMPDEST SWAP5 PUSH1 0x20 SWAP4 SWAP1 SWAP4 ADD CALLDATALOAD SWAP4 POP POP POP JUMP JUMPDEST PUSH1 0x0 DUP1 PUSH1 0x0 PUSH1 0x60 DUP5 DUP7 SUB SLT ISZERO PUSH2 0x1E71 JUMPI PUSH1 0x0 DUP1 REVERT JUMPDEST PUSH2 0x1E7A DUP5 PUSH2 0x1E09 JUMP JUMPDEST SWAP3 POP PUSH2 0x1E88 PUSH1 0x20 DUP6 ADD PUSH2 0x1E09 JUMP JUMPDEST SWAP2 POP PUSH1 0x40 DUP5 ADD CALLDATALOAD SWAP1 POP SWAP3 POP SWAP3 POP SWAP3 JUMP JUMPDEST PUSH1 0x0 DUP1 PUSH1 0x40 DUP4 DUP6 SUB SLT ISZERO PUSH2 0x1EAB JUMPI PUSH1 0x0 DUP1 REVERT JUMPDEST DUP3 CALLDATALOAD SWAP2 POP PUSH2 0x1EBB PUSH1 0x20 DUP5 ADD PUSH2 0x1E09 JUMP JUMPDEST SWAP1 POP SWAP3 POP SWAP3 SWAP1 POP JUMP JUMPDEST PUSH1 0x0 DUP1 PUSH1 0x0 PUSH1 0x40 DUP5 DUP7 SUB SLT ISZERO PUSH2 0x1ED9 JUMPI PUSH1 0x0 DUP1 REVERT JUMPDEST PUSH2 0x1EE2 DUP5 PUSH2 0x1E09 JUMP JUMPDEST SWAP3 POP PUSH1 0x20 DUP5 ADD CALLDATALOAD PUSH8 0xFFFFFFFFFFFFFFFF DUP1 DUP3 GT ISZERO PUSH2 0x1EFF JUMPI PUSH1 0x0 DUP1 REVERT JUMPDEST DUP2 DUP7 ADD SWAP2 POP DUP7 PUSH1 0x1F DUP4 ADD SLT PUSH2 0x1F13 JUMPI PUSH1 0x0 DUP1 REVERT JUMPDEST DUP2 CALLDATALOAD DUP2 DUP2 GT ISZERO PUSH2 0x1F22 JUMPI PUSH1 0x0 DUP1 REVERT JUMPDEST DUP8 PUSH1 0x20 DUP3 PUSH1 0x5 SHL DUP6 ADD ADD GT ISZERO PUSH2 0x1F37 JUMPI PUSH1 0x0 DUP1 REVERT JUMPDEST PUSH1 0x20 DUP4 ADD SWAP5 POP DUP1 SWAP4 POP POP POP POP SWAP3 POP SWAP3 POP SWAP3 JUMP JUMPDEST PUSH1 0x0 PUSH1 0x20 DUP3 DUP5 SUB SLT ISZERO PUSH2 0x1F5C JUMPI PUSH1 0x0 DUP1 REVERT JUMPDEST PUSH2 0x65B DUP3 PUSH2 0x1E09 JUMP JUMPDEST PUSH1 0x0 DUP1 DUP4 PUSH1 0x1F DUP5 ADD SLT PUSH2 0x1F77 JUMPI PUSH1 0x0 DUP1 REVERT JUMPDEST POP DUP2 CALLDATALOAD PUSH8 0xFFFFFFFFFFFFFFFF DUP2 GT ISZERO PUSH2 0x1F8F JUMPI PUSH1 0x0 DUP1 REVERT JUMPDEST PUSH1 0x20 DUP4 ADD SWAP2 POP DUP4 PUSH1 0x20 DUP3 DUP6 ADD ADD GT ISZERO PUSH2 0x1FA7 JUMPI PUSH1 0x0 DUP1 REVERT JUMPDEST SWAP3 POP SWAP3 SWAP1 POP JUMP JUMPDEST PUSH1 0x0 DUP1 PUSH1 0x0 DUP1 PUSH1 0x60 DUP6 DUP8 SUB SLT ISZERO PUSH2 0x1FC4 JUMPI PUSH1 0x0 DUP1 REVERT JUMPDEST PUSH2 0x1FCD DUP6 PUSH2 0x1E09 JUMP JUMPDEST SWAP4 POP PUSH1 0x20 DUP6 ADD CALLDATALOAD SWAP3 POP PUSH1 0x40 DUP6 ADD CALLDATALOAD PUSH8 0xFFFFFFFFFFFFFFFF DUP2 GT ISZERO PUSH2 0x1FF0 JUMPI PUSH1 0x0 DUP1 REVERT JUMPDEST PUSH2 0x1FFC DUP8 DUP3 DUP9 ADD PUSH2 0x1F65 JUMP JUMPDEST SWAP6 SWAP9 SWAP5 SWAP8 POP SWAP6 POP POP POP POP JUMP JUMPDEST PUSH1 0x0 DUP1 PUSH1 0x40 DUP4 DUP6 SUB SLT ISZERO PUSH2 0x201B JUMPI PUSH1 0x0 DUP1 REVERT JUMPDEST PUSH2 0x2024 DUP4 PUSH2 0x1E09 JUMP JUMPDEST SWAP2 POP PUSH1 0x20 DUP4 ADD CALLDATALOAD DUP1 ISZERO ISZERO DUP2 EQ PUSH2 0x2039 JUMPI PUSH1 0x0 DUP1 REVERT JUMPDEST DUP1 SWAP2 POP POP SWAP3 POP SWAP3 SWAP1 POP JUMP JUMPDEST PUSH1 0x0 DUP1 PUSH1 0x0 DUP1 PUSH1 0x0 PUSH1 0x80 DUP7 DUP9 SUB SLT ISZERO PUSH2 0x205C JUMPI PUSH1 0x0 DUP1 REVERT JUMPDEST PUSH2 0x2065 DUP7 PUSH2 0x1E09 JUMP JUMPDEST SWAP5 POP PUSH2 0x2073 PUSH1 0x20 DUP8 ADD PUSH2 0x1E09 JUMP JUMPDEST SWAP4 POP PUSH1 0x40 DUP7 ADD CALLDATALOAD SWAP3 POP PUSH1 0x60 DUP7 ADD CALLDATALOAD PUSH8 0xFFFFFFFFFFFFFFFF DUP2 GT ISZERO PUSH2 0x2096 JUMPI PUSH1 0x0 DUP1 REVERT JUMPDEST PUSH2 0x20A2 DUP9 DUP3 DUP10 ADD PUSH2 0x1F65 JUMP JUMPDEST SWAP7 SWAP10 SWAP6 SWAP9 POP SWAP4 SWAP7 POP SWAP3 SWAP5 SWAP4 SWAP3 POP POP POP JUMP JUMPDEST PUSH1 0x0 DUP1 PUSH1 0x40 DUP4 DUP6 SUB SLT ISZERO PUSH2 0x20C6 JUMPI PUSH1 0x0 DUP1 REVERT JUMPDEST PUSH2 0x20CF DUP4 PUSH2 0x1E09 JUMP JUMPDEST SWAP2 POP PUSH2 0x1EBB PUSH1 0x20 DUP5 ADD PUSH2 0x1E09 JUMP JUMPDEST DUP2 DUP2 SUB DUP2 DUP2 GT ISZERO PUSH2 0x3D6 JUMPI PUSH32 0x4E487B7100000000000000000000000000000000000000000000000000000000 PUSH1 0x0 MSTORE PUSH1 0x11 PUSH1 0x4 MSTORE PUSH1 0x24 PUSH1 0x0 REVERT JUMPDEST PUSH32 0x4E487B7100000000000000000000000000000000000000000000000000000000 PUSH1 0x0 MSTORE PUSH1 0x32 PUSH1 0x4 MSTORE PUSH1 0x24 PUSH1 0x0 REVERT JUMPDEST PUSH32 0x4E487B7100000000000000000000000000000000000000000000000000000000 PUSH1 0x0 MSTORE PUSH1 0x41 PUSH1 0x4 MSTORE PUSH1 0x24 PUSH1 0x0 REVERT JUMPDEST PUSH1 0x0 PUSH1 0x20 DUP3 DUP5 SUB SLT ISZERO PUSH2 0x2187 JUMPI PUSH1 0x0 DUP1 REVERT JUMPDEST DUP2 MLOAD PUSH8 0xFFFFFFFFFFFFFFFF DUP1 DUP3 GT ISZERO PUSH2 0x219F JUMPI PUSH1 0x0 DUP1 REVERT JUMPDEST DUP2 DUP5 ADD SWAP2 POP DUP5 PUSH1 0x1F DUP4 ADD SLT PUSH2 0x21B3 JUMPI PUSH1 0x0 DUP1 REVERT JUMPDEST DUP2 MLOAD DUP2 DUP2 GT ISZERO PUSH2 0x21C5 JUMPI PUSH2 0x21C5 PUSH2 0x2146 JUMP JUMPDEST PUSH1 0x40 MLOAD PUSH1 0x1F DUP3 ADD PUSH32 0xFFFFFFFFFFFFFFFFFFFFFFFFFFFFFFFFFFFFFFFFFFFFFFFFFFFFFFFFFFFFFFE0 SWAP1 DUP2 AND PUSH1 0x3F ADD AND DUP2 ADD SWAP1 DUP4 DUP3 GT DUP2 DUP4 LT OR ISZERO PUSH2 0x220B JUMPI PUSH2 0x220B PUSH2 0x2146 JUMP JUMPDEST DUP2 PUSH1 0x40 MSTORE DUP3 DUP2 MSTORE DUP8 PUSH1 0x20 DUP5 DUP8 ADD ADD GT ISZERO PUSH2 0x2224 JUMPI PUSH1 0x0 DUP1 REVERT JUMPDEST PUSH2 0x2235 DUP4 PUSH1 0x20 DUP4 ADD PUSH1 0x20 DUP9 ADD PUSH2 0x1D6F JUMP JUMPDEST SWAP8 SWAP7 POP POP POP POP POP POP POP JUMP JUMPDEST PUSH1 0x1 DUP2 DUP2 SHR SWAP1 DUP3 AND DUP1 PUSH2 0x2254 JUMPI PUSH1 0x7F DUP3 AND SWAP2 POP JUMPDEST PUSH1 0x20 DUP3 LT DUP2 SUB PUSH2 0x228D JUMPI PUSH32 0x4E487B7100000000000000000000000000000000000000000000000000000000 PUSH1 0x0 MSTORE PUSH1 0x22 PUSH1 0x4 MSTORE PUSH1 0x24 PUSH1 0x0 REVERT JUMPDEST POP SWAP2 SWAP1 POP JUMP JUMPDEST PUSH1 0x0 PUSH20 0xFFFFFFFFFFFFFFFFFFFFFFFFFFFFFFFFFFFFFFFF DUP1 DUP8 AND DUP4 MSTORE DUP1 DUP7 AND PUSH1 0x20 DUP5 ADD MSTORE POP DUP4 PUSH1 0x40 DUP4 ADD MSTORE PUSH1 0x80 PUSH1 0x60 DUP4 ADD MSTORE PUSH2 0x22D2 PUSH1 0x80 DUP4 ADD DUP5 PUSH2 0x1D93 JUMP JUMPDEST SWAP7 SWAP6 POP POP POP POP POP POP JUMP JUMPDEST PUSH1 0x0 PUSH1 0x20 DUP3 DUP5 SUB SLT ISZERO PUSH2 0x22EE JUMPI PUSH1 0x0 DUP1 REVERT JUMPDEST DUP2 MLOAD PUSH2 0x65B DUP2 PUSH2 0x1D24 JUMP INVALID LOG2 PUSH5 0x6970667358 0x22 SLT KECCAK256 0x25 0xF9 ORIGIN CALLDATASIZE STATICCALL STATICCALL GT 0x1F 0x4B CODESIZE 0xDE DUP11 STOP 0xDC 0xCE 0x2B PUSH24 0x2FDABE0ED8C67993F39DDC5942F8864736F6C6343000818 STOP CALLER "},"gasEstimates":{"creation":{"codeDepositCost":"1801400","executionCost":"infinite","totalCost":"infinite"},"external":{"MINTER_ROLE()":"239","approve(address,uint256)":"infinite","balanceOf(address)":"infinite","batchMint(address,uint256[])":"infinite","getApproved(uint256)":"infinite","grantRole(bytes32,address)":"infinite","hasRole(bytes32,address)":"infinite","isApprovedForAll(address,address)":"infinite","metadataResolver()":"infinite","mint(address,uint256)":"infinite","name()":"infinite","owner()":"infinite","ownerOf(uint256)":"infinite","renounceRole(bytes32)":"infinite","revokeRole(bytes32,address)":"infinite","safeMint(address,uint256,bytes)":"infinite","safeTransferFrom(address,address,uint256)":"infinite","safeTransferFrom(address,address,uint256,bytes)":"infinite","setApprovalForAll(address,bool)":"infinite","supportsInterface(bytes4)":"infinite","symbol()":"infinite","tokenURI(uint256)":"infinite","transferFrom(address,address,uint256)":"infinite","transferOwnership(address)":"infinite","wasBurnt(uint256)":"infinite"}},"methodIdentifiers":{"MINTER_ROLE()":"d5391393","approve(address,uint256)":"095ea7b3","balanceOf(address)":"70a08231","batchMint(address,uint256[])":"4684d7e9","getApproved(uint256)":"081812fc","grantRole(bytes32,address)":"2f2ff15d","hasRole(bytes32,address)":"91d14854","isApprovedForAll(address,address)":"e985e9c5","metadataResolver()":"a0c76f62","mint(address,uint256)":"40c10f19","name()":"06fdde03","owner()":"8da5cb5b","ownerOf(uint256)":"6352211e","renounceRole(bytes32)":"8bb9c5bf","revokeRole(bytes32,address)":"d547741f","safeMint(address,uint256,bytes)":"8832e6e3","safeTransferFrom(address,address,uint256)":"42842e0e","safeTransferFrom(address,address,uint256,bytes)":"b88d4fde","setApprovalForAll(address,bool)":"a22cb465","supportsInterface(bytes4)":"01ffc9a7","symbol()":"95d89b41","tokenURI(uint256)":"c87b56dd","transferFrom(address,address,uint256)":"23b872dd","transferOwnership(address)":"f2fde38b","wasBurnt(uint256)":"c77c6955"}},"storageLayout":{"storage":[],"types":null},"userdoc":{"errors":{"ERC721BalanceOfAddressZero()":[{"notice":"Thrown when querying the balance of the zero address."}],"ERC721BurntToken(uint256)":[{"notice":"Thrown when minting a token which has been burnt before (MintableOnce implementation)."}],"ERC721ExistingToken(uint256)":[{"notice":"Thrown when minting a token that already exists."}],"ERC721MintToAddressZero()":[{"notice":"Thrown when minting a token to the zero address."}],"ERC721NonApprovedForApproval(address,address,uint256)":[{"notice":"Thrown when a sender tries to set a token approval but is neither the owner nor approvedForAll by the owner."}],"ERC721NonApprovedForTransfer(address,address,uint256)":[{"notice":"Thrown when a sender tries to transfer a token but is neither the owner nor approved by the owner."}],"ERC721NonExistingToken(uint256)":[{"notice":"Thrown when a token does not exist but is required to."}],"ERC721NonOwnedToken(address,uint256)":[{"notice":"Thrown when a token is not owned by the expected account."}],"ERC721SafeTransferRejected(address,uint256)":[{"notice":"Thrown when a safe transfer is rejected by the recipient contract."}],"ERC721SelfApproval(address)":[{"notice":"Thrown when trying to approve oneself."}],"ERC721SelfApprovalForAll(address)":[{"notice":"Thrown when trying to approveForAll oneself."}],"ERC721TransferToAddressZero()":[{"notice":"Thrown when transferring a token to the zero address."}],"IllegalInterfaceId()":[{"notice":"Thrown when setting the illegal interfaceId 0xffffffff."}],"NotContractOwner(address)":[{"notice":"Thrown when an account is not the contract owner but is required to."}],"NotRoleHolder(bytes32,address)":[{"notice":"Thrown when an account does not have the required role."}]},"events":{"Approval(address,address,uint256)":{"notice":"Emitted when a single token approval is set."},"ApprovalForAll(address,address,bool)":{"notice":"Emitted when an approval for all tokens is set or unset."},"OwnershipTransferred(address,address)":{"notice":"Emitted when the contract ownership changes."},"RoleGranted(bytes32,address,address)":{"notice":"Emitted when `role` is granted to `account`."},"RoleRevoked(bytes32,address,address)":{"notice":"Emitted when `role` is revoked from `account`."},"Transfer(address,address,uint256)":{"notice":"Emitted when a token is transferred."}},"kind":"user","methods":{"approve(address,uint256)":{"notice":"Sets or unsets an approval to transfer a single token on behalf of its owner."},"balanceOf(address)":{"notice":"Gets the balance of an address."},"batchMint(address,uint256[])":{"notice":"Unsafely mints a batch of tokens."},"getApproved(uint256)":{"notice":"Gets the approved address for a token."},"grantRole(bytes32,address)":{"notice":"Grants a role to an account."},"hasRole(bytes32,address)":{"notice":"Retrieves whether an account has a role."},"isApprovedForAll(address,address)":{"notice":"Gets whether an operator is approved for all tokens by an owner."},"metadataResolver()":{"notice":"Gets the token metadata resolver address."},"mint(address,uint256)":{"notice":"Unsafely mints a token."},"name()":{"notice":"Gets the name of the token. E.g. \"My Token\"."},"owner()":{"notice":"Gets the address of the contract owner."},"ownerOf(uint256)":{"notice":"Gets the owner of a token."},"renounceRole(bytes32)":{"notice":"Renounces a role by the sender."},"revokeRole(bytes32,address)":{"notice":"Revokes a role from an account."},"safeMint(address,uint256,bytes)":{"notice":"Safely mints a token."},"safeTransferFrom(address,address,uint256)":{"notice":"Safely transfers the ownership of a token to a recipient."},"safeTransferFrom(address,address,uint256,bytes)":{"notice":"Safely transfers the ownership of a token to a recipient."},"setApprovalForAll(address,bool)":{"notice":"Sets or unsets an approval to transfer all tokens on behalf of their owner."},"supportsInterface(bytes4)":{"notice":"Returns whether this contract implements a given interface."},"symbol()":{"notice":"Gets the symbol of the token. E.g. \"TOK\"."},"tokenURI(uint256)":{"notice":"Gets the metadata URI for a token identifier."},"transferFrom(address,address,uint256)":{"notice":"Unsafely transfers the ownership of a token to a recipient."},"transferOwnership(address)":{"notice":"Sets the address of the new contract owner."},"wasBurnt(uint256)":{"notice":"Gets whether a token was burnt."}},"version":1}}}}