{
  "_format": "hh-sol-artifact-1",
  "contractName": "BCNFT",
  "sourceName": "contracts/BCNFT.sol",
  "abi": [
    {
      "inputs": [
        {
          "internalType": "contract ITokenMetadataResolver",
          "name": "metadataResolver",
          "type": "address"
        }
      ],
      "stateMutability": "nonpayable",
      "type": "constructor"
    },
    {
      "inputs": [],
      "name": "ERC721BalanceOfAddressZero",
      "type": "error"
    },
    {
      "inputs": [
        {
          "internalType": "uint256",
          "name": "tokenId",
          "type": "uint256"
        }
      ],
      "name": "ERC721BurntToken",
      "type": "error"
    },
    {
      "inputs": [
        {
          "internalType": "uint256",
          "name": "tokenId",
          "type": "uint256"
        }
      ],
      "name": "ERC721ExistingToken",
      "type": "error"
    },
    {
      "inputs": [],
      "name": "ERC721MintToAddressZero",
      "type": "error"
    },
    {
      "inputs": [
        {
          "internalType": "address",
          "name": "sender",
          "type": "address"
        },
        {
          "internalType": "address",
          "name": "owner",
          "type": "address"
        },
        {
          "internalType": "uint256",
          "name": "tokenId",
          "type": "uint256"
        }
      ],
      "name": "ERC721NonApprovedForApproval",
      "type": "error"
    },
    {
      "inputs": [
        {
          "internalType": "address",
          "name": "sender",
          "type": "address"
        },
        {
          "internalType": "address",
          "name": "owner",
          "type": "address"
        },
        {
          "internalType": "uint256",
          "name": "tokenId",
          "type": "uint256"
        }
      ],
      "name": "ERC721NonApprovedForTransfer",
      "type": "error"
    },
    {
      "inputs": [
        {
          "internalType": "uint256",
          "name": "tokenId",
          "type": "uint256"
        }
      ],
      "name": "ERC721NonExistingToken",
      "type": "error"
    },
    {
      "inputs": [
        {
          "internalType": "address",
          "name": "account",
          "type": "address"
        },
        {
          "internalType": "uint256",
          "name": "tokenId",
          "type": "uint256"
        }
      ],
      "name": "ERC721NonOwnedToken",
      "type": "error"
    },
    {
      "inputs": [
        {
          "internalType": "address",
          "name": "recipient",
          "type": "address"
        },
        {
          "internalType": "uint256",
          "name": "tokenId",
          "type": "uint256"
        }
      ],
      "name": "ERC721SafeTransferRejected",
      "type": "error"
    },
    {
      "inputs": [
        {
          "internalType": "address",
          "name": "account",
          "type": "address"
        }
      ],
      "name": "ERC721SelfApproval",
      "type": "error"
    },
    {
      "inputs": [
        {
          "internalType": "address",
          "name": "account",
          "type": "address"
        }
      ],
      "name": "ERC721SelfApprovalForAll",
      "type": "error"
    },
    {
      "inputs": [],
      "name": "ERC721TransferToAddressZero",
      "type": "error"
    },
    {
      "inputs": [],
      "name": "IllegalInterfaceId",
      "type": "error"
    },
    {
      "inputs": [
        {
          "internalType": "address",
          "name": "account",
          "type": "address"
        }
      ],
      "name": "NotContractOwner",
      "type": "error"
    },
    {
      "inputs": [
        {
          "internalType": "bytes32",
          "name": "role",
          "type": "bytes32"
        },
        {
          "internalType": "address",
          "name": "account",
          "type": "address"
        }
      ],
      "name": "NotRoleHolder",
      "type": "error"
    },
    {
      "anonymous": false,
      "inputs": [
        {
          "indexed": true,
          "internalType": "address",
          "name": "owner",
          "type": "address"
        },
        {
          "indexed": true,
          "internalType": "address",
          "name": "approved",
          "type": "address"
        },
        {
          "indexed": true,
          "internalType": "uint256",
          "name": "tokenId",
          "type": "uint256"
        }
      ],
      "name": "Approval",
      "type": "event"
    },
    {
      "anonymous": false,
      "inputs": [
        {
          "indexed": true,
          "internalType": "address",
          "name": "owner",
          "type": "address"
        },
        {
          "indexed": true,
          "internalType": "address",
          "name": "operator",
          "type": "address"
        },
        {
          "indexed": false,
          "internalType": "bool",
          "name": "approved",
          "type": "bool"
        }
      ],
      "name": "ApprovalForAll",
      "type": "event"
    },
    {
      "anonymous": false,
      "inputs": [
        {
          "indexed": true,
          "internalType": "address",
          "name": "previousOwner",
          "type": "address"
        },
        {
          "indexed": true,
          "internalType": "address",
          "name": "newOwner",
          "type": "address"
        }
      ],
      "name": "OwnershipTransferred",
      "type": "event"
    },
    {
      "anonymous": false,
      "inputs": [
        {
          "indexed": false,
          "internalType": "bytes32",
          "name": "role",
          "type": "bytes32"
        },
        {
          "indexed": false,
          "internalType": "address",
          "name": "account",
          "type": "address"
        },
        {
          "indexed": false,
          "internalType": "address",
          "name": "operator",
          "type": "address"
        }
      ],
      "name": "RoleGranted",
      "type": "event"
    },
    {
      "anonymous": false,
      "inputs": [
        {
          "indexed": false,
          "internalType": "bytes32",
          "name": "role",
          "type": "bytes32"
        },
        {
          "indexed": false,
          "internalType": "address",
          "name": "account",
          "type": "address"
        },
        {
          "indexed": false,
          "internalType": "address",
          "name": "operator",
          "type": "address"
        }
      ],
      "name": "RoleRevoked",
      "type": "event"
    },
    {
      "anonymous": false,
      "inputs": [
        {
          "indexed": true,
          "internalType": "address",
          "name": "from",
          "type": "address"
        },
        {
          "indexed": true,
          "internalType": "address",
          "name": "to",
          "type": "address"
        },
        {
          "indexed": true,
          "internalType": "uint256",
          "name": "tokenId",
          "type": "uint256"
        }
      ],
      "name": "Transfer",
      "type": "event"
    },
    {
      "inputs": [],
      "name": "MINTER_ROLE",
      "outputs": [
        {
          "internalType": "bytes32",
          "name": "",
          "type": "bytes32"
        }
      ],
      "stateMutability": "view",
      "type": "function"
    },
    {
      "inputs": [
        {
          "internalType": "address",
          "name": "to",
          "type": "address"
        },
        {
          "internalType": "uint256",
          "name": "tokenId",
          "type": "uint256"
        }
      ],
      "name": "approve",
      "outputs": [],
      "stateMutability": "nonpayable",
      "type": "function"
    },
    {
      "inputs": [
        {
          "internalType": "address",
          "name": "owner",
          "type": "address"
        }
      ],
      "name": "balanceOf",
      "outputs": [
        {
          "internalType": "uint256",
          "name": "balance",
          "type": "uint256"
        }
      ],
      "stateMutability": "view",
      "type": "function"
    },
    {
      "inputs": [
        {
          "internalType": "address",
          "name": "to",
          "type": "address"
        },
        {
          "internalType": "uint256[]",
          "name": "tokenIds",
          "type": "uint256[]"
        }
      ],
      "name": "batchMint",
      "outputs": [],
      "stateMutability": "nonpayable",
      "type": "function"
    },
    {
      "inputs": [
        {
          "internalType": "uint256",
          "name": "tokenId",
          "type": "uint256"
        }
      ],
      "name": "getApproved",
      "outputs": [
        {
          "internalType": "address",
          "name": "approved",
          "type": "address"
        }
      ],
      "stateMutability": "view",
      "type": "function"
    },
    {
      "inputs": [
        {
          "internalType": "bytes32",
          "name": "role",
          "type": "bytes32"
        },
        {
          "internalType": "address",
          "name": "account",
          "type": "address"
        }
      ],
      "name": "grantRole",
      "outputs": [],
      "stateMutability": "nonpayable",
      "type": "function"
    },
    {
      "inputs": [
        {
          "internalType": "bytes32",
          "name": "role",
          "type": "bytes32"
        },
        {
          "internalType": "address",
          "name": "account",
          "type": "address"
        }
      ],
      "name": "hasRole",
      "outputs": [
        {
          "internalType": "bool",
          "name": "hasRole_",
          "type": "bool"
        }
      ],
      "stateMutability": "view",
      "type": "function"
    },
    {
      "inputs": [
        {
          "internalType": "address",
          "name": "owner",
          "type": "address"
        },
        {
          "internalType": "address",
          "name": "operator",
          "type": "address"
        }
      ],
      "name": "isApprovedForAll",
      "outputs": [
        {
          "internalType": "bool",
          "name": "approvedForAll",
          "type": "bool"
        }
      ],
      "stateMutability": "view",
      "type": "function"
    },
    {
      "inputs": [],
      "name": "metadataResolver",
      "outputs": [
        {
          "internalType": "contract ITokenMetadataResolver",
          "name": "tokenMetadataResolver",
          "type": "address"
        }
      ],
      "stateMutability": "view",
      "type": "function"
    },
    {
      "inputs": [
        {
          "internalType": "address",
          "name": "to",
          "type": "address"
        },
        {
          "internalType": "uint256",
          "name": "tokenId",
          "type": "uint256"
        }
      ],
      "name": "mint",
      "outputs": [],
      "stateMutability": "nonpayable",
      "type": "function"
    },
    {
      "inputs": [],
      "name": "name",
      "outputs": [
        {
          "internalType": "string",
          "name": "tokenName",
          "type": "string"
        }
      ],
      "stateMutability": "view",
      "type": "function"
    },
    {
      "inputs": [],
      "name": "owner",
      "outputs": [
        {
          "internalType": "address",
          "name": "",
          "type": "address"
        }
      ],
      "stateMutability": "view",
      "type": "function"
    },
    {
      "inputs": [
        {
          "internalType": "uint256",
          "name": "tokenId",
          "type": "uint256"
        }
      ],
      "name": "ownerOf",
      "outputs": [
        {
          "internalType": "address",
          "name": "tokenOwner",
          "type": "address"
        }
      ],
      "stateMutability": "view",
      "type": "function"
    },
    {
      "inputs": [
        {
          "internalType": "bytes32",
          "name": "role",
          "type": "bytes32"
        }
      ],
      "name": "renounceRole",
      "outputs": [],
      "stateMutability": "nonpayable",
      "type": "function"
    },
    {
      "inputs": [
        {
          "internalType": "bytes32",
          "name": "role",
          "type": "bytes32"
        },
        {
          "internalType": "address",
          "name": "account",
          "type": "address"
        }
      ],
      "name": "revokeRole",
      "outputs": [],
      "stateMutability": "nonpayable",
      "type": "function"
    },
    {
      "inputs": [
        {
          "internalType": "address",
          "name": "to",
          "type": "address"
        },
        {
          "internalType": "uint256",
          "name": "tokenId",
          "type": "uint256"
        },
        {
          "internalType": "bytes",
          "name": "data",
          "type": "bytes"
        }
      ],
      "name": "safeMint",
      "outputs": [],
      "stateMutability": "nonpayable",
      "type": "function"
    },
    {
      "inputs": [
        {
          "internalType": "address",
          "name": "from",
          "type": "address"
        },
        {
          "internalType": "address",
          "name": "to",
          "type": "address"
        },
        {
          "internalType": "uint256",
          "name": "tokenId",
          "type": "uint256"
        }
      ],
      "name": "safeTransferFrom",
      "outputs": [],
      "stateMutability": "nonpayable",
      "type": "function"
    },
    {
      "inputs": [
        {
          "internalType": "address",
          "name": "from",
          "type": "address"
        },
        {
          "internalType": "address",
          "name": "to",
          "type": "address"
        },
        {
          "internalType": "uint256",
          "name": "tokenId",
          "type": "uint256"
        },
        {
          "internalType": "bytes",
          "name": "data",
          "type": "bytes"
        }
      ],
      "name": "safeTransferFrom",
      "outputs": [],
      "stateMutability": "nonpayable",
      "type": "function"
    },
    {
      "inputs": [
        {
          "internalType": "address",
          "name": "operator",
          "type": "address"
        },
        {
          "internalType": "bool",
          "name": "approved",
          "type": "bool"
        }
      ],
      "name": "setApprovalForAll",
      "outputs": [],
      "stateMutability": "nonpayable",
      "type": "function"
    },
    {
      "inputs": [
        {
          "internalType": "bytes4",
          "name": "interfaceId",
          "type": "bytes4"
        }
      ],
      "name": "supportsInterface",
      "outputs": [
        {
          "internalType": "bool",
          "name": "",
          "type": "bool"
        }
      ],
      "stateMutability": "view",
      "type": "function"
    },
    {
      "inputs": [],
      "name": "symbol",
      "outputs": [
        {
          "internalType": "string",
          "name": "tokenSymbol",
          "type": "string"
        }
      ],
      "stateMutability": "view",
      "type": "function"
    },
    {
      "inputs": [
        {
          "internalType": "uint256",
          "name": "tokenId",
          "type": "uint256"
        }
      ],
      "name": "tokenURI",
      "outputs": [
        {
          "internalType": "string",
          "name": "uri",
          "type": "string"
        }
      ],
      "stateMutability": "view",
      "type": "function"
    },
    {
      "inputs": [
        {
          "internalType": "address",
          "name": "from",
          "type": "address"
        },
        {
          "internalType": "address",
          "name": "to",
          "type": "address"
        },
        {
          "internalType": "uint256",
          "name": "tokenId",
          "type": "uint256"
        }
      ],
      "name": "transferFrom",
      "outputs": [],
      "stateMutability": "nonpayable",
      "type": "function"
    },
    {
      "inputs": [
        {
          "internalType": "address",
          "name": "newOwner",
          "type": "address"
        }
      ],
      "name": "transferOwnership",
      "outputs": [],
      "stateMutability": "nonpayable",
      "type": "function"
    },
    {
      "inputs": [
        {
          "internalType": "uint256",
          "name": "tokenId",
          "type": "uint256"
        }
      ],
      "name": "wasBurnt",
      "outputs": [
        {
          "internalType": "bool",
          "name": "tokenWasBurnt",
          "type": "bool"
        }
      ],
      "stateMutability": "view",
      "type": "function"
    }
  ],
  "bytecode": "0x60806040523480156200001157600080fd5b50604051620027eb380380620027eb8339810160408190526200003491620002e5565b60405180604001604052806011815260200170109bdb991a5b99c810dd5c9d9948139195607a1b815250604051806040016040528060058152602001641090d3919560da1b815250826200008d620000e760201b60201c565b620000a3816200009c620000eb565b9062000121565b50620000ae6200019c565b620000c8838383620000bf620001b6565b929190620001e6565b620000d26200022d565b50620000e091505062000245565b50620004ac565b3390565b6000806200011b60017fc9ed16f33ab3a66c84bfd83099ccb2a8845871e2e1c1928f63797152f0fd54cd62000317565b92915050565b6001600160a01b03811615620001785781546001600160a01b0319166001600160a01b03821690811783556040516000907f8be0079c531659141344cd1fd0a4f28419497f9722a3daafe3b4186f6b6457e0908290a35b620001986307f5828d60e41b60016200019062000258565b919062000288565b5050565b620001b46380ac58cd60e01b60016200019062000258565b565b6000806200011b60017f7ea68fd2dcf1c056b94db6a0a537aa80d26fa9ab1eacd85da1ba0b61b7e7a8a562000317565b83620001f38482620003e0565b5060018401620002048382620003e0565b5060029390930180546001600160a01b0319166001600160a01b03909416939093179092555050565b620001b4635b5e139f60e01b60016200019062000258565b620001b4638e773e1360e01b6001620001905b6000806200011b60017fca9d3e17f264b0f3984e2634e94adb37fa3e6a8103f06aeae6fa59e21c769f5e62000317565b600160e01b6001600160e01b0319831601620002b7576040516372c683bb60e01b815260040160405180910390fd5b6001600160e01b03199190911660009081526020929092526040909120805460ff1916911515919091179055565b600060208284031215620002f857600080fd5b81516001600160a01b03811681146200031057600080fd5b9392505050565b818103818111156200011b57634e487b7160e01b600052601160045260246000fd5b634e487b7160e01b600052604160045260246000fd5b600181811c908216806200036457607f821691505b6020821081036200038557634e487b7160e01b600052602260045260246000fd5b50919050565b601f821115620003db576000816000526020600020601f850160051c81016020861015620003b65750805b601f850160051c820191505b81811015620003d757828155600101620003c2565b5050505b505050565b81516001600160401b03811115620003fc57620003fc62000339565b62000414816200040d84546200034f565b846200038b565b602080601f8311600181146200044c5760008415620004335750858301515b600019600386901b1c1916600185901b178555620003d7565b600085815260208120601f198616915b828110156200047d578886015182559484019460019091019084016200045c565b50858210156200049c5787850151600019600388901b60f8161c191681555b5050505050600190811b01905550565b61232f80620004bc6000396000f3fe608060405234801561001057600080fd5b50600436106101a35760003560e01c80638bb9c5bf116100ee578063b88d4fde11610097578063d539139311610071578063d539139314610362578063d547741f14610389578063e985e9c51461039c578063f2fde38b146103af57600080fd5b8063b88d4fde14610329578063c77c69551461033c578063c87b56dd1461034f57600080fd5b806395d89b41116100c857806395d89b4114610306578063a0c76f621461030e578063a22cb4651461031657600080fd5b80638bb9c5bf146102d85780638da5cb5b146102eb57806391d14854146102f357600080fd5b806340c10f19116101505780636352211e1161012a5780636352211e1461029157806370a08231146102a45780638832e6e3146102c557600080fd5b806340c10f191461025857806342842e0e1461026b5780634684d7e91461027e57600080fd5b8063095ea7b311610181578063095ea7b31461021d57806323b872dd146102325780632f2ff15d1461024557600080fd5b806301ffc9a7146101a857806306fdde03146101d0578063081812fc146101e5575b600080fd5b6101bb6101b6366004611d52565b6103c2565b60405190151581526020015b60405180910390f35b6101d86103dc565b6040516101c79190611ddd565b6101f86101f3366004611df0565b6103eb565b60405173ffffffffffffffffffffffffffffffffffffffff90911681526020016101c7565b61023061022b366004611e32565b6103ff565b005b610230610240366004611e5c565b610419565b610230610253366004611e98565b610436565b610230610266366004611e32565b61045f565b610230610279366004611e5c565b6104a8565b61023061028c366004611ec4565b6104c0565b6101f861029f366004611df0565b610532565b6102b76102b2366004611f4a565b610546565b6040519081526020016101c7565b6102306102d3366004611fae565b61055a565b6102306102e6366004611df0565b6105d9565b6101f86105f0565b6101bb610301366004611e98565b610617565b6101d8610662565b6101f861066c565b610230610324366004612008565b610696565b610230610337366004612044565b6106ac565b6101bb61034a366004611df0565b6106cf565b6101d861035d366004611df0565b6106e3565b6102b77f6d696e746572000000000000000000000000000000000000000000000000000081565b610230610397366004611e98565b610706565b6101bb6103aa3660046120b3565b610729565b6102306103bd366004611f4a565b610777565b60006103d6826103d061078b565b906107b9565b92915050565b60606103e6610893565b905090565b60006103d6826103f96108a5565b906108d3565b61041533838361040d6108a5565b92919061098c565b5050565b610431338484846104286108a5565b93929190610c07565b505050565b3361044981610443610ee5565b90610f13565b610431838383610457610f7e565b929190610fac565b6104947f6d696e7465720000000000000000000000000000000000000000000000000000335b61048d610f7e565b9190611082565b61041582826104a16108a5565b9190611108565b610431338484846104b76108a5565b93929190611280565b6104ea7f6d696e746572000000000000000000000000000000000000000000000000000033610485565b6104318383838080602002602001604051908101604052809392919081815260200183836020028082843760009201919091525061052b92506108a5915050565b91906112c6565b60006103d6826105406108a5565b90611492565b60006103d6826105546108a5565b906114fb565b6105847f6d696e746572000000000000000000000000000000000000000000000000000033610485565b6105d333858585858080601f0160208091040260200160405190810160405280939291908181526020018383808284376000920191909152506105ca92506108a5915050565b93929190611577565b50505050565b6105ed33826105e6610f7e565b91906115ad565b50565b60006103e66105fd610ee5565b5473ffffffffffffffffffffffffffffffffffffffff1690565b600061065b8383610626610f7e565b60009283526020908152604080842073ffffffffffffffffffffffffffffffffffffffff909316845291905290205460ff1690565b9392505050565b60606103e6611651565b60006103e6610679611663565b6002015473ffffffffffffffffffffffffffffffffffffffff1690565b6104153383836106a46108a5565b929190611691565b6106c83386868686866106bd6108a5565b9594939291906117a9565b5050505050565b60006103d6826106dd6108a5565b9061181f565b60606106f1826105406108a5565b506103d630836106ff611663565b9190611855565b3361071381610443610ee5565b610431838383610721610f7e565b929190611915565b600061065b83836107386108a5565b919073ffffffffffffffffffffffffffffffffffffffff9182166000908152600393909301602090815260408085209290931684525290205460ff1690565b6105ed3382610784610ee5565b91906119df565b6000806103d660017fca9d3e17f264b0f3984e2634e94adb37fa3e6a8103f06aeae6fa59e21c769f5e6120dd565b60007c01000000000000000000000000000000000000000000000000000000007fffffffff00000000000000000000000000000000000000000000000000000000831601610809575060006103d6565b7ffe003659000000000000000000000000000000000000000000000000000000007fffffffff0000000000000000000000000000000000000000000000000000000083160161085a575060016103d6565b507fffffffff00000000000000000000000000000000000000000000000000000000166000908152602091909152604090205460ff1690565b60606103e66108a0611663565b611af3565b6000806103d660017fddf3ee18ae6d688373c219468f8be446e7ae82215f4779d821c7ea5e8c13c0c16120dd565b60008181526020839052604081205473ffffffffffffffffffffffffffffffffffffffff8116610937576040517fdd560475000000000000000000000000000000000000000000000000000000008152600481018490526024015b60405180910390fd5b74010000000000000000000000000000000000000000811615610982575050600081815260028301602052604090205473ffffffffffffffffffffffffffffffffffffffff166103d6565b60009150506103d6565b60008181526020859052604090205473ffffffffffffffffffffffffffffffffffffffff81166109eb576040517fdd5604750000000000000000000000000000000000000000000000000000000081526004810183905260240161092e565b8073ffffffffffffffffffffffffffffffffffffffff80821690851603610a56576040517fb7fdc01000000000000000000000000000000000000000000000000000000000815273ffffffffffffffffffffffffffffffffffffffff8216600482015260240161092e565b610a61868287611b89565b610abe576040517fc7563a1800000000000000000000000000000000000000000000000000000000815273ffffffffffffffffffffffffffffffffffffffff8087166004830152821660248201526044810184905260640161092e565b73ffffffffffffffffffffffffffffffffffffffff8416610b235774010000000000000000000000000000000000000000821615610b1e57600083815260208790526040902073ffffffffffffffffffffffffffffffffffffffff821690555b610ba4565b740100000000000000000000000000000000000000008217808314610b545760008481526020889052604090208190555b506000838152600287016020526040902080547fffffffffffffffffffffffff00000000000000000000000000000000000000001673ffffffffffffffffffffffffffffffffffffffff86161790555b828473ffffffffffffffffffffffffffffffffffffffff168273ffffffffffffffffffffffffffffffffffffffff167f8c5be1e5ebec7d5bd14f71427d1e84f3dd0314c0f7b2291e5b200ac8c7c3b92560405160405180910390a4505050505050565b73ffffffffffffffffffffffffffffffffffffffff8216610c54576040517f86c8706700000000000000000000000000000000000000000000000000000000815260040160405180910390fd5b60008181526020869052604090205473ffffffffffffffffffffffffffffffffffffffff8116610cb3576040517fdd5604750000000000000000000000000000000000000000000000000000000081526004810183905260240161092e565b73ffffffffffffffffffffffffffffffffffffffff84168173ffffffffffffffffffffffffffffffffffffffff1614610d37576040517f14dbb53600000000000000000000000000000000000000000000000000000000815273ffffffffffffffffffffffffffffffffffffffff851660048201526024810183905260440161092e565b610d42868587611b89565b610df1577401000000000000000000000000000000000000000081161580610d935750600082815260028701602052604090205473ffffffffffffffffffffffffffffffffffffffff868116911614155b15610df1576040517fa4a3018b00000000000000000000000000000000000000000000000000000000815273ffffffffffffffffffffffffffffffffffffffff8087166004830152851660248201526044810183905260640161092e565b600082815260208790526040902073ffffffffffffffffffffffffffffffffffffffff80851691829055851614610e825773ffffffffffffffffffffffffffffffffffffffff80851660009081526001808901602052604080832080547fffffffffffffffffffffffffffffffffffffffffffffffffffffffffffffffff0190559286168252919020805490910190555b818373ffffffffffffffffffffffffffffffffffffffff168573ffffffffffffffffffffffffffffffffffffffff167fddf252ad1be2c89b69c2b068fc378daa952ba7f163c4a11628f55a4df523b3ef60405160405180910390a4505050505050565b6000806103d660017fc9ed16f33ab3a66c84bfd83099ccb2a8845871e2e1c1928f63797152f0fd54cd6120dd565b815473ffffffffffffffffffffffffffffffffffffffff828116911614610415576040517f2ef4875e00000000000000000000000000000000000000000000000000000000815273ffffffffffffffffffffffffffffffffffffffff8216600482015260240161092e565b6000806103d660017fc8827d3282af6f37b64c3e9e6f3ac9df286ab0bb0fccd6f8661bf19adb368b236120dd565b60008381526020858152604080832073ffffffffffffffffffffffffffffffffffffffff8616845290915290205460ff166105d35760008381526020858152604080832073ffffffffffffffffffffffffffffffffffffffff8681168086529184529382902080547fffffffffffffffffffffffffffffffffffffffffffffffffffffffffffffff00166001179055815187815292830152918316918101919091527f2f8788117e7eff1d82e926ec794901d17c78024a50270940304540a733656f0d906060015b60405180910390a150505050565b60008281526020848152604080832073ffffffffffffffffffffffffffffffffffffffff8516845290915290205460ff16610431576040517f7aa728820000000000000000000000000000000000000000000000000000000081526004810183905273ffffffffffffffffffffffffffffffffffffffff8216602482015260440161092e565b73ffffffffffffffffffffffffffffffffffffffff8216611155576040517f7851b9cd00000000000000000000000000000000000000000000000000000000815260040160405180910390fd5b60008181526020849052604090205473ffffffffffffffffffffffffffffffffffffffff8116156111b5576040517f753eceac0000000000000000000000000000000000000000000000000000000081526004810183905260240161092e565b7fdead0000000000000000000000000000000000000000000000000000000000008103611211576040517f31e8d3d50000000000000000000000000000000000000000000000000000000081526004810183905260240161092e565b60008281526020858152604080832073ffffffffffffffffffffffffffffffffffffffff87169081905580845260018089019093528184208054909301909255518492907fddf252ad1be2c89b69c2b068fc378daa952ba7f163c4a11628f55a4df523b3ef908290a450505050565b61128d8585858585610c07565b73ffffffffffffffffffffffffffffffffffffffff82163b156106c8576106c88484848460405180602001604052806000815250611bfe565b73ffffffffffffffffffffffffffffffffffffffff8216611313576040517f7851b9cd00000000000000000000000000000000000000000000000000000000815260040160405180910390fd5b805160005b8181101561145d57600083828151811061133457611334612117565b60209081029190910181015160008181529188905260409091205490915073ffffffffffffffffffffffffffffffffffffffff8116156113a3576040517f753eceac0000000000000000000000000000000000000000000000000000000081526004810183905260240161092e565b7fdead00000000000000000000000000000000000000000000000000000000000081036113ff576040517f31e8d3d50000000000000000000000000000000000000000000000000000000081526004810183905260240161092e565b60008281526020889052604080822073ffffffffffffffffffffffffffffffffffffffff89169081905590518492907fddf252ad1be2c89b69c2b068fc378daa952ba7f163c4a11628f55a4df523b3ef908290a45050600101611318565b5073ffffffffffffffffffffffffffffffffffffffff9092166000908152600190930160205250604090912080549091019055565b60008181526020839052604081205473ffffffffffffffffffffffffffffffffffffffff81166114f1576040517fdd5604750000000000000000000000000000000000000000000000000000000081526004810184905260240161092e565b805b949350505050565b600073ffffffffffffffffffffffffffffffffffffffff821661154a576040517faefbce4e00000000000000000000000000000000000000000000000000000000815260040160405180910390fd5b5073ffffffffffffffffffffffffffffffffffffffff166000908152600191909101602052604090205490565b611582858484611108565b73ffffffffffffffffffffffffffffffffffffffff83163b156106c8576106c8846000858585611bfe565b6115b8838284611082565b60008181526020848152604080832073ffffffffffffffffffffffffffffffffffffffff86168085529083529281902080547fffffffffffffffffffffffffffffffffffffffffffffffffffffffffffffff0016905580518481529182018390528101919091527ff6391f5c32d9c69d2a47ea670b442974b53935d1edc7fd64eb21e047a839171b9060600160405180910390a1505050565b60606103e661165e611663565b611d13565b6000806103d660017f7ea68fd2dcf1c056b94db6a0a537aa80d26fa9ab1eacd85da1ba0b61b7e7a8a56120dd565b8273ffffffffffffffffffffffffffffffffffffffff168273ffffffffffffffffffffffffffffffffffffffff160361170e576040517fe4215c6a00000000000000000000000000000000000000000000000000000000815273ffffffffffffffffffffffffffffffffffffffff8416600482015260240161092e565b73ffffffffffffffffffffffffffffffffffffffff838116600081815260038701602090815260408083209487168084529482529182902080547fffffffffffffffffffffffffffffffffffffffffffffffffffffffffffffff001686151590811790915591519182527f17307eab39ab6107e8899845ad3d59bd9653f200f220920489ca2b5937696c31910160405180910390a350505050565b6117b68787878787610c07565b73ffffffffffffffffffffffffffffffffffffffff84163b15611816576118168686868686868080601f016020809104026020016040519081016040528093929190818152602001838380828437600092019190915250611bfe92505050565b50505050505050565b6000818152602083905260408120547fdead0000000000000000000000000000000000000000000000000000000000001461065b565b60028301546040517ff724dad700000000000000000000000000000000000000000000000000000000815273ffffffffffffffffffffffffffffffffffffffff848116600483015260248201849052606092169063f724dad790604401600060405180830381865afa1580156118cf573d6000803e3d6000fd5b505050506040513d6000823e601f3d9081017fffffffffffffffffffffffffffffffffffffffffffffffffffffffffffffffe01682016040526114f39190810190612175565b60008381526020858152604080832073ffffffffffffffffffffffffffffffffffffffff8616845290915290205460ff16156105d35760008381526020858152604080832073ffffffffffffffffffffffffffffffffffffffff8681168086529184529382902080547fffffffffffffffffffffffffffffffffffffffffffffffffffffffffffffff00169055815187815292830152918316918101919091527ff6391f5c32d9c69d2a47ea670b442974b53935d1edc7fd64eb21e047a839171b90606001611074565b825473ffffffffffffffffffffffffffffffffffffffff9081169083168114611a4c576040517f2ef4875e00000000000000000000000000000000000000000000000000000000815273ffffffffffffffffffffffffffffffffffffffff8416600482015260240161092e565b8173ffffffffffffffffffffffffffffffffffffffff168173ffffffffffffffffffffffffffffffffffffffff16146105d35783547fffffffffffffffffffffffff00000000000000000000000000000000000000001673ffffffffffffffffffffffffffffffffffffffff8381169182178655604051908316907f8be0079c531659141344cd1fd0a4f28419497f9722a3daafe3b4186f6b6457e090600090a350505050565b6060816000018054611b0490612240565b80601f0160208091040260200160405190810160405280929190818152602001828054611b3090612240565b8015611b7d5780601f10611b5257610100808354040283529160200191611b7d565b820191906000526020600020905b815481529060010190602001808311611b6057829003601f168201915b50505050509050919050565b60008173ffffffffffffffffffffffffffffffffffffffff168373ffffffffffffffffffffffffffffffffffffffff1614806114f357505073ffffffffffffffffffffffffffffffffffffffff9182166000908152600393909301602090815260408085209290931684525290205460ff1690565b6040517f150b7a02000000000000000000000000000000000000000000000000000000008082529073ffffffffffffffffffffffffffffffffffffffff85169063150b7a0290611c58908990899088908890600401612293565b6020604051808303816000875af1158015611c77573d6000803e3d6000fd5b505050506040513d601f19601f82011682018060405250810190611c9b91906122dc565b7fffffffff0000000000000000000000000000000000000000000000000000000016146106c8576040517fc215a7a100000000000000000000000000000000000000000000000000000000815273ffffffffffffffffffffffffffffffffffffffff841660048201526024810183905260440161092e565b6060816001018054611b0490612240565b7fffffffff00000000000000000000000000000000000000000000000000000000811681146105ed57600080fd5b600060208284031215611d6457600080fd5b813561065b81611d24565b60005b83811015611d8a578181015183820152602001611d72565b50506000910152565b60008151808452611dab816020860160208601611d6f565b601f017fffffffffffffffffffffffffffffffffffffffffffffffffffffffffffffffe0169290920160200192915050565b60208152600061065b6020830184611d93565b600060208284031215611e0257600080fd5b5035919050565b803573ffffffffffffffffffffffffffffffffffffffff81168114611e2d57600080fd5b919050565b60008060408385031215611e4557600080fd5b611e4e83611e09565b946020939093013593505050565b600080600060608486031215611e7157600080fd5b611e7a84611e09565b9250611e8860208501611e09565b9150604084013590509250925092565b60008060408385031215611eab57600080fd5b82359150611ebb60208401611e09565b90509250929050565b600080600060408486031215611ed957600080fd5b611ee284611e09565b9250602084013567ffffffffffffffff80821115611eff57600080fd5b818601915086601f830112611f1357600080fd5b813581811115611f2257600080fd5b8760208260051b8501011115611f3757600080fd5b6020830194508093505050509250925092565b600060208284031215611f5c57600080fd5b61065b82611e09565b60008083601f840112611f7757600080fd5b50813567ffffffffffffffff811115611f8f57600080fd5b602083019150836020828501011115611fa757600080fd5b9250929050565b60008060008060608587031215611fc457600080fd5b611fcd85611e09565b935060208501359250604085013567ffffffffffffffff811115611ff057600080fd5b611ffc87828801611f65565b95989497509550505050565b6000806040838503121561201b57600080fd5b61202483611e09565b91506020830135801515811461203957600080fd5b809150509250929050565b60008060008060006080868803121561205c57600080fd5b61206586611e09565b945061207360208701611e09565b935060408601359250606086013567ffffffffffffffff81111561209657600080fd5b6120a288828901611f65565b969995985093965092949392505050565b600080604083850312156120c657600080fd5b6120cf83611e09565b9150611ebb60208401611e09565b818103818111156103d6577f4e487b7100000000000000000000000000000000000000000000000000000000600052601160045260246000fd5b7f4e487b7100000000000000000000000000000000000000000000000000000000600052603260045260246000fd5b7f4e487b7100000000000000000000000000000000000000000000000000000000600052604160045260246000fd5b60006020828403121561218757600080fd5b815167ffffffffffffffff8082111561219f57600080fd5b818401915084601f8301126121b357600080fd5b8151818111156121c5576121c5612146565b604051601f82017fffffffffffffffffffffffffffffffffffffffffffffffffffffffffffffffe0908116603f0116810190838211818310171561220b5761220b612146565b8160405282815287602084870101111561222457600080fd5b612235836020830160208801611d6f565b979650505050505050565b600181811c9082168061225457607f821691505b60208210810361228d577f4e487b7100000000000000000000000000000000000000000000000000000000600052602260045260246000fd5b50919050565b600073ffffffffffffffffffffffffffffffffffffffff8087168352808616602084015250836040830152608060608301526122d26080830184611d93565b9695505050505050565b6000602082840312156122ee57600080fd5b815161065b81611d2456fea264697066735822122025f93236fafa111f4b38de8a00dcce2b7702fdabe0ed8c67993f39ddc5942f8864736f6c63430008180033",
  "linkReferences": {},
  "deployedLinkReferences": {}
}