{
  "_format": "hh-sol-artifact-1",
  "contractName": "LinearCurveFacet",
  "sourceName": "contracts/lib/curve/facets/LinearCurveFacet.sol",
  "abi": [
    {
      "inputs": [
        {
          "internalType": "contract IForwarderRegistry",
          "name": "forwarderRegistry",
          "type": "address"
        }
      ],
      "stateMutability": "nonpayable",
      "type": "constructor"
    },
    {
      "inputs": [],
      "name": "IllegalInterfaceId",
      "type": "error"
    },
    {
      "inputs": [
        {
          "internalType": "uint256",
          "name": "currentPhase",
          "type": "uint256"
        },
        {
          "internalType": "uint256",
          "name": "newPhase",
          "type": "uint256"
        }
      ],
      "name": "InitializationPhaseAlreadyReached",
      "type": "error"
    },
    {
      "inputs": [],
      "name": "LinearCurveZeroDenominator",
      "type": "error"
    },
    {
      "inputs": [],
      "name": "LinearCurveZeroNumerator",
      "type": "error"
    },
    {
      "inputs": [
        {
          "internalType": "address",
          "name": "account",
          "type": "address"
        }
      ],
      "name": "NotContractOwner",
      "type": "error"
    },
    {
      "inputs": [
        {
          "internalType": "address",
          "name": "account",
          "type": "address"
        }
      ],
      "name": "NotProxyAdmin",
      "type": "error"
    },
    {
      "anonymous": false,
      "inputs": [
        {
          "indexed": true,
          "internalType": "uint256",
          "name": "price",
          "type": "uint256"
        },
        {
          "indexed": true,
          "internalType": "address",
          "name": "operator",
          "type": "address"
        }
      ],
      "name": "InitialPriceSet",
      "type": "event"
    },
    {
      "anonymous": false,
      "inputs": [
        {
          "indexed": true,
          "internalType": "uint256",
          "name": "denominator",
          "type": "uint256"
        },
        {
          "indexed": true,
          "internalType": "address",
          "name": "operator",
          "type": "address"
        }
      ],
      "name": "SlopeDenominatorSet",
      "type": "event"
    },
    {
      "anonymous": false,
      "inputs": [
        {
          "indexed": true,
          "internalType": "uint256",
          "name": "numerator",
          "type": "uint256"
        },
        {
          "indexed": true,
          "internalType": "address",
          "name": "operator",
          "type": "address"
        }
      ],
      "name": "SlopeNumeratorSet",
      "type": "event"
    },
    {
      "inputs": [
        {
          "internalType": "uint256",
          "name": "totalSupply",
          "type": "uint256"
        },
        {
          "internalType": "uint256",
          "name": "amount",
          "type": "uint256"
        }
      ],
      "name": "calculatePrice",
      "outputs": [
        {
          "internalType": "uint256",
          "name": "price",
          "type": "uint256"
        }
      ],
      "stateMutability": "view",
      "type": "function"
    },
    {
      "inputs": [
        {
          "internalType": "uint256",
          "name": "price",
          "type": "uint256"
        },
        {
          "internalType": "uint256",
          "name": "numerator",
          "type": "uint256"
        },
        {
          "internalType": "uint256",
          "name": "denominator",
          "type": "uint256"
        }
      ],
      "name": "initLinearCurveStorage",
      "outputs": [],
      "stateMutability": "nonpayable",
      "type": "function"
    },
    {
      "inputs": [],
      "name": "initialPrice",
      "outputs": [
        {
          "internalType": "uint256",
          "name": "price",
          "type": "uint256"
        }
      ],
      "stateMutability": "view",
      "type": "function"
    },
    {
      "inputs": [
        {
          "internalType": "uint256",
          "name": "price",
          "type": "uint256"
        }
      ],
      "name": "setInitialPrice",
      "outputs": [],
      "stateMutability": "nonpayable",
      "type": "function"
    },
    {
      "inputs": [
        {
          "internalType": "uint256",
          "name": "denominator",
          "type": "uint256"
        }
      ],
      "name": "setSlopeDenominator",
      "outputs": [],
      "stateMutability": "nonpayable",
      "type": "function"
    },
    {
      "inputs": [
        {
          "internalType": "uint256",
          "name": "numerator",
          "type": "uint256"
        }
      ],
      "name": "setSlopeNumerator",
      "outputs": [],
      "stateMutability": "nonpayable",
      "type": "function"
    },
    {
      "inputs": [],
      "name": "slopeDenominator",
      "outputs": [
        {
          "internalType": "uint256",
          "name": "denominator",
          "type": "uint256"
        }
      ],
      "stateMutability": "view",
      "type": "function"
    },
    {
      "inputs": [],
      "name": "slopeNumerator",
      "outputs": [
        {
          "internalType": "uint256",
          "name": "numerator",
          "type": "uint256"
        }
      ],
      "stateMutability": "view",
      "type": "function"
    }
  ],
  "bytecode": "0x60a060405234801561001057600080fd5b50604051610abf380380610abf83398101604081905261002f91610040565b6001600160a01b0316608052610070565b60006020828403121561005257600080fd5b81516001600160a01b038116811461006957600080fd5b9392505050565b608051610a2d610092600039600081816105e6015261066e0152610a2d6000f3fe608060405234801561001057600080fd5b50600436106100885760003560e01c80639f4ba0ee1161005b5780639f4ba0ee146100cc578063a6413a27146100df578063ba16217f146100f2578063d58ee4711461010557600080fd5b80631d0806ae1461008d5780631de7223b146100a757806321800fc3146100bc57806365a3ea5f146100c4575b600080fd5b610095610118565b60405190815260200160405180910390f35b6100ba6100b53660046108c0565b61012e565b005b610095610164565b610095610178565b6100ba6100da3660046108c0565b61018c565b6100956100ed3660046108d9565b6101b8565b6100ba6101003660046108fb565b6101d7565b6100ba6101133660046108c0565b610213565b600061012961012561023f565b5490565b905090565b600061013861026d565b905061014c81610146610277565b906102a5565b610160828261015961023f565b9190610315565b5050565b600061012961017161023f565b6001015490565b600061012961018561023f565b6002015490565b600061019661026d565b90506101a481610146610277565b61016082826101b161023f565b919061039e565b60006101ce83836101c761023f565b91906103e9565b90505b92915050565b60006101e161026d565b90506101f5816101ef610438565b90610466565b61020d8484848461020461023f565b939291906104d1565b50505050565b600061021d61026d565b905061022b81610146610277565b610160828261023861023f565b919061051a565b6000806101d160017f039d70c9b3f52605681bdc7fbd50a477b2d981df84c34b96fc10bf20b415c738610956565b60006101296105a3565b6000806101d160017fc9ed16f33ab3a66c84bfd83099ccb2a8845871e2e1c1928f63797152f0fd54cd610956565b815473ffffffffffffffffffffffffffffffffffffffff828116911614610160576040517f2ef4875e00000000000000000000000000000000000000000000000000000000815273ffffffffffffffffffffffffffffffffffffffff821660048201526024015b60405180910390fd5b8160000361034f576040517f1ba5706200000000000000000000000000000000000000000000000000000000815260040160405180910390fd5b6001830182905560405173ffffffffffffffffffffffffffffffffffffffff82169083907f57e9b94ca9a18b4ab6b4c06a7888ffbaf6d53a7902cea0c6084989d4b915544690600090a3505050565b81835560405173ffffffffffffffffffffffffffffffffffffffff82169083907fc9743acbde4009119d240bc9a916fb878829a363cf97bf446e3b6ae6a942bf2e90600090a3505050565b60008060016103f88486610969565b6104029190610956565b90508460020154856001015482610419919061097c565b6104239190610993565b855461042f9190610969565b95945050505050565b6000806101d160017fb53127684a568b3173ae13b9f8a6016e243e63b6e8ee1178d6a717850b5d6104610956565b815473ffffffffffffffffffffffffffffffffffffffff828116911614610160576040517f673a31a100000000000000000000000000000000000000000000000000000000815273ffffffffffffffffffffffffffffffffffffffff8216600482015260240161030c565b6105066104ff60017f930786d45e1bbb08036fea071eb522a769b4d1f517843fc112eb0f43e263ef46610956565b60016106ea565b6105138585858585610736565b5050505050565b81600003610554576040517fed859e7c00000000000000000000000000000000000000000000000000000000815260040160405180910390fd5b6002830182905560405173ffffffffffffffffffffffffffffffffffffffff82169083907faf9c43ff06c74ca8197f8512b0129a3c1ab15740723f041fda4563e8332d7a0f90600090a3505050565b6000333214806105b35750601836105b156105bd57503390565b7fffffffffffffffffffffffffffffffffffffffffffffffffffffffffffffffec36013560601c7f000000000000000000000000000000000000000000000000000000000000000073ffffffffffffffffffffffffffffffffffffffff163314806106d957506040517f8929a8ca00000000000000000000000000000000000000000000000000000000815273ffffffffffffffffffffffffffffffffffffffff82811660048301523360248301527f00000000000000000000000000000000000000000000000000000000000000001690638929a8ca90604401602060405180830381865afa1580156106b5573d6000803e3d6000fd5b505050506040513d601f19601f820116820180604052508101906106d991906109ce565b156106e357919050565b3391505090565b81548290828110610731576040517fbf0c18ec000000000000000000000000000000000000000000000000000000008152600481018290526024810184905260440161030c565b505550565b61074185858361039e565b61074c858483610315565b61075785838361051a565b61078c7fa6413a270000000000000000000000000000000000000000000000000000000060016107856107b6565b91906107e4565b6105137f0e0985960000000000000000000000000000000000000000000000000000000060016107855b6000806101d160017fca9d3e17f264b0f3984e2634e94adb37fa3e6a8103f06aeae6fa59e21c769f5e610956565b7c01000000000000000000000000000000000000000000000000000000007fffffffff0000000000000000000000000000000000000000000000000000000083160161085c576040517f72c683bb00000000000000000000000000000000000000000000000000000000815260040160405180910390fd5b7fffffffff00000000000000000000000000000000000000000000000000000000919091166000908152602092909252604090912080547fffffffffffffffffffffffffffffffffffffffffffffffffffffffffffffff0016911515919091179055565b6000602082840312156108d257600080fd5b5035919050565b600080604083850312156108ec57600080fd5b50508035926020909101359150565b60008060006060848603121561091057600080fd5b505081359360208301359350604090920135919050565b7f4e487b7100000000000000000000000000000000000000000000000000000000600052601160045260246000fd5b818103818111156101d1576101d1610927565b808201808211156101d1576101d1610927565b80820281158282048414176101d1576101d1610927565b6000826109c9577f4e487b7100000000000000000000000000000000000000000000000000000000600052601260045260246000fd5b500490565b6000602082840312156109e057600080fd5b815180151581146109f057600080fd5b939250505056fea2646970667358221220c2d5ded7bb56d597fc12b3716c0b452b672411520a4dc1c27d7792b6041c4f1e64736f6c63430008180033",
  "linkReferences": {},
  "deployedLinkReferences": {}
}