{
  "_format": "hh-sol-artifact-1",
  "contractName": "ERC721MinterFacet",
  "sourceName": "contracts/lib/minter/ERC721/facets/ERC721MinterFacet.sol",
  "abi": [
    {
      "inputs": [
        {
          "internalType": "contract IForwarderRegistry",
          "name": "forwarderRegistry",
          "type": "address"
        }
      ],
      "stateMutability": "nonpayable",
      "type": "constructor"
    },
    {
      "inputs": [],
      "name": "ERC721MinterMaxTokenIdExceeded",
      "type": "error"
    },
    {
      "inputs": [
        {
          "internalType": "address",
          "name": "tokenContract",
          "type": "address"
        }
      ],
      "name": "ERC721MinterUnsupportedContractType",
      "type": "error"
    },
    {
      "inputs": [],
      "name": "ERC721MinterZeroMaxTokenId",
      "type": "error"
    },
    {
      "inputs": [],
      "name": "ERC721MinterZeroTokenAddress",
      "type": "error"
    },
    {
      "inputs": [],
      "name": "IllegalInterfaceId",
      "type": "error"
    },
    {
      "inputs": [
        {
          "internalType": "uint256",
          "name": "currentPhase",
          "type": "uint256"
        },
        {
          "internalType": "uint256",
          "name": "newPhase",
          "type": "uint256"
        }
      ],
      "name": "InitializationPhaseAlreadyReached",
      "type": "error"
    },
    {
      "inputs": [
        {
          "internalType": "address",
          "name": "account",
          "type": "address"
        }
      ],
      "name": "NotProxyAdmin",
      "type": "error"
    },
    {
      "inputs": [],
      "name": "currentTokenId",
      "outputs": [
        {
          "internalType": "uint256",
          "name": "tokenId",
          "type": "uint256"
        }
      ],
      "stateMutability": "view",
      "type": "function"
    },
    {
      "inputs": [
        {
          "internalType": "uint256",
          "name": "maxTokenId",
          "type": "uint256"
        },
        {
          "internalType": "contract IERC721Mintable",
          "name": "token",
          "type": "address"
        }
      ],
      "name": "initERC721MinterStorage",
      "outputs": [],
      "stateMutability": "nonpayable",
      "type": "function"
    },
    {
      "inputs": [],
      "name": "maxTokenId",
      "outputs": [
        {
          "internalType": "uint256",
          "name": "tokenId",
          "type": "uint256"
        }
      ],
      "stateMutability": "view",
      "type": "function"
    },
    {
      "inputs": [
        {
          "internalType": "address",
          "name": "to",
          "type": "address"
        }
      ],
      "name": "mint",
      "outputs": [],
      "stateMutability": "nonpayable",
      "type": "function"
    }
  ],
  "bytecode": "0x60a060405234801561001057600080fd5b5060405161095838038061095883398101604081905261002f91610040565b6001600160a01b0316608052610070565b60006020828403121561005257600080fd5b81516001600160a01b038116811461006957600080fd5b9392505050565b6080516108c661009260003960008181610181015261020901526108c66000f3fe608060405234801561001057600080fd5b506004361061004b5760003560e01c80629a9b7b1461005057806352fca9c01461006a5780636a6278421461007f57806391ba317a14610092575b600080fd5b61005861009a565b60405190815260200160405180910390f35b61007d6100783660046107c5565b6100b0565b005b61007d61008d3660046107f5565b6100e1565b6100586100f6565b60006100ab6100a761010a565b5490565b905090565b6100c96100bb61013e565b6100c3610285565b906102b3565b6100dd82826100d661010a565b9190610323565b5050565b6100f3816100ed61010a565b90610368565b50565b60006100ab61010361010a565b6001015490565b60008061013860017f693bcdae20ebbf8c20ad73778252483eb64f50287e6e826c8678109643b49176610848565b92915050565b60003332148061014e5750601836105b1561015857503390565b7fffffffffffffffffffffffffffffffffffffffffffffffffffffffffffffffec36013560601c7f000000000000000000000000000000000000000000000000000000000000000073ffffffffffffffffffffffffffffffffffffffff1633148061027457506040517f8929a8ca00000000000000000000000000000000000000000000000000000000815273ffffffffffffffffffffffffffffffffffffffff82811660048301523360248301527f00000000000000000000000000000000000000000000000000000000000000001690638929a8ca90604401602060405180830381865afa158015610250573d6000803e3d6000fd5b505050506040513d601f19601f82011682018060405250810190610274919061085b565b1561027e57919050565b3391505090565b60008061013860017fb53127684a568b3173ae13b9f8a6016e243e63b6e8ee1178d6a717850b5d6104610848565b815473ffffffffffffffffffffffffffffffffffffffff8281169116146100dd576040517f673a31a100000000000000000000000000000000000000000000000000000000815273ffffffffffffffffffffffffffffffffffffffff821660048201526024015b60405180910390fd5b61035861035160017f45d439c902da5ba33f98e10a3a9e80a454ed74a1b14c49a6e476fcd1db4ddd6c610848565b600161044b565b610363838383610497565b505050565b815460009061037890600161087d565b905082600101548111156103b8576040517f4594a70000000000000000000000000000000000000000000000000000000000815260040160405180910390fd5b60028301546040517f40c10f1900000000000000000000000000000000000000000000000000000000815273ffffffffffffffffffffffffffffffffffffffff848116600483015260248201849052909116906340c10f1990604401600060405180830381600087803b15801561042e57600080fd5b505af1158015610442573d6000803e3d6000fd5b50505092555050565b81548290828110610492576040517fbf0c18ec000000000000000000000000000000000000000000000000000000008152600481018290526024810184905260440161031a565b505550565b816000036104d1576040517fc14cb6f500000000000000000000000000000000000000000000000000000000815260040160405180910390fd5b73ffffffffffffffffffffffffffffffffffffffff811661051e576040517f9e7ef70800000000000000000000000000000000000000000000000000000000815260040160405180910390fd5b6040517f01ffc9a70000000000000000000000000000000000000000000000000000000081527f8e773e1300000000000000000000000000000000000000000000000000000000600482015273ffffffffffffffffffffffffffffffffffffffff8216906301ffc9a790602401602060405180830381865afa1580156105a8573d6000803e3d6000fd5b505050506040513d601f19601f820116820180604052508101906105cc919061085b565b61061a576040517fdbca5b3800000000000000000000000000000000000000000000000000000000815273ffffffffffffffffffffffffffffffffffffffff8216600482015260240161031a565b60018381018390556002840180547fffffffffffffffffffffffff00000000000000000000000000000000000000001673ffffffffffffffffffffffffffffffffffffffff8416179055610363907ffb42d2430000000000000000000000000000000000000000000000000000000090610692610699565b91906106c7565b60008061013860017fca9d3e17f264b0f3984e2634e94adb37fa3e6a8103f06aeae6fa59e21c769f5e610848565b7c01000000000000000000000000000000000000000000000000000000007fffffffff0000000000000000000000000000000000000000000000000000000083160161073f576040517f72c683bb00000000000000000000000000000000000000000000000000000000815260040160405180910390fd5b7fffffffff00000000000000000000000000000000000000000000000000000000919091166000908152602092909252604090912080547fffffffffffffffffffffffffffffffffffffffffffffffffffffffffffffff0016911515919091179055565b73ffffffffffffffffffffffffffffffffffffffff811681146100f357600080fd5b600080604083850312156107d857600080fd5b8235915060208301356107ea816107a3565b809150509250929050565b60006020828403121561080757600080fd5b8135610812816107a3565b9392505050565b7f4e487b7100000000000000000000000000000000000000000000000000000000600052601160045260246000fd5b8181038181111561013857610138610819565b60006020828403121561086d57600080fd5b8151801515811461081257600080fd5b808201808211156101385761013861081956fea264697066735822122081b040df5d5267727deb4ee7162e337cc8875d2228acfb0e37801b91fb4cb6d564736f6c63430008180033",
  "linkReferences": {},
  "deployedLinkReferences": {}
}