{
  "_format": "hh-sol-artifact-1",
  "contractName": "BondingCurve",
  "sourceName": "contracts/BondingCurve.sol",
  "abi": [
    {
      "inputs": [
        {
          "internalType": "uint256",
          "name": "price",
          "type": "uint256"
        },
        {
          "internalType": "uint256",
          "name": "numerator",
          "type": "uint256"
        },
        {
          "internalType": "uint256",
          "name": "denominator",
          "type": "uint256"
        }
      ],
      "stateMutability": "nonpayable",
      "type": "constructor"
    },
    {
      "inputs": [],
      "name": "IllegalInterfaceId",
      "type": "error"
    },
    {
      "inputs": [],
      "name": "LinearCurveZeroDenominator",
      "type": "error"
    },
    {
      "inputs": [],
      "name": "LinearCurveZeroNumerator",
      "type": "error"
    },
    {
      "inputs": [
        {
          "internalType": "address",
          "name": "account",
          "type": "address"
        }
      ],
      "name": "NotContractOwner",
      "type": "error"
    },
    {
      "anonymous": false,
      "inputs": [
        {
          "indexed": true,
          "internalType": "uint256",
          "name": "price",
          "type": "uint256"
        },
        {
          "indexed": true,
          "internalType": "address",
          "name": "operator",
          "type": "address"
        }
      ],
      "name": "InitialPriceSet",
      "type": "event"
    },
    {
      "anonymous": false,
      "inputs": [
        {
          "indexed": true,
          "internalType": "address",
          "name": "previousOwner",
          "type": "address"
        },
        {
          "indexed": true,
          "internalType": "address",
          "name": "newOwner",
          "type": "address"
        }
      ],
      "name": "OwnershipTransferred",
      "type": "event"
    },
    {
      "anonymous": false,
      "inputs": [
        {
          "indexed": true,
          "internalType": "uint256",
          "name": "denominator",
          "type": "uint256"
        },
        {
          "indexed": true,
          "internalType": "address",
          "name": "operator",
          "type": "address"
        }
      ],
      "name": "SlopeDenominatorSet",
      "type": "event"
    },
    {
      "anonymous": false,
      "inputs": [
        {
          "indexed": true,
          "internalType": "uint256",
          "name": "numerator",
          "type": "uint256"
        },
        {
          "indexed": true,
          "internalType": "address",
          "name": "operator",
          "type": "address"
        }
      ],
      "name": "SlopeNumeratorSet",
      "type": "event"
    },
    {
      "inputs": [
        {
          "internalType": "uint256",
          "name": "totalSupply",
          "type": "uint256"
        },
        {
          "internalType": "uint256",
          "name": "amount",
          "type": "uint256"
        }
      ],
      "name": "calculatePrice",
      "outputs": [
        {
          "internalType": "uint256",
          "name": "price",
          "type": "uint256"
        }
      ],
      "stateMutability": "view",
      "type": "function"
    },
    {
      "inputs": [],
      "name": "initialPrice",
      "outputs": [
        {
          "internalType": "uint256",
          "name": "price",
          "type": "uint256"
        }
      ],
      "stateMutability": "view",
      "type": "function"
    },
    {
      "inputs": [],
      "name": "owner",
      "outputs": [
        {
          "internalType": "address",
          "name": "",
          "type": "address"
        }
      ],
      "stateMutability": "view",
      "type": "function"
    },
    {
      "inputs": [
        {
          "internalType": "uint256",
          "name": "price",
          "type": "uint256"
        }
      ],
      "name": "setInitialPrice",
      "outputs": [],
      "stateMutability": "nonpayable",
      "type": "function"
    },
    {
      "inputs": [
        {
          "internalType": "uint256",
          "name": "denominator",
          "type": "uint256"
        }
      ],
      "name": "setSlopeDenominator",
      "outputs": [],
      "stateMutability": "nonpayable",
      "type": "function"
    },
    {
      "inputs": [
        {
          "internalType": "uint256",
          "name": "numerator",
          "type": "uint256"
        }
      ],
      "name": "setSlopeNumerator",
      "outputs": [],
      "stateMutability": "nonpayable",
      "type": "function"
    },
    {
      "inputs": [],
      "name": "slopeDenominator",
      "outputs": [
        {
          "internalType": "uint256",
          "name": "denominator",
          "type": "uint256"
        }
      ],
      "stateMutability": "view",
      "type": "function"
    },
    {
      "inputs": [],
      "name": "slopeNumerator",
      "outputs": [
        {
          "internalType": "uint256",
          "name": "numerator",
          "type": "uint256"
        }
      ],
      "stateMutability": "view",
      "type": "function"
    },
    {
      "inputs": [
        {
          "internalType": "bytes4",
          "name": "interfaceId",
          "type": "bytes4"
        }
      ],
      "name": "supportsInterface",
      "outputs": [
        {
          "internalType": "bool",
          "name": "",
          "type": "bool"
        }
      ],
      "stateMutability": "view",
      "type": "function"
    },
    {
      "inputs": [
        {
          "internalType": "address",
          "name": "newOwner",
          "type": "address"
        }
      ],
      "name": "transferOwnership",
      "outputs": [],
      "stateMutability": "nonpayable",
      "type": "function"
    }
  ],
  "bytecode": "0x60806040523480156200001157600080fd5b5060405162000c9038038062000c9083398101604081905262000034916200034b565b33838383836200004f816200004862000079565b90620000af565b506200006c83838333620000626200012a565b939291906200015a565b505050505050506200039c565b600080620000a960017fc9ed16f33ab3a66c84bfd83099ccb2a8845871e2e1c1928f63797152f0fd54cd6200037a565b92915050565b6001600160a01b03811615620001065781546001600160a01b0319166001600160a01b03821690811783556040516000907f8be0079c531659141344cd1fd0a4f28419497f9722a3daafe3b4186f6b6457e0908290a35b620001266307f5828d60e41b60016200011e620001b8565b9190620001e8565b5050565b600080620000a960017f039d70c9b3f52605681bdc7fbd50a477b2d981df84c34b96fc10bf20b415c7386200037a565b6200016785858362000245565b6200017485848362000283565b62000181858383620002e7565b6200019963a6413a2760e01b60016200011e620001b8565b620001b1630704c2cb60e11b60016200011e620001b8565b5050505050565b600080620000a960017fca9d3e17f264b0f3984e2634e94adb37fa3e6a8103f06aeae6fa59e21c769f5e6200037a565b600160e01b6001600160e01b031983160162000217576040516372c683bb60e01b815260040160405180910390fd5b6001600160e01b03199190911660009081526020929092526040909120805460ff1916911515919091179055565b8183556040516001600160a01b0382169083907fc9743acbde4009119d240bc9a916fb878829a363cf97bf446e3b6ae6a942bf2e90600090a3505050565b81600003620002a557604051630dd2b83160e11b815260040160405180910390fd5b600183018290556040516001600160a01b0382169083907f57e9b94ca9a18b4ab6b4c06a7888ffbaf6d53a7902cea0c6084989d4b915544690600090a3505050565b816000036200030957604051633b61679f60e21b815260040160405180910390fd5b600283018290556040516001600160a01b0382169083907faf9c43ff06c74ca8197f8512b0129a3c1ab15740723f041fda4563e8332d7a0f90600090a3505050565b6000806000606084860312156200036157600080fd5b8351925060208401519150604084015190509250925092565b81810381811115620000a957634e487b7160e01b600052601160045260246000fd5b6108e480620003ac6000396000f3fe608060405234801561001057600080fd5b50600436106100be5760003560e01c80638da5cb5b11610076578063a6413a271161005b578063a6413a2714610166578063d58ee47114610179578063f2fde38b1461018c57600080fd5b80638da5cb5b146101265780639f4ba0ee1461015357600080fd5b80631de7223b116100a75780631de7223b1461010157806321800fc31461011657806365a3ea5f1461011e57600080fd5b806301ffc9a7146100c35780631d0806ae146100eb575b600080fd5b6100d66100d1366004610754565b61019f565b60405190151581526020015b60405180910390f35b6100f36101b9565b6040519081526020016100e2565b61011461010f366004610796565b6101cf565b005b6100f36101fa565b6100f361020e565b61012e610222565b60405173ffffffffffffffffffffffffffffffffffffffff90911681526020016100e2565b610114610161366004610796565b610249565b6100f36101743660046107af565b61026a565b610114610187366004610796565b610287565b61011461019a3660046107d1565b6102a8565b60006101b3826101ad6102bf565b906102ed565b92915050565b60006101ca6101c66103c7565b5490565b905090565b336101e2816101dc6103f5565b90610423565b6101f682826101ef6103c7565b9190610493565b5050565b60006101ca6102076103c7565b6001015490565b60006101ca61021b6103c7565b6002015490565b60006101ca61022f6103f5565b5473ffffffffffffffffffffffffffffffffffffffff1690565b33610256816101dc6103f5565b6101f682826102636103c7565b919061051c565b600061028083836102796103c7565b9190610567565b9392505050565b33610294816101dc6103f5565b6101f682826102a16103c7565b91906105b6565b6102bc33826102b56103f5565b919061063f565b50565b6000806101b360017fca9d3e17f264b0f3984e2634e94adb37fa3e6a8103f06aeae6fa59e21c769f5e610836565b60007c01000000000000000000000000000000000000000000000000000000007fffffffff0000000000000000000000000000000000000000000000000000000083160161033d575060006101b3565b7ffe003659000000000000000000000000000000000000000000000000000000007fffffffff0000000000000000000000000000000000000000000000000000000083160161038e575060016101b3565b507fffffffff00000000000000000000000000000000000000000000000000000000166000908152602091909152604090205460ff1690565b6000806101b360017f039d70c9b3f52605681bdc7fbd50a477b2d981df84c34b96fc10bf20b415c738610836565b6000806101b360017fc9ed16f33ab3a66c84bfd83099ccb2a8845871e2e1c1928f63797152f0fd54cd610836565b815473ffffffffffffffffffffffffffffffffffffffff8281169116146101f6576040517f2ef4875e00000000000000000000000000000000000000000000000000000000815273ffffffffffffffffffffffffffffffffffffffff821660048201526024015b60405180910390fd5b816000036104cd576040517f1ba5706200000000000000000000000000000000000000000000000000000000815260040160405180910390fd5b6001830182905560405173ffffffffffffffffffffffffffffffffffffffff82169083907f57e9b94ca9a18b4ab6b4c06a7888ffbaf6d53a7902cea0c6084989d4b915544690600090a3505050565b81835560405173ffffffffffffffffffffffffffffffffffffffff82169083907fc9743acbde4009119d240bc9a916fb878829a363cf97bf446e3b6ae6a942bf2e90600090a3505050565b60008060016105768486610849565b6105809190610836565b90508460020154856001015482610597919061085c565b6105a19190610873565b85546105ad9190610849565b95945050505050565b816000036105f0576040517fed859e7c00000000000000000000000000000000000000000000000000000000815260040160405180910390fd5b6002830182905560405173ffffffffffffffffffffffffffffffffffffffff82169083907faf9c43ff06c74ca8197f8512b0129a3c1ab15740723f041fda4563e8332d7a0f90600090a3505050565b825473ffffffffffffffffffffffffffffffffffffffff90811690831681146106ac576040517f2ef4875e00000000000000000000000000000000000000000000000000000000815273ffffffffffffffffffffffffffffffffffffffff8416600482015260240161048a565b8173ffffffffffffffffffffffffffffffffffffffff168173ffffffffffffffffffffffffffffffffffffffff161461074e5783547fffffffffffffffffffffffff00000000000000000000000000000000000000001673ffffffffffffffffffffffffffffffffffffffff8381169182178655604051908316907f8be0079c531659141344cd1fd0a4f28419497f9722a3daafe3b4186f6b6457e090600090a35b50505050565b60006020828403121561076657600080fd5b81357fffffffff000000000000000000000000000000000000000000000000000000008116811461028057600080fd5b6000602082840312156107a857600080fd5b5035919050565b600080604083850312156107c257600080fd5b50508035926020909101359150565b6000602082840312156107e357600080fd5b813573ffffffffffffffffffffffffffffffffffffffff8116811461028057600080fd5b7f4e487b7100000000000000000000000000000000000000000000000000000000600052601160045260246000fd5b818103818111156101b3576101b3610807565b808201808211156101b3576101b3610807565b80820281158282048414176101b3576101b3610807565b6000826108a9577f4e487b7100000000000000000000000000000000000000000000000000000000600052601260045260246000fd5b50049056fea2646970667358221220b8a4fda3ed3a4a85b3951fd52fcce45689e6a1d0c33c85141243ac3ccba08e0864736f6c63430008180033",
  "linkReferences": {},
  "deployedLinkReferences": {}
}